{
  "contractName": "CryptoFiatHub",
  "abi": [
    {
      "constant": true,
      "inputs": [],
      "name": "proofToken",
      "outputs": [
        {
          "name": "",
          "type": "address"
        }
      ],
      "payable": false,
      "stateMutability": "view",
      "type": "function"
    },
    {
      "constant": true,
      "inputs": [
        {
          "name": "",
          "type": "bytes32"
        }
      ],
      "name": "callingValue",
      "outputs": [
        {
          "name": "",
          "type": "uint256"
        }
      ],
      "payable": false,
      "stateMutability": "view",
      "type": "function"
    },
    {
      "constant": true,
      "inputs": [],
      "name": "usingOraclize",
      "outputs": [
        {
          "name": "",
          "type": "bool"
        }
      ],
      "payable": false,
      "stateMutability": "view",
      "type": "function"
    },
    {
      "constant": true,
      "inputs": [
        {
          "name": "",
          "type": "bytes32"
        }
      ],
      "name": "callingAddress",
      "outputs": [
        {
          "name": "",
          "type": "address"
        }
      ],
      "payable": false,
      "stateMutability": "view",
      "type": "function"
    },
    {
      "constant": true,
      "inputs": [],
      "name": "store",
      "outputs": [
        {
          "name": "",
          "type": "address"
        }
      ],
      "payable": false,
      "stateMutability": "view",
      "type": "function"
    },
    {
      "constant": true,
      "inputs": [],
      "name": "proofRewards",
      "outputs": [
        {
          "name": "",
          "type": "address"
        }
      ],
      "payable": false,
      "stateMutability": "view",
      "type": "function"
    },
    {
      "constant": true,
      "inputs": [],
      "name": "ipfsHash",
      "outputs": [
        {
          "name": "",
          "type": "string"
        }
      ],
      "payable": false,
      "stateMutability": "view",
      "type": "function"
    },
    {
      "constant": true,
      "inputs": [
        {
          "name": "",
          "type": "bytes32"
        }
      ],
      "name": "callingFunction",
      "outputs": [
        {
          "name": "",
          "type": "uint8"
        }
      ],
      "payable": false,
      "stateMutability": "view",
      "type": "function"
    },
    {
      "constant": true,
      "inputs": [],
      "name": "cryptoDollar",
      "outputs": [
        {
          "name": "",
          "type": "address"
        }
      ],
      "payable": false,
      "stateMutability": "view",
      "type": "function"
    },
    {
      "constant": true,
      "inputs": [
        {
          "name": "",
          "type": "bytes32"
        }
      ],
      "name": "callingFee",
      "outputs": [
        {
          "name": "",
          "type": "uint256"
        }
      ],
      "payable": false,
      "stateMutability": "view",
      "type": "function"
    },
    {
      "inputs": [
        {
          "name": "_cryptoDollarAddress",
          "type": "address"
        },
        {
          "name": "_storeAddress",
          "type": "address"
        },
        {
          "name": "_proofTokenAddress",
          "type": "address"
        },
        {
          "name": "_proofRewardsAddress",
          "type": "address"
        }
      ],
      "payable": false,
      "stateMutability": "nonpayable",
      "type": "constructor"
    },
    {
      "payable": true,
      "stateMutability": "payable",
      "type": "fallback"
    },
    {
      "anonymous": false,
      "inputs": [
        {
          "indexed": false,
          "name": "queryId",
          "type": "bytes32"
        },
        {
          "indexed": false,
          "name": "sender",
          "type": "address"
        },
        {
          "indexed": false,
          "name": "value",
          "type": "uint256"
        },
        {
          "indexed": false,
          "name": "oraclizeFee",
          "type": "uint256"
        }
      ],
      "name": "BuyCryptoDollar",
      "type": "event"
    },
    {
      "anonymous": false,
      "inputs": [
        {
          "indexed": false,
          "name": "queryId",
          "type": "bytes32"
        },
        {
          "indexed": false,
          "name": "sender",
          "type": "address"
        },
        {
          "indexed": false,
          "name": "tokenAmount",
          "type": "uint256"
        },
        {
          "indexed": false,
          "name": "oraclizeFee",
          "type": "uint256"
        }
      ],
      "name": "SellCryptoDollar",
      "type": "event"
    },
    {
      "anonymous": false,
      "inputs": [
        {
          "indexed": false,
          "name": "queryId",
          "type": "bytes32"
        },
        {
          "indexed": false,
          "name": "sender",
          "type": "address"
        },
        {
          "indexed": false,
          "name": "tokenAmount",
          "type": "uint256"
        },
        {
          "indexed": false,
          "name": "oraclizeFee",
          "type": "uint256"
        }
      ],
      "name": "SellUnpeggedCryptoDollar",
      "type": "event"
    },
    {
      "anonymous": false,
      "inputs": [
        {
          "indexed": false,
          "name": "queryId",
          "type": "bytes32"
        },
        {
          "indexed": false,
          "name": "result",
          "type": "string"
        },
        {
          "indexed": false,
          "name": "sender",
          "type": "address"
        },
        {
          "indexed": false,
          "name": "tokenAmount",
          "type": "uint256"
        },
        {
          "indexed": false,
          "name": "paymentValue",
          "type": "uint256"
        }
      ],
      "name": "BuyCryptoDollarCallback",
      "type": "event"
    },
    {
      "anonymous": false,
      "inputs": [
        {
          "indexed": false,
          "name": "queryId",
          "type": "bytes32"
        },
        {
          "indexed": false,
          "name": "result",
          "type": "string"
        },
        {
          "indexed": false,
          "name": "sender",
          "type": "address"
        },
        {
          "indexed": false,
          "name": "tokenAmount",
          "type": "uint256"
        },
        {
          "indexed": false,
          "name": "paymentValue",
          "type": "uint256"
        }
      ],
      "name": "SellCryptoDollarCallback",
      "type": "event"
    },
    {
      "anonymous": false,
      "inputs": [
        {
          "indexed": false,
          "name": "queryId",
          "type": "bytes32"
        },
        {
          "indexed": false,
          "name": "result",
          "type": "string"
        },
        {
          "indexed": false,
          "name": "sender",
          "type": "address"
        },
        {
          "indexed": false,
          "name": "tokenAmount",
          "type": "uint256"
        },
        {
          "indexed": false,
          "name": "paymentValue",
          "type": "uint256"
        }
      ],
      "name": "SellUnpeggedCryptoDollarCallback",
      "type": "event"
    },
    {
      "constant": false,
      "inputs": [
        {
          "name": "_blocksPerEpoch",
          "type": "uint256"
        }
      ],
      "name": "initialize",
      "outputs": [],
      "payable": false,
      "stateMutability": "nonpayable",
      "type": "function"
    },
    {
      "constant": false,
      "inputs": [
        {
          "name": "_ipfsHash",
          "type": "string"
        },
        {
          "name": "_test",
          "type": "bool"
        }
      ],
      "name": "initializeOraclize",
      "outputs": [],
      "payable": false,
      "stateMutability": "nonpayable",
      "type": "function"
    },
    {
      "constant": false,
      "inputs": [],
      "name": "capitalize",
      "outputs": [],
      "payable": true,
      "stateMutability": "payable",
      "type": "function"
    },
    {
      "constant": false,
      "inputs": [],
      "name": "buyCryptoDollar",
      "outputs": [],
      "payable": true,
      "stateMutability": "payable",
      "type": "function"
    },
    {
      "constant": false,
      "inputs": [
        {
          "name": "_tokenAmount",
          "type": "uint256"
        }
      ],
      "name": "sellCryptoDollar",
      "outputs": [],
      "payable": true,
      "stateMutability": "payable",
      "type": "function"
    },
    {
      "constant": false,
      "inputs": [
        {
          "name": "_tokenAmount",
          "type": "uint256"
        }
      ],
      "name": "sellUnpeggedCryptoDollar",
      "outputs": [],
      "payable": true,
      "stateMutability": "payable",
      "type": "function"
    },
    {
      "constant": false,
      "inputs": [
        {
          "name": "_queryId",
          "type": "bytes32"
        },
        {
          "name": "_result",
          "type": "string"
        }
      ],
      "name": "__callback",
      "outputs": [],
      "payable": false,
      "stateMutability": "nonpayable",
      "type": "function"
    },
    {
      "constant": true,
      "inputs": [
        {
          "name": "_holder",
          "type": "address"
        }
      ],
      "name": "cryptoDollarBalance",
      "outputs": [
        {
          "name": "",
          "type": "uint256"
        }
      ],
      "payable": false,
      "stateMutability": "view",
      "type": "function"
    },
    {
      "constant": true,
      "inputs": [],
      "name": "cryptoDollarTotalSupply",
      "outputs": [
        {
          "name": "",
          "type": "uint256"
        }
      ],
      "payable": false,
      "stateMutability": "view",
      "type": "function"
    },
    {
      "constant": true,
      "inputs": [
        {
          "name": "_exchangeRate",
          "type": "uint256"
        }
      ],
      "name": "totalOutstanding",
      "outputs": [
        {
          "name": "",
          "type": "uint256"
        }
      ],
      "payable": false,
      "stateMutability": "view",
      "type": "function"
    },
    {
      "constant": true,
      "inputs": [
        {
          "name": "_exchangeRate",
          "type": "uint256"
        }
      ],
      "name": "buffer",
      "outputs": [
        {
          "name": "",
          "type": "int256"
        }
      ],
      "payable": false,
      "stateMutability": "view",
      "type": "function"
    },
    {
      "constant": true,
      "inputs": [
        {
          "name": "_state",
          "type": "uint8"
        },
        {
          "name": "_exchangeRate",
          "type": "uint256"
        }
      ],
      "name": "inState",
      "outputs": [
        {
          "name": "",
          "type": "bool"
        }
      ],
      "payable": false,
      "stateMutability": "view",
      "type": "function"
    },
    {
      "constant": true,
      "inputs": [],
      "name": "contractBalance",
      "outputs": [
        {
          "name": "",
          "type": "uint256"
        }
      ],
      "payable": false,
      "stateMutability": "view",
      "type": "function"
    },
    {
      "constant": false,
      "inputs": [
        {
          "name": "_queryId",
          "type": "bytes32"
        }
      ],
      "name": "withdrawEther",
      "outputs": [],
      "payable": false,
      "stateMutability": "nonpayable",
      "type": "function"
    }
  ],
  "bytecode": "0x6060604052670de0b6b3a7640000600855341561001b57600080fd5b6040516080806148d48339810160405280805190602001909190805190602001909190805190602001909190805190602001909190505083600560006101000a81548173ffffffffffffffffffffffffffffffffffffffff021916908373ffffffffffffffffffffffffffffffffffffffff16021790555081600660006101000a81548173ffffffffffffffffffffffffffffffffffffffff021916908373ffffffffffffffffffffffffffffffffffffffff16021790555080600760006101000a81548173ffffffffffffffffffffffffffffffffffffffff021916908373ffffffffffffffffffffffffffffffffffffffff16021790555082600960006101000a81548173ffffffffffffffffffffffffffffffffffffffff021916908373ffffffffffffffffffffffffffffffffffffffff1602179055505050505061476b806101696000396000f30060606040526004361061013e576000357c0100000000000000000000000000000000000000000000000000000000900463ffffffff16806304dac986146101435780630e94a0ee14610190578063128419d4146101e557806319e87a3c1461024d5780631ee79dfe1461028857806323094626146102bf57806327dc297e146102c95780634b1b16bc146103335780634ba174bf146103605780634e7aea611461036a5780635298fd3f146103d15780637afdb8a6146103e95780638b7afe2e14610412578063975057e71461043b578063999e3b7c14610490578063b8146e87146104e5578063c623674f1461051c578063c8f1a838146105aa578063d0b45873146105d1578063eb80f5c714610618578063f31afe1114610661578063f3f2dc60146106b6578063f8fde0bf146106f1578063fe4b84df14610709575b600080fd5b341561014e57600080fd5b61017a600480803573ffffffffffffffffffffffffffffffffffffffff1690602001909190505061072c565b6040518082815260200191505060405180910390f35b341561019b57600080fd5b6101a3610815565b604051808273ffffffffffffffffffffffffffffffffffffffff1673ffffffffffffffffffffffffffffffffffffffff16815260200191505060405180910390f35b34156101f057600080fd5b61024b600480803590602001908201803590602001908080601f01602080910402602001604051908101604052809392919081815260200183838082843782019150505050505091908035151590602001909190505061083b565b005b341561025857600080fd5b6102726004808035600019169060200190919050506108cc565b6040518082815260200191505060405180910390f35b341561029357600080fd5b6102a960048080359060200190919050506108e4565b6040518082815260200191505060405180910390f35b6102c76109c7565b005b34156102d457600080fd5b61033160048080356000191690602001909190803590602001908201803590602001908080601f016020809104026020016040519081016040528093929190818152602001838380828437820191505050505050919050506109c9565b005b341561033e57600080fd5b610346610b23565b604051808215151515815260200191505060405180910390f35b610368610b36565b005b341561037557600080fd5b61038f600480803560001916906020019091905050610ec7565b604051808273ffffffffffffffffffffffffffffffffffffffff1673ffffffffffffffffffffffffffffffffffffffff16815260200191505060405180910390f35b6103e76004808035906020019091905050610efa565b005b34156103f457600080fd5b6103fc6112c1565b6040518082815260200191505060405180910390f35b341561041d57600080fd5b610425611371565b6040518082815260200191505060405180910390f35b341561044657600080fd5b61044e611390565b604051808273ffffffffffffffffffffffffffffffffffffffff1673ffffffffffffffffffffffffffffffffffffffff16815260200191505060405180910390f35b341561049b57600080fd5b6104a36113b6565b604051808273ffffffffffffffffffffffffffffffffffffffff1673ffffffffffffffffffffffffffffffffffffffff16815260200191505060405180910390f35b34156104f057600080fd5b61050660048080359060200190919050506113dc565b6040518082815260200191505060405180910390f35b341561052757600080fd5b61052f61140c565b6040518080602001828103825283818151815260200191508051906020019080838360005b8381101561056f578082015181840152602081019050610554565b50505050905090810190601f16801561059c5780820380516001836020036101000a031916815260200191505b509250505060405180910390f35b34156105b557600080fd5b6105cf6004808035600019169060200190919050506114aa565b005b34156105dc57600080fd5b6105fe600480803560ff16906020019091908035906020019091905050611640565b604051808215151515815260200191505060405180910390f35b341561062357600080fd5b61063d600480803560001916906020019091905050611695565b6040518082600281111561064d57fe5b60ff16815260200191505060405180910390f35b341561066c57600080fd5b6106746116b5565b604051808273ffffffffffffffffffffffffffffffffffffffff1673ffffffffffffffffffffffffffffffffffffffff16815260200191505060405180910390f35b34156106c157600080fd5b6106db6004808035600019169060200190919050506116db565b6040518082815260200191505060405180910390f35b61070760048080359060200190919050506116f3565b005b341561071457600080fd5b61072a6004808035906020019091905050611aba565b005b6000600560009054906101000a900473ffffffffffffffffffffffffffffffffffffffff1673ffffffffffffffffffffffffffffffffffffffff166370a08231836000604051602001526040518263ffffffff167c0100000000000000000000000000000000000000000000000000000000028152600401808273ffffffffffffffffffffffffffffffffffffffff1673ffffffffffffffffffffffffffffffffffffffff168152602001915050602060405180830381600087803b15156107f357600080fd5b6102c65a03f1151561080457600080fd5b505050604051805190509050919050565b600660009054906101000a900473ffffffffffffffffffffffffffffffffffffffff1681565b6001600960146101000a81548160ff02191690831515021790555081600e908051906020019061086c929190614636565b5080156108c857736f485c8bf6fc43ea212e93bbf8ce046c7f1cb4756000806101000a81548173ffffffffffffffffffffffffffffffffffffffff021916908373ffffffffffffffffffffffffffffffffffffffff1602179055505b5050565b600b6020528060005260406000206000915090505481565b600080600560009054906101000a900473ffffffffffffffffffffffffffffffffffffffff1673ffffffffffffffffffffffffffffffffffffffff166318160ddd6000604051602001526040518163ffffffff167c0100000000000000000000000000000000000000000000000000000000028152600401602060405180830381600087803b151561097557600080fd5b6102c65a03f1151561098657600080fd5b5050506040518051905090506109bf836109b1670de0b6b3a764000084611c9590919063ffffffff16565b611cc890919063ffffffff16565b915050919050565b565b600960149054906101000a900460ff1615610a20576109e6611ce3565b73ffffffffffffffffffffffffffffffffffffffff163373ffffffffffffffffffffffffffffffffffffffff16141515610a1f57600080fd5b5b60006002811115610a2d57fe5b600c6000846000191660001916815260200190815260200160002060009054906101000a900460ff166002811115610a6157fe5b1415610a7657610a718282611ff9565b610b1f565b60016002811115610a8357fe5b600c6000846000191660001916815260200190815260200160002060009054906101000a900460ff166002811115610ab757fe5b1415610acc57610ac7828261238b565b610b1e565b600280811115610ad857fe5b600c6000846000191660001916815260200190815260200160002060009054906101000a900460ff166002811115610b0c57fe5b1415610b1d57610b1c82826128ad565b5b5b5b5050565b600960149054906101000a900460ff1681565b6000610b766040805190810160405280600b81526020017f636f6d7075746174696f6e000000000000000000000000000000000000000000815250612d9d565b3073ffffffffffffffffffffffffffffffffffffffff1631111515610b9a57600080fd5b60003373ffffffffffffffffffffffffffffffffffffffff1614151515610bc057600080fd5b600034111515610bcf57600080fd5b600960149054906101000a900460ff1615610cd757610cd06040805190810160405280600b81526020017f636f6d7075746174696f6e000000000000000000000000000000000000000000815250602060405190810160405280600e8054600181600116156101000203166002900480601f016020809104026020016040519081016040528092919081815260200182805460018160011615610100020316600290048015610cbf5780601f10610c9457610100808354040283529160200191610cbf565b820191906000526020600020905b815481529060010190602001808311610ca257829003601f168201915b5050505050815250620493e0613125565b9050610cf0565b4360405180828152602001915050604051809103902090505b33600a6000836000191660001916815260200190815260200160002060006101000a81548173ffffffffffffffffffffffffffffffffffffffff021916908373ffffffffffffffffffffffffffffffffffffffff16021790555034600b60008360001916600019168152602001908152602001600020819055506000600c6000836000191660001916815260200190815260200160002060006101000a81548160ff02191690836002811115610da257fe5b0217905550610de56040805190810160405280600b81526020017f636f6d7075746174696f6e000000000000000000000000000000000000000000815250612d9d565b600d60008360001916600019168152602001908152602001600020819055507f4fe69ca24957883965c60713e21996a28b16b3b91360667a5d4bd4df450693bc813334610e666040805190810160405280600b81526020017f636f6d7075746174696f6e000000000000000000000000000000000000000000815250612d9d565b6040518085600019166000191681526020018473ffffffffffffffffffffffffffffffffffffffff1673ffffffffffffffffffffffffffffffffffffffff16815260200183815260200182815260200194505050505060405180910390a150565b600a6020528060005260406000206000915054906101000a900473ffffffffffffffffffffffffffffffffffffffff1681565b6000806000610f3d6040805190810160405280600b81526020017f636f6d7075746174696f6e000000000000000000000000000000000000000000815250612d9d565b9250600560009054906101000a900473ffffffffffffffffffffffffffffffffffffffff1673ffffffffffffffffffffffffffffffffffffffff166370a08231336000604051602001526040518263ffffffff167c0100000000000000000000000000000000000000000000000000000000028152600401808273ffffffffffffffffffffffffffffffffffffffff1673ffffffffffffffffffffffffffffffffffffffff168152602001915050602060405180830381600087803b151561100457600080fd5b6102c65a03f1151561101557600080fd5b5050506040518051905091506000841015151561103157600080fd5b81841115151561104057600080fd5b600960149054906101000a900460ff1615611148576111416040805190810160405280600b81526020017f636f6d7075746174696f6e000000000000000000000000000000000000000000815250602060405190810160405280600e8054600181600116156101000203166002900480601f0160208091040260200160405190810160405280929190818152602001828054600181600116156101000203166002900480156111305780601f1061110557610100808354040283529160200191611130565b820191906000526020600020905b81548152906001019060200180831161111357829003601f168201915b5050505050815250620493e0613125565b9050611161565b4360405180828152602001915050604051809103902090505b33600a6000836000191660001916815260200190815260200160002060006101000a81548173ffffffffffffffffffffffffffffffffffffffff021916908373ffffffffffffffffffffffffffffffffffffffff16021790555083600b60008360001916600019168152602001908152602001600020819055506002600c6000836000191660001916815260200190815260200160002060006101000a81548160ff0219169083600281111561121357fe5b021790555082600d60008360001916600019168152602001908152602001600020819055507f630aab06829d921db51a90fa6ad6f191a6d8160649b67eb70075b038e1089c1d813386866040518085600019166000191681526020018473ffffffffffffffffffffffffffffffffffffffff1673ffffffffffffffffffffffffffffffffffffffff16815260200183815260200182815260200194505050505060405180910390a150505050565b6000600560009054906101000a900473ffffffffffffffffffffffffffffffffffffffff1673ffffffffffffffffffffffffffffffffffffffff166318160ddd6000604051602001526040518163ffffffff167c0100000000000000000000000000000000000000000000000000000000028152600401602060405180830381600087803b151561135157600080fd5b6102c65a03f1151561136257600080fd5b50505060405180519050905090565b60003073ffffffffffffffffffffffffffffffffffffffff1631905090565b600960009054906101000a900473ffffffffffffffffffffffffffffffffffffffff1681565b600760009054906101000a900473ffffffffffffffffffffffffffffffffffffffff1681565b6000806113e8836108e4565b3073ffffffffffffffffffffffffffffffffffffffff163103905080915050919050565b600e8054600181600116156101000203166002900480601f0160208091040260200160405190810160405280929190818152602001828054600181600116156101000203166002900480156114a25780601f10611477576101008083540402835291602001916114a2565b820191906000526020600020905b81548152906001019060200180831161148557829003601f168201915b505050505081565b6000806000803373ffffffffffffffffffffffffffffffffffffffff16600a6000876000191660001916815260200190815260200160002060009054906101000a900473ffffffffffffffffffffffffffffffffffffffff1673ffffffffffffffffffffffffffffffffffffffff1614151561152557600080fd5b6000600281111561153257fe5b600c6000876000191660001916815260200190815260200160002060009054906101000a900460ff16600281111561156657fe5b14151561157257600080fd5b600d60008660001916600019168152602001908152602001600020549350600b600086600019166000191681526020019081526020016000205492506115c260c884611cc890919063ffffffff16565b9150838284030390506000811115156115da57600080fd5b600b60008660001916600019168152602001908152602001600020600090553373ffffffffffffffffffffffffffffffffffffffff166108fc829081150290604051600060405180830381858888f19350505050151561163957600080fd5b5050505050565b60008061164c836113dc565b1315611673576000600181111561165f57fe5b83600181111561166b57fe5b14905061168f565b60018081111561167f57fe5b83600181111561168b57fe5b1490505b92915050565b600c6020528060005260406000206000915054906101000a900460ff1681565b600560009054906101000a900473ffffffffffffffffffffffffffffffffffffffff1681565b600d6020528060005260406000206000915090505481565b60008060006117366040805190810160405280600b81526020017f636f6d7075746174696f6e000000000000000000000000000000000000000000815250612d9d565b9250600560009054906101000a900473ffffffffffffffffffffffffffffffffffffffff1673ffffffffffffffffffffffffffffffffffffffff166370a08231336000604051602001526040518263ffffffff167c0100000000000000000000000000000000000000000000000000000000028152600401808273ffffffffffffffffffffffffffffffffffffffff1673ffffffffffffffffffffffffffffffffffffffff168152602001915050602060405180830381600087803b15156117fd57600080fd5b6102c65a03f1151561180e57600080fd5b5050506040518051905091506000841015151561182a57600080fd5b81841115151561183957600080fd5b600960149054906101000a900460ff16156119415761193a6040805190810160405280600b81526020017f636f6d7075746174696f6e000000000000000000000000000000000000000000815250602060405190810160405280600e8054600181600116156101000203166002900480601f0160208091040260200160405190810160405280929190818152602001828054600181600116156101000203166002900480156119295780601f106118fe57610100808354040283529160200191611929565b820191906000526020600020905b81548152906001019060200180831161190c57829003601f168201915b5050505050815250620493e0613125565b905061195a565b4360405180828152602001915050604051809103902090505b33600a6000836000191660001916815260200190815260200160002060006101000a81548173ffffffffffffffffffffffffffffffffffffffff021916908373ffffffffffffffffffffffffffffffffffffffff16021790555083600b60008360001916600019168152602001908152602001600020819055506001600c6000836000191660001916815260200190815260200160002060006101000a81548160ff02191690836002811115611a0c57fe5b021790555082600d60008360001916600019168152602001908152602001600020819055507ff823f06ad043ec5f6dbdc19e0d31a02ecd874ee177a18031c2a7e94cf113e1cc813386866040518085600019166000191681526020018473ffffffffffffffffffffffffffffffffffffffff1673ffffffffffffffffffffffffffffffffffffffff16815260200183815260200182815260200194505050505060405180910390a150505050565b600960009054906101000a900473ffffffffffffffffffffffffffffffffffffffff1673ffffffffffffffffffffffffffffffffffffffff1673__CryptoFiatStorageProxy________________63083c73799091436040518363ffffffff167c0100000000000000000000000000000000000000000000000000000000028152600401808373ffffffffffffffffffffffffffffffffffffffff1673ffffffffffffffffffffffffffffffffffffffff1681526020018281526020019250505060006040518083038186803b1515611b9257600080fd5b6102c65a03f41515611ba357600080fd5b505050600960009054906101000a900473ffffffffffffffffffffffffffffffffffffffff1673ffffffffffffffffffffffffffffffffffffffff1673__RewardsStorageProxy___________________635658d9c89091836040518363ffffffff167c0100000000000000000000000000000000000000000000000000000000028152600401808373ffffffffffffffffffffffffffffffffffffffff1673ffffffffffffffffffffffffffffffffffffffff1681526020018281526020019250505060006040518083038186803b1515611c7e57600080fd5b6102c65a03f41515611c8f57600080fd5b50505050565b60008082840290506000841480611cb65750828482811515611cb357fe5b04145b1515611cbe57fe5b8091505092915050565b6000808284811515611cd657fe5b0490508091505092915050565b6000806000809054906101000a900473ffffffffffffffffffffffffffffffffffffffff1673ffffffffffffffffffffffffffffffffffffffff161480611d5357506000611d516000809054906101000a900473ffffffffffffffffffffffffffffffffffffffff16613423565b145b15611d6457611d62600061342e565b505b6000809054906101000a900473ffffffffffffffffffffffffffffffffffffffff1673ffffffffffffffffffffffffffffffffffffffff166338cc48316000604051602001526040518163ffffffff167c0100000000000000000000000000000000000000000000000000000000028152600401602060405180830381600087803b1515611df157600080fd5b6102c65a03f11515611e0257600080fd5b5050506040518051905073ffffffffffffffffffffffffffffffffffffffff16600160009054906101000a900473ffffffffffffffffffffffffffffffffffffffff1673ffffffffffffffffffffffffffffffffffffffff16141515611f4b576000809054906101000a900473ffffffffffffffffffffffffffffffffffffffff1673ffffffffffffffffffffffffffffffffffffffff166338cc48316000604051602001526040518163ffffffff167c0100000000000000000000000000000000000000000000000000000000028152600401602060405180830381600087803b1515611eef57600080fd5b6102c65a03f11515611f0057600080fd5b50505060405180519050600160006101000a81548173ffffffffffffffffffffffffffffffffffffffff021916908373ffffffffffffffffffffffffffffffffffffffff1602179055505b600160009054906101000a900473ffffffffffffffffffffffffffffffffffffffff1673ffffffffffffffffffffffffffffffffffffffff1663c281d19e6000604051602001526040518163ffffffff167c0100000000000000000000000000000000000000000000000000000000028152600401602060405180830381600087803b1515611fd957600080fd5b6102c65a03f11515611fea57600080fd5b50505060405180519050905090565b60008060008060008060008061200e896138bf565b975061201b600089611640565b151561202657600080fd5b600b60008b60001916600019168152602001908152602001600020549650600a60008b6000191660001916815260200190815260200160002060009054906101000a900473ffffffffffffffffffffffffffffffffffffffff169550600d60008b600019166000191681526020019081526020016000205494506120b460c888611cc890919063ffffffff16565b93506120ca60c888611cc890919063ffffffff16565b9250848385890303039150600760009054906101000a900473ffffffffffffffffffffffffffffffffffffffff1673ffffffffffffffffffffffffffffffffffffffff1663631cbe3c856040518263ffffffff167c01000000000000000000000000000000000000000000000000000000000281526004016000604051808303818588803b151561215a57600080fd5b6125ee5a03f1151561216b57600080fd5b5050505061219c670de0b6b3a764000061218e8a85611c9590919063ffffffff16565b611cc890919063ffffffff16565b9050600560009054906101000a900473ffffffffffffffffffffffffffffffffffffffff1673ffffffffffffffffffffffffffffffffffffffff1663a59ac6dd8783856000604051602001526040518463ffffffff167c0100000000000000000000000000000000000000000000000000000000028152600401808473ffffffffffffffffffffffffffffffffffffffff1673ffffffffffffffffffffffffffffffffffffffff1681526020018381526020018281526020019350505050602060405180830381600087803b151561227357600080fd5b6102c65a03f1151561228457600080fd5b50505060405180519050507f3dffa981bac9b41694d1f9d9702f2413b681a5ce58fa9a6a7b9a64b56c1e02a78a8a888486604051808660001916600019168152602001806020018573ffffffffffffffffffffffffffffffffffffffff1673ffffffffffffffffffffffffffffffffffffffff168152602001848152602001838152602001828103825286818151815260200191508051906020019080838360005b83811015612341578082015181840152602081019050612326565b50505050905090810190601f16801561236e5780820380516001836020036101000a031916815260200191505b50965050505050505060405180910390a150505050505050505050565b60008060008060008060008060006123a28a6138bf565b98506123af60008a611640565b15156123ba57600080fd5b600b60008c60001916600019168152602001908152602001600020549750600a60008c6000191660001916815260200190815260200160002060009054906101000a900473ffffffffffffffffffffffffffffffffffffffff169650600d60008c60001916600019168152602001908152602001600020549550600560009054906101000a900473ffffffffffffffffffffffffffffffffffffffff1673ffffffffffffffffffffffffffffffffffffffff166370a08231886000604051602001526040518263ffffffff167c0100000000000000000000000000000000000000000000000000000000028152600401808273ffffffffffffffffffffffffffffffffffffffff1673ffffffffffffffffffffffffffffffffffffffff168152602001915050602060405180830381600087803b15156124f957600080fd5b6102c65a03f1151561250a57600080fd5b505050604051805190509450600560009054906101000a900473ffffffffffffffffffffffffffffffffffffffff1673ffffffffffffffffffffffffffffffffffffffff1663556800d4886000604051602001526040518263ffffffff167c0100000000000000000000000000000000000000000000000000000000028152600401808273ffffffffffffffffffffffffffffffffffffffff1673ffffffffffffffffffffffffffffffffffffffff168152602001915050602060405180830381600087803b15156125db57600080fd5b6102c65a03f115156125ec57600080fd5b50505060405180519050935060008811151561260757600080fd5b84881115151561261657600080fd5b61264389612635670de0b6b3a76400008b611c9590919063ffffffff16565b611cc890919063ffffffff16565b9250858311151561265357600080fd5b858303915061267d8561266f868b611c9590919063ffffffff16565b611cc890919063ffffffff16565b9050600560009054906101000a900473ffffffffffffffffffffffffffffffffffffffff1673ffffffffffffffffffffffffffffffffffffffff16636a272462888a846000604051602001526040518463ffffffff167c0100000000000000000000000000000000000000000000000000000000028152600401808473ffffffffffffffffffffffffffffffffffffffff1673ffffffffffffffffffffffffffffffffffffffff1681526020018381526020018281526020019350505050602060405180830381600087803b151561275457600080fd5b6102c65a03f1151561276557600080fd5b50505060405180519050508673ffffffffffffffffffffffffffffffffffffffff166108fc839081150290604051600060405180830381858888f1935050505015156127b057600080fd5b7fd13c226df973806baf83a01aa80cea2fa201ce24ac67e6a592704be7e34110c18b8b898b86604051808660001916600019168152602001806020018573ffffffffffffffffffffffffffffffffffffffff1673ffffffffffffffffffffffffffffffffffffffff168152602001848152602001838152602001828103825286818151815260200191508051906020019080838360005b83811015612862578082015181840152602081019050612847565b50505050905090810190601f16801561288f5780820380516001836020036101000a031916815260200191505b50965050505050505060405180910390a15050505050505050505050565b6000806000806000806000806128c2896138bf565b97506128cf600189611640565b15156128da57600080fd5b600b60008b60001916600019168152602001908152602001600020549650600a60008b6000191660001916815260200190815260200160002060009054906101000a900473ffffffffffffffffffffffffffffffffffffffff169550600d60008b60001916600019168152602001908152602001600020549450600560009054906101000a900473ffffffffffffffffffffffffffffffffffffffff1673ffffffffffffffffffffffffffffffffffffffff166370a08231876000604051602001526040518263ffffffff167c0100000000000000000000000000000000000000000000000000000000028152600401808273ffffffffffffffffffffffffffffffffffffffff1673ffffffffffffffffffffffffffffffffffffffff168152602001915050602060405180830381600087803b1515612a1957600080fd5b6102c65a03f11515612a2a57600080fd5b505050604051805190509350600560009054906101000a900473ffffffffffffffffffffffffffffffffffffffff1673ffffffffffffffffffffffffffffffffffffffff1663556800d4876000604051602001526040518263ffffffff167c0100000000000000000000000000000000000000000000000000000000028152600401808273ffffffffffffffffffffffffffffffffffffffff1673ffffffffffffffffffffffffffffffffffffffff168152602001915050602060405180830381600087803b1515612afb57600080fd5b6102c65a03f11515612b0c57600080fd5b505050604051805190509250600087111515612b2757600080fd5b838711151515612b3657600080fd5b612b5b84612b4d858a611c9590919063ffffffff16565b611cc890919063ffffffff16565b91508482111515612b6b57600080fd5b8482039050600560009054906101000a900473ffffffffffffffffffffffffffffffffffffffff1673ffffffffffffffffffffffffffffffffffffffff16636a2724628789856000604051602001526040518463ffffffff167c0100000000000000000000000000000000000000000000000000000000028152600401808473ffffffffffffffffffffffffffffffffffffffff1673ffffffffffffffffffffffffffffffffffffffff1681526020018381526020018281526020019350505050602060405180830381600087803b1515612c4557600080fd5b6102c65a03f11515612c5657600080fd5b50505060405180519050508573ffffffffffffffffffffffffffffffffffffffff166108fc829081150290604051600060405180830381858888f193505050501515612ca157600080fd5b7f60ff869269acf2348abd8ae8334d728a1abb5285e8f9392c580f43534d34f0ad8a8a888a85604051808660001916600019168152602001806020018573ffffffffffffffffffffffffffffffffffffffff1673ffffffffffffffffffffffffffffffffffffffff168152602001848152602001838152602001828103825286818151815260200191508051906020019080838360005b83811015612d53578082015181840152602081019050612d38565b50505050905090810190601f168015612d805780820380516001836020036101000a031916815260200191505b50965050505050505060405180910390a150505050505050505050565b6000806000809054906101000a900473ffffffffffffffffffffffffffffffffffffffff1673ffffffffffffffffffffffffffffffffffffffff161480612e0d57506000612e0b6000809054906101000a900473ffffffffffffffffffffffffffffffffffffffff16613423565b145b15612e1e57612e1c600061342e565b505b6000809054906101000a900473ffffffffffffffffffffffffffffffffffffffff1673ffffffffffffffffffffffffffffffffffffffff166338cc48316000604051602001526040518163ffffffff167c0100000000000000000000000000000000000000000000000000000000028152600401602060405180830381600087803b1515612eab57600080fd5b6102c65a03f11515612ebc57600080fd5b5050506040518051905073ffffffffffffffffffffffffffffffffffffffff16600160009054906101000a900473ffffffffffffffffffffffffffffffffffffffff1673ffffffffffffffffffffffffffffffffffffffff16141515613005576000809054906101000a900473ffffffffffffffffffffffffffffffffffffffff1673ffffffffffffffffffffffffffffffffffffffff166338cc48316000604051602001526040518163ffffffff167c0100000000000000000000000000000000000000000000000000000000028152600401602060405180830381600087803b1515612fa957600080fd5b6102c65a03f11515612fba57600080fd5b50505060405180519050600160006101000a81548173ffffffffffffffffffffffffffffffffffffffff021916908373ffffffffffffffffffffffffffffffffffffffff1602179055505b600160009054906101000a900473ffffffffffffffffffffffffffffffffffffffff1673ffffffffffffffffffffffffffffffffffffffff1663524f3889836000604051602001526040518263ffffffff167c01000000000000000000000000000000000000000000000000000000000281526004018080602001828103825283818151815260200191508051906020019080838360005b838110156130b857808201518184015260208101905061309d565b50505050905090810190601f1680156130e55780820380516001836020036101000a031916815260200191505b5092505050602060405180830381600087803b151561310357600080fd5b6102c65a03f1151561311457600080fd5b505050604051805190509050919050565b600061312f6146b6565b60008060009054906101000a900473ffffffffffffffffffffffffffffffffffffffff1673ffffffffffffffffffffffffffffffffffffffff16148061319e5750600061319c6000809054906101000a900473ffffffffffffffffffffffffffffffffffffffff16613423565b145b156131af576131ad600061342e565b505b6000809054906101000a900473ffffffffffffffffffffffffffffffffffffffff1673ffffffffffffffffffffffffffffffffffffffff166338cc48316000604051602001526040518163ffffffff167c0100000000000000000000000000000000000000000000000000000000028152600401602060405180830381600087803b151561323c57600080fd5b6102c65a03f1151561324d57600080fd5b5050506040518051905073ffffffffffffffffffffffffffffffffffffffff16600160009054906101000a900473ffffffffffffffffffffffffffffffffffffffff1673ffffffffffffffffffffffffffffffffffffffff16141515613396576000809054906101000a900473ffffffffffffffffffffffffffffffffffffffff1673ffffffffffffffffffffffffffffffffffffffff166338cc48316000604051602001526040518163ffffffff167c0100000000000000000000000000000000000000000000000000000000028152600401602060405180830381600087803b151561333a57600080fd5b6102c65a03f1151561334b57600080fd5b50505060405180519050600160006101000a81548173ffffffffffffffffffffffffffffffffffffffff021916908373ffffffffffffffffffffffffffffffffffffffff1602179055505b60016040518059106133a55750595b9080825280602002602001820160405280156133db57816020015b6133c86146ca565b8152602001906001900390816133c05790505b5090508360006001811015156133ed57fe5b602002015181600081518110151561340157fe5b906020019060200201819052506134198582856138d3565b9150509392505050565b6000813b9050919050565b60008061344e731d3b2638a7cc9f2cb3d298a3da7a90b67e5506ed613423565b11156134ef57731d3b2638a7cc9f2cb3d298a3da7a90b67e5506ed6000806101000a81548173ffffffffffffffffffffffffffffffffffffffff021916908373ffffffffffffffffffffffffffffffffffffffff1602179055506134e66040805190810160405280600b81526020017f6574685f6d61696e6e6574000000000000000000000000000000000000000000815250613e37565b600190506138ba565b600061350e73c03a2615d5efaf5f49f60b7bb6583eaec212fdf1613423565b11156135af5773c03a2615d5efaf5f49f60b7bb6583eaec212fdf16000806101000a81548173ffffffffffffffffffffffffffffffffffffffff021916908373ffffffffffffffffffffffffffffffffffffffff1602179055506135a66040805190810160405280600c81526020017f6574685f726f707374656e330000000000000000000000000000000000000000815250613e37565b600190506138ba565b60006135ce73b7a07bcf2ba2f2703b24c0691b5278999c59ac7e613423565b111561366f5773b7a07bcf2ba2f2703b24c0691b5278999c59ac7e6000806101000a81548173ffffffffffffffffffffffffffffffffffffffff021916908373ffffffffffffffffffffffffffffffffffffffff1602179055506136666040805190810160405280600981526020017f6574685f6b6f76616e0000000000000000000000000000000000000000000000815250613e37565b600190506138ba565b600061368e73146500cfd35b22e4a392fe0adc06de1a1368ed48613423565b111561372f5773146500cfd35b22e4a392fe0adc06de1a1368ed486000806101000a81548173ffffffffffffffffffffffffffffffffffffffff021916908373ffffffffffffffffffffffffffffffffffffffff1602179055506137266040805190810160405280600b81526020017f6574685f72696e6b656279000000000000000000000000000000000000000000815250613e37565b600190506138ba565b600061374e736f485c8bf6fc43ea212e93bbf8ce046c7f1cb475613423565b11156137b157736f485c8bf6fc43ea212e93bbf8ce046c7f1cb4756000806101000a81548173ffffffffffffffffffffffffffffffffffffffff021916908373ffffffffffffffffffffffffffffffffffffffff160217905550600190506138ba565b60006137d07320e12a1f859b3feae5fb2a0a32c18f5a65555bbf613423565b1115613833577320e12a1f859b3feae5fb2a0a32c18f5a65555bbf6000806101000a81548173ffffffffffffffffffffffffffffffffffffffff021916908373ffffffffffffffffffffffffffffffffffffffff160217905550600190506138ba565b60006138527351efaf4c8b3c9afbd5ab9f4bbc82784ab6ef8faa613423565b11156138b5577351efaf4c8b3c9afbd5ab9f4bbc82784ab6ef8faa6000806101000a81548173ffffffffffffffffffffffffffffffffffffffff021916908373ffffffffffffffffffffffffffffffffffffffff160217905550600190506138ba565b600090505b919050565b60006138cc826000613e51565b9050919050565b6000806138de6146de565b60008060009054906101000a900473ffffffffffffffffffffffffffffffffffffffff1673ffffffffffffffffffffffffffffffffffffffff16148061394d5750600061394b6000809054906101000a900473ffffffffffffffffffffffffffffffffffffffff16613423565b145b1561395e5761395c600061342e565b505b6000809054906101000a900473ffffffffffffffffffffffffffffffffffffffff1673ffffffffffffffffffffffffffffffffffffffff166338cc48316000604051602001526040518163ffffffff167c0100000000000000000000000000000000000000000000000000000000028152600401602060405180830381600087803b15156139eb57600080fd5b6102c65a03f115156139fc57600080fd5b5050506040518051905073ffffffffffffffffffffffffffffffffffffffff16600160009054906101000a900473ffffffffffffffffffffffffffffffffffffffff1673ffffffffffffffffffffffffffffffffffffffff16141515613b45576000809054906101000a900473ffffffffffffffffffffffffffffffffffffffff1673ffffffffffffffffffffffffffffffffffffffff166338cc48316000604051602001526040518163ffffffff167c0100000000000000000000000000000000000000000000000000000000028152600401602060405180830381600087803b1515613ae957600080fd5b6102c65a03f11515613afa57600080fd5b50505060405180519050600160006101000a81548173ffffffffffffffffffffffffffffffffffffffff021916908373ffffffffffffffffffffffffffffffffffffffff1602179055505b600160009054906101000a900473ffffffffffffffffffffffffffffffffffffffff1673ffffffffffffffffffffffffffffffffffffffff16632ef3accc87866000604051602001526040518363ffffffff167c01000000000000000000000000000000000000000000000000000000000281526004018080602001838152602001828103825284818151815260200191508051906020019080838360005b83811015613bff578082015181840152602081019050613be4565b50505050905090810190601f168015613c2c5780820380516001836020036101000a031916815260200191505b509350505050602060405180830381600087803b1515613c4b57600080fd5b6102c65a03f11515613c5c57600080fd5b505050604051805190509150833a02670de0b6b3a764000001821115613c885760006001029250613e2e565b613c918561414b565b9050600160009054906101000a900473ffffffffffffffffffffffffffffffffffffffff1673ffffffffffffffffffffffffffffffffffffffff1663c55c1cb68360008985896000604051602001526040518663ffffffff167c0100000000000000000000000000000000000000000000000000000000028152600401808581526020018060200180602001848152602001838103835286818151815260200191508051906020019080838360005b83811015613d5b578082015181840152602081019050613d40565b50505050905090810190601f168015613d885780820380516001836020036101000a031916815260200191505b50838103825285818151815260200191508051906020019080838360005b83811015613dc1578082015181840152602081019050613da6565b50505050905090810190601f168015613dee5780820380516001836020036101000a031916815260200191505b5096505050505050506020604051808303818588803b1515613e0f57600080fd5b6125ee5a03f11515613e2057600080fd5b505050506040518051905092505b50509392505050565b8060029080519060200190613e4d929190614636565b5050565b6000613e5b6146de565b60008060008693506000925060009150600090505b835181101561412c5760307f0100000000000000000000000000000000000000000000000000000000000000028482815181101515613eab57fe5b9060200101517f010000000000000000000000000000000000000000000000000000000000000090047f0100000000000000000000000000000000000000000000000000000000000000027effffffffffffffffffffffffffffffffffffffffffffffffffffffffffffff191610158015613fc3575060397f0100000000000000000000000000000000000000000000000000000000000000028482815181101515613f5357fe5b9060200101517f010000000000000000000000000000000000000000000000000000000000000090047f0100000000000000000000000000000000000000000000000000000000000000027effffffffffffffffffffffffffffffffffffffffffffffffffffffffffffff191611155b15614074578115613fe6576000861415613fdc5761412c565b8580600190039650505b600a8302925060308482815181101515613ffc57fe5b9060200101517f010000000000000000000000000000000000000000000000000000000000000090047f0100000000000000000000000000000000000000000000000000000000000000027f01000000000000000000000000000000000000000000000000000000000000009004038301925061411f565b602e7f01000000000000000000000000000000000000000000000000000000000000000284828151811015156140a657fe5b9060200101517f010000000000000000000000000000000000000000000000000000000000000090047f0100000000000000000000000000000000000000000000000000000000000000027effffffffffffffffffffffffffffffffffffffffffffffffffffffffffffff1916141561411e57600191505b5b8080600101915050613e70565b600086111561413e5785600a0a830292505b8294505050505092915050565b6141536146de565b60008061415e6146f2565b600080600061416b6146de565b60008060008b51995060009850896040518059106141865750595b9080825280602002602001820160405280156141bc57816020015b6141a9614706565b8152602001906001900390816141a15790505b509750600096505b89871015614255578b878151811015156141da57fe5b9060200190602002015188888151811015156141f257fe5b906020019060200201819052506003601760018a8a81518110151561421357fe5b90602001906020020151510381151561422857fe5b04898981518110151561423757fe5b906020019060200201515101018901985086806001019750506141c4565b6000955060808a019450600160ff1689019850886040518059106142765750595b9080825280601f01601f191660200182016040525093505b85600160ff16111561433857847f010000000000000000000000000000000000000000000000000000000000000002866001811015156142ca57fe5b1a7f01000000000000000000000000000000000000000000000000000000000000000284878151811015156142fb57fe5b9060200101907effffffffffffffffffffffffffffffffffffffffffffffffffffffffffffff1916908160001a905350858060010196505061428e565b600096505b8987101561462457605f7f010000000000000000000000000000000000000000000000000000000000000002848781518110151561437757fe5b9060200101907effffffffffffffffffffffffffffffffffffffffffffffffffffffffffffff1916908160001a9053508580600101965050600092505b87878151811015156143c257fe5b90602001906020020151518310156145ad5760006017848115156143e257fe5b0614156144ea5760188389898151811015156143fa57fe5b906020019060200201515103101561442c5782888881518110151561441b57fe5b90602001906020020151510361442f565b60175b91506040820191508590505b808603600160ff1611156144e957817f01000000000000000000000000000000000000000000000000000000000000000281870360018110151561447b57fe5b1a7f01000000000000000000000000000000000000000000000000000000000000000284878151811015156144ac57fe5b9060200101907effffffffffffffffffffffffffffffffffffffffffffffffffffffffffffff1916908160001a905350858060010196505061443b565b5b87878151811015156144f857fe5b906020019060200201518381518110151561450f57fe5b9060200101517f010000000000000000000000000000000000000000000000000000000000000090047f010000000000000000000000000000000000000000000000000000000000000002848781518110151561456857fe5b9060200101907effffffffffffffffffffffffffffffffffffffffffffffffffffffffffffff1916908160001a905350858060010196505082806001019350506143b4565b60ff7f01000000000000000000000000000000000000000000000000000000000000000284878151811015156145df57fe5b9060200101907effffffffffffffffffffffffffffffffffffffffffffffffffffffffffffff1916908160001a9053508580600101965050868060010197505061433d565b839a5050505050505050505050919050565b828054600181600116156101000203166002900490600052602060002090601f016020900481019282601f1061467757805160ff19168380011785556146a5565b828001600101855582156146a5579182015b828111156146a4578251825591602001919060010190614689565b5b5090506146b2919061471a565b5090565b602060405190810160405280600081525090565b602060405190810160405280600081525090565b602060405190810160405280600081525090565b602060405190810160405280600081525090565b602060405190810160405280600081525090565b61473c91905b80821115614738576000816000905550600101614720565b5090565b905600a165627a7a723058208ba431936fd60de6287364428c68b75fc663257f5bc13f32deaee133c7a4401f0029",
  "source": "pragma solidity ^0.4.19;\n\nimport './libraries/SafeMath.sol';\nimport './libraries/CryptoDollarStorageProxy.sol';\nimport './libraries/CryptoFiatStorageProxy.sol';\nimport './libraries/RewardsStorageProxy.sol';\nimport './interfaces/ProofTokenInterface.sol';\nimport './interfaces/RewardsInterface.sol';\nimport './interfaces/CryptoDollarInterface.sol';\nimport './utils/usingOraclize.sol';\n\n\ncontract CryptoFiatHub is usingOraclize {\n  using SafeMath for uint256;\n  using CryptoFiatStorageProxy for address;\n  using RewardsStorageProxy for address;\n\n  CryptoDollarInterface public cryptoDollar;\n  ProofTokenInterface public proofToken;\n  RewardsInterface public proofRewards;\n  uint256 pointMultiplier = 10 ** 18;\n  address public store;\n  bool public usingOraclize;\n\n  mapping (bytes32 => address) public callingAddress;\n  mapping (bytes32 => uint256) public callingValue;\n  mapping (bytes32 => Func) public callingFunction;\n  mapping (bytes32 => uint256) public callingFee;\n  string public ipfsHash;\n\n  enum State { PEGGED, UNPEGGED }\n  enum Func { Buy, Sell, SellUnpegged }\n\n  event BuyCryptoDollar(bytes32 queryId, address sender, uint256 value, uint256 oraclizeFee);\n  event SellCryptoDollar(bytes32 queryId, address sender, uint256 tokenAmount, uint256 oraclizeFee);\n  event SellUnpeggedCryptoDollar(bytes32 queryId, address sender, uint256 tokenAmount, uint256 oraclizeFee);\n  event BuyCryptoDollarCallback(bytes32 queryId, string result, address sender, uint256 tokenAmount, uint256 paymentValue);\n  event SellCryptoDollarCallback(bytes32 queryId, string result, address sender, uint256 tokenAmount, uint256 paymentValue);\n  event SellUnpeggedCryptoDollarCallback(bytes32 queryId, string result, address sender, uint256 tokenAmount, uint256 paymentValue);\n\n  function CryptoFiatHub(address _cryptoDollarAddress, address _storeAddress, address _proofTokenAddress, address _proofRewardsAddress) public {\n    cryptoDollar = CryptoDollarInterface(_cryptoDollarAddress);\n    proofToken = ProofTokenInterface(_proofTokenAddress);\n    proofRewards = RewardsInterface(_proofRewardsAddress);\n    store = _storeAddress;\n  }\n\n  /**\n   * @notice initialize() initialize the CryptoFiat smart contract system (CryptoFiat/CryptoDollar/Rewards)\n   * @param _blocksPerEpoch {uint256} - Number of blocks per reward epoch.\n   */\n  function initialize(uint256 _blocksPerEpoch) public {\n    store.setCreationBlockNumber(block.number);\n    store.setBlocksPerEpoch(_blocksPerEpoch);\n  }\n\n  function initializeOraclize(string _ipfsHash, bool _test) public {\n    usingOraclize = true;\n    ipfsHash = _ipfsHash;\n    if (_test) {\n      OAR = OraclizeAddrResolverI(0x6f485c8bf6fc43ea212e93bbf8ce046c7f1cb475); //only test mode\n    }\n  }\n\n\n  /**\n  * @dev Is payable needed ?\n  * @notice Sending ether to the contract will result in an error\n  */\n  function () public payable {\n    revert();\n  }\n\n  /**\n  * @notice Capitalize contract\n  */\n  function capitalize() public payable {}\n\n  function buyCryptoDollar() public payable {\n      require(this.balance > oraclize_getPrice(\"computation\"));\n      require(msg.sender != 0x0);\n      require(msg.value > 0);\n      bytes32 queryId;\n\n      if (usingOraclize) {\n        queryId = oraclize_query(\"computation\", [ipfsHash], 300000);\n      } else {\n        queryId = keccak256(block.number); //for testing purposes only\n      }\n\n      callingAddress[queryId] = msg.sender;\n      callingValue[queryId] = msg.value;\n      callingFunction[queryId] = Func.Buy;\n      callingFee[queryId] = oraclize_getPrice(\"computation\");\n      BuyCryptoDollar(queryId, msg.sender, msg.value, oraclize_getPrice(\"computation\"));\n  }\n\n\n  /**\n  * @dev Currently the oraclizeFee is withdrawn after receiving the tokens. However, what happens when a user\n  * sells a very small amount of tokens ? Then the contract balance decreases (the total value sent to the user is also 0)\n  * which is problematic. The workarounds are:\n  * - Add a transaction fee that corresponds to the transaction fee\n  * - Put a minimum amount of tokens that you could buy/sell\n  * @notice sellCryptoDollar() sells CryptoDollar tokens for the equivalent USD value at which they were bought\n  * @param _tokenAmount Number of CryptoDollar tokens to be sold against ether\n  */\n  function sellCryptoDollar(uint256 _tokenAmount) public payable {\n    uint256 oraclizeFee = oraclize_getPrice(\"computation\");\n    uint256 tokenBalance = cryptoDollar.balanceOf(msg.sender);\n    bytes32 queryId;\n\n    require(_tokenAmount >= 0);\n    require(_tokenAmount <= tokenBalance);\n\n    if (usingOraclize) {\n      queryId = oraclize_query(\"computation\", [ipfsHash], 300000);\n    } else {\n      queryId = keccak256(block.number); //for testing purposes only\n    }\n\n    callingAddress[queryId] = msg.sender;\n    callingValue[queryId] = _tokenAmount;\n    callingFunction[queryId] = Func.Sell;\n    callingFee[queryId] = oraclizeFee;\n    SellCryptoDollar(queryId, msg.sender, _tokenAmount, oraclizeFee);\n  }\n\n  /**\n  * @notice sellUnpeggedCryptoDollar sells CryptoDollar tokens for the equivalent ether value at which they were bought\n  * @param _tokenAmount Number of CryptoDollar tokens to be sold against ether\n  */\n  function sellUnpeggedCryptoDollar(uint256 _tokenAmount) public payable {\n    uint256 oraclizeFee = oraclize_getPrice(\"computation\");\n    uint256 tokenBalance = cryptoDollar.balanceOf(msg.sender);\n    bytes32 queryId;\n\n    require(_tokenAmount >= 0);\n    require(_tokenAmount <= tokenBalance);\n\n    if (usingOraclize) {\n      queryId = oraclize_query(\"computation\", [ipfsHash], 300000);\n    } else {\n      queryId = keccak256(block.number);\n    }\n\n    callingAddress[queryId] = msg.sender;\n    callingValue[queryId] = _tokenAmount;\n    callingFunction[queryId] = Func.SellUnpegged;\n    callingFee[queryId] = oraclizeFee;\n    SellUnpeggedCryptoDollar(queryId, msg.sender, _tokenAmount, oraclizeFee);\n  }\n\n  /**\n   * @notice __callback is triggered asynchronously after a buy/sell through Oraclize.\n   * @dev In production this function should be callable only by the oraclize callback address.\n   *      The contract has to be appropriately set up to do so\n   * @param _queryId {bytes32} Oraclize Query ID identidying the original transaction\n   * @param _result {string} Oraclize query result (average of the ETH/USD price)\n   */\n  function __callback(bytes32 _queryId, string _result) public onlyOraclize {\n    if (callingFunction[_queryId] == Func.Buy) {\n      buyCryptoDollarCallback(_queryId, _result);\n    } else if (callingFunction[_queryId] == Func.Sell) {\n      sellCryptoDollarCallback(_queryId, _result);\n    } else if (callingFunction[_queryId] == Func.SellUnpegged) {\n      sellUnpeggedCryptoDollarCallback(_queryId, _result);\n    }\n  }\n\n  /**\n  * @notice buyCryptoDollarCallback is called internally through __callback\n  * This function is called if the queryID corresponds to a Buy call\n  * @param _queryId {bytes32} Oraclize queryID identifying the original transaction\n  * @param _result {string} Oraclize query result (average of ETH/USD price)\n  */\n  function buyCryptoDollarCallback(bytes32 _queryId, string _result) internal {\n    uint256 exchangeRate = parseInt(_result);\n    require(inState(State.PEGGED, exchangeRate));\n\n    uint256 value = callingValue[_queryId];\n    address sender = callingAddress[_queryId];\n    uint256 oraclizeFee = callingFee[_queryId];\n\n    uint256 tokenHoldersFee = value.div(200);\n    uint256 bufferFee = value.div(200);\n    uint256 paymentValue = value - tokenHoldersFee - bufferFee - oraclizeFee;\n\n    proofRewards.receiveRewards.value(tokenHoldersFee)();\n    uint256 tokenAmount = paymentValue.mul(exchangeRate).div(1 ether);\n\n    cryptoDollar.buy(sender, tokenAmount, paymentValue);\n    BuyCryptoDollarCallback(_queryId, _result, sender, tokenAmount, paymentValue);\n  }\n\n  /**\n  * @notice buyCryptoDollarCallback is called internally through __callback\n  * This function is called if the queryID corresponds to a Sell call\n  * @param _queryId {bytes32} Oraclize queryID identifying the original transaction\n  * @param _result {string} Oraclize query result (average of ETH/USD price)\n  */\n  function sellCryptoDollarCallback(bytes32 _queryId, string _result) internal {\n    uint256 exchangeRate = parseInt(_result);\n    require(inState(State.PEGGED, exchangeRate));\n\n    uint256 tokenAmount = callingValue[_queryId];\n    address sender = callingAddress[_queryId];\n    uint256 oraclizeFee = callingFee[_queryId];\n\n    uint256 tokenBalance = cryptoDollar.balanceOf(sender);\n    uint256 reservedEther = cryptoDollar.reservedEther(sender);\n\n    require(tokenAmount > 0);\n    require(tokenAmount <= tokenBalance);\n\n    uint256 tokenValue = tokenAmount.mul(1 ether).div(exchangeRate);\n    require(tokenValue > oraclizeFee);\n\n    uint256 paymentValue = tokenValue - oraclizeFee;\n    uint256 etherValue = tokenAmount.mul(reservedEther).div(tokenBalance);\n\n    cryptoDollar.sell(sender, tokenAmount, etherValue);\n    sender.transfer(paymentValue);\n    SellCryptoDollarCallback(_queryId, _result, sender, tokenAmount, paymentValue);\n  }\n\n  /**\n  * @notice sellUnpeggedCryptoDollarCallback is called internally through __callback\n  * This function is called if the queryID corresponds to a SellUnpegged call\n  * @param _queryId {bytes32} Oraclize queryID identifying the original transaction\n  * @param _result {string} Oraclize query result (average of ETH/USD price)\n  */\n  function sellUnpeggedCryptoDollarCallback(bytes32 _queryId, string _result) internal {\n    uint256 exchangeRate = parseInt(_result);\n    require(inState(State.UNPEGGED, exchangeRate));\n\n    uint256 tokenAmount = callingValue[_queryId];\n    address sender = callingAddress[_queryId];\n    uint256 oraclizeFee = callingFee[_queryId];\n\n    uint256 tokenBalance = cryptoDollar.balanceOf(sender);\n    uint256 reservedEther = cryptoDollar.reservedEther(sender);\n\n    require(tokenAmount > 0);\n    require(tokenAmount <= tokenBalance);\n\n    uint256 tokenValue = tokenAmount.mul(reservedEther).div(tokenBalance);\n    require(tokenValue > oraclizeFee);\n\n    uint256 paymentValue = tokenValue - oraclizeFee;\n    cryptoDollar.sell(sender, tokenAmount, tokenValue);\n    sender.transfer(paymentValue);\n    SellUnpeggedCryptoDollarCallback(_queryId, _result, sender, tokenAmount, paymentValue);\n  }\n\n  /**\n  * @notice Proxies _holder CryptoDollar token balance from the CryptoDollar contract\n  * @param _holder cryptoDollar token holder balance\n  * @return the cryptoDollar token balance of _holder\n  */\n  function cryptoDollarBalance(address _holder) public constant returns(uint256) {\n    return cryptoDollar.balanceOf(_holder);\n  }\n\n  /**\n  * @notice Proxies the total supply of CryptoDollar tokens from the CryptoDollar contract\n  * @return Total supply of cryptoDollar\n  */\n  function cryptoDollarTotalSupply() public constant returns (uint256) {\n    return cryptoDollar.totalSupply();\n  }\n\n  /**\n  * @notice The totalOutstanding() function returns the amount of ether that is owed to all cryptoDollar token holders for a pegged contract state\n  * @return Total value in ether of the cryptoDollar tokens that have been issued\n  */\n  function totalOutstanding(uint256 _exchangeRate) public constant returns(uint256) {\n    uint256 supply = cryptoDollar.totalSupply();\n    return supply.mul(1 ether).div(_exchangeRate);\n  }\n\n  /**\n  * @notice The buffer function computes the difference between the current contract balance and the amount of outstanding tokens.\n  * @param _exchangeRate {uint256}\n  * @return {int256} Buffer Value\n  */\n  function buffer(uint256 _exchangeRate) public constant returns (int256) {\n    int256 value = int256(this.balance - totalOutstanding(_exchangeRate));\n    return value;\n  }\n\n  /**\n  * @notice Returns a boolean corresponding to whether the contract is in state _state\n  * (for 1 ETH = _exchangeRate USD)\n  * @param _state {State}\n  * @param _exchangeRate {uint256}\n  * @return {bool}\n  */\n  function inState(State _state, uint256 _exchangeRate) public view returns (bool) {\n    if (buffer(_exchangeRate) > 0) {\n      return (_state == State.PEGGED);\n    } else {\n      return (_state == State.UNPEGGED);\n    }\n  }\n\n  /**\n   * @notice Returns contract balance\n   * @return {uint256} Contract Balance\n   */\n  function contractBalance() public constant returns (uint256) {\n    return this.balance;\n  }\n\n  /**\n   * @notice Allows cryptoDollar buyers to withdraw the ether value sent to the contract\n   * before the callback function happens. This allows users to retrieve the funds sent\n   * to the CryptoDollar contract in case oraclize fails to send a callback transaction\n   * @param _queryId {bytes32} - Oraclize query ID\n   */\n  function withdrawEther(bytes32 _queryId) public {\n    require(callingAddress[_queryId] == msg.sender);\n    require(callingFunction[_queryId] == Func.Buy);\n\n    uint256 oraclizeFee = callingFee[_queryId];\n    uint256 value = callingValue[_queryId];\n    uint256 tokenHoldersFee = value.div(200);\n    uint256 paymentValue = value - tokenHoldersFee - oraclizeFee;\n    require(paymentValue > 0);\n\n    delete callingValue[_queryId];\n    msg.sender.transfer(paymentValue);\n  }\n\n  modifier onlyOraclize() {\n    if (usingOraclize) {\n      require(msg.sender == oraclize_cbAddress());\n    }\n    _;\n  }\n}",
  "sourcePath": "/Users/davidvanisacker/Programming/Ethereum/Proofsuite/ProofCryptoFiat2/contracts/CryptoFiatHub.sol",
  "compiler": {
    "name": "solc",
    "version": "0.4.19+commit.c4cbbb05.Emscripten.clang"
  },
  "schemaVersion": "2.0.0",
  "updatedAt": "2018-04-18T10:59:42.275Z"
}