{
  "contractName": "CryptoFiatHub",
  "abi": [
    {
      "constant": true,
      "inputs": [],
      "name": "medianizer",
      "outputs": [
        {
          "name": "",
          "type": "address"
        }
      ],
      "payable": false,
      "stateMutability": "view",
      "type": "function"
    },
    {
      "constant": true,
      "inputs": [],
      "name": "proofToken",
      "outputs": [
        {
          "name": "",
          "type": "address"
        }
      ],
      "payable": false,
      "stateMutability": "view",
      "type": "function"
    },
    {
      "constant": true,
      "inputs": [],
      "name": "store",
      "outputs": [
        {
          "name": "",
          "type": "address"
        }
      ],
      "payable": false,
      "stateMutability": "view",
      "type": "function"
    },
    {
      "constant": true,
      "inputs": [],
      "name": "proofRewards",
      "outputs": [
        {
          "name": "",
          "type": "address"
        }
      ],
      "payable": false,
      "stateMutability": "view",
      "type": "function"
    },
    {
      "constant": true,
      "inputs": [],
      "name": "cryptoDollar",
      "outputs": [
        {
          "name": "",
          "type": "address"
        }
      ],
      "payable": false,
      "stateMutability": "view",
      "type": "function"
    },
    {
      "inputs": [
        {
          "name": "_cryptoDollarAddress",
          "type": "address"
        },
        {
          "name": "_storeAddress",
          "type": "address"
        },
        {
          "name": "_proofTokenAddress",
          "type": "address"
        },
        {
          "name": "_proofRewardsAddress",
          "type": "address"
        }
      ],
      "payable": false,
      "stateMutability": "nonpayable",
      "type": "constructor"
    },
    {
      "payable": true,
      "stateMutability": "payable",
      "type": "fallback"
    },
    {
      "anonymous": false,
      "inputs": [
        {
          "indexed": false,
          "name": "sender",
          "type": "address"
        },
        {
          "indexed": false,
          "name": "value",
          "type": "uint256"
        },
        {
          "indexed": false,
          "name": "tokenAmount",
          "type": "uint256"
        },
        {
          "indexed": false,
          "name": "exchangeRate",
          "type": "uint256"
        }
      ],
      "name": "BuyCryptoDollar",
      "type": "event"
    },
    {
      "anonymous": false,
      "inputs": [
        {
          "indexed": false,
          "name": "sender",
          "type": "address"
        },
        {
          "indexed": false,
          "name": "value",
          "type": "uint256"
        },
        {
          "indexed": false,
          "name": "tokenAmount",
          "type": "uint256"
        },
        {
          "indexed": false,
          "name": "exchangeRate",
          "type": "uint256"
        }
      ],
      "name": "SellCryptoDollar",
      "type": "event"
    },
    {
      "anonymous": false,
      "inputs": [
        {
          "indexed": false,
          "name": "sender",
          "type": "address"
        },
        {
          "indexed": false,
          "name": "value",
          "type": "uint256"
        },
        {
          "indexed": false,
          "name": "tokenAmount",
          "type": "uint256"
        },
        {
          "indexed": false,
          "name": "exchangeRate",
          "type": "uint256"
        }
      ],
      "name": "SellUnpeggedCryptoDollar",
      "type": "event"
    },
    {
      "constant": false,
      "inputs": [
        {
          "name": "_blocksPerEpoch",
          "type": "uint256"
        },
        {
          "name": "_medianizerAddress",
          "type": "address"
        }
      ],
      "name": "initialize",
      "outputs": [],
      "payable": false,
      "stateMutability": "nonpayable",
      "type": "function"
    },
    {
      "constant": false,
      "inputs": [
        {
          "name": "_medianizerAddress",
          "type": "address"
        }
      ],
      "name": "modifyMedianizerAddress",
      "outputs": [],
      "payable": false,
      "stateMutability": "nonpayable",
      "type": "function"
    },
    {
      "constant": false,
      "inputs": [],
      "name": "capitalize",
      "outputs": [],
      "payable": true,
      "stateMutability": "payable",
      "type": "function"
    },
    {
      "constant": false,
      "inputs": [],
      "name": "buyCryptoDollar",
      "outputs": [],
      "payable": true,
      "stateMutability": "payable",
      "type": "function"
    },
    {
      "constant": false,
      "inputs": [
        {
          "name": "_tokenAmount",
          "type": "uint256"
        }
      ],
      "name": "sellCryptoDollar",
      "outputs": [],
      "payable": true,
      "stateMutability": "payable",
      "type": "function"
    },
    {
      "constant": false,
      "inputs": [
        {
          "name": "_tokenAmount",
          "type": "uint256"
        }
      ],
      "name": "sellUnpeggedCryptoDollar",
      "outputs": [],
      "payable": true,
      "stateMutability": "payable",
      "type": "function"
    },
    {
      "constant": true,
      "inputs": [
        {
          "name": "_holder",
          "type": "address"
        }
      ],
      "name": "cryptoDollarBalance",
      "outputs": [
        {
          "name": "",
          "type": "uint256"
        }
      ],
      "payable": false,
      "stateMutability": "view",
      "type": "function"
    },
    {
      "constant": true,
      "inputs": [],
      "name": "cryptoDollarTotalSupply",
      "outputs": [
        {
          "name": "",
          "type": "uint256"
        }
      ],
      "payable": false,
      "stateMutability": "view",
      "type": "function"
    },
    {
      "constant": true,
      "inputs": [],
      "name": "totalOutstanding",
      "outputs": [
        {
          "name": "",
          "type": "uint256"
        }
      ],
      "payable": false,
      "stateMutability": "view",
      "type": "function"
    },
    {
      "constant": true,
      "inputs": [
        {
          "name": "_exchangeRate",
          "type": "uint256"
        }
      ],
      "name": "totalOutstanding",
      "outputs": [
        {
          "name": "",
          "type": "uint256"
        }
      ],
      "payable": false,
      "stateMutability": "view",
      "type": "function"
    },
    {
      "constant": true,
      "inputs": [
        {
          "name": "_exchangeRate",
          "type": "uint256"
        }
      ],
      "name": "buffer",
      "outputs": [
        {
          "name": "value",
          "type": "int256"
        }
      ],
      "payable": false,
      "stateMutability": "view",
      "type": "function"
    },
    {
      "constant": true,
      "inputs": [],
      "name": "buffer",
      "outputs": [
        {
          "name": "value",
          "type": "int256"
        }
      ],
      "payable": false,
      "stateMutability": "view",
      "type": "function"
    },
    {
      "constant": true,
      "inputs": [],
      "name": "exchangeRate",
      "outputs": [
        {
          "name": "",
          "type": "uint256"
        }
      ],
      "payable": false,
      "stateMutability": "view",
      "type": "function"
    },
    {
      "constant": true,
      "inputs": [
        {
          "name": "_state",
          "type": "uint8"
        },
        {
          "name": "_exchangeRate",
          "type": "uint256"
        }
      ],
      "name": "inState",
      "outputs": [
        {
          "name": "",
          "type": "bool"
        }
      ],
      "payable": false,
      "stateMutability": "view",
      "type": "function"
    },
    {
      "constant": true,
      "inputs": [],
      "name": "contractBalance",
      "outputs": [
        {
          "name": "",
          "type": "uint256"
        }
      ],
      "payable": false,
      "stateMutability": "view",
      "type": "function"
    }
  ],
  "bytecode": "0x6060604052670de0b6b3a7640000600455341561001b57600080fd5b604051608080611a1983398101604052808051906020019091908051906020019091908051906020019091908051906020019091905050836000806101000a81548173ffffffffffffffffffffffffffffffffffffffff021916908373ffffffffffffffffffffffffffffffffffffffff16021790555081600160006101000a81548173ffffffffffffffffffffffffffffffffffffffff021916908373ffffffffffffffffffffffffffffffffffffffff16021790555080600260006101000a81548173ffffffffffffffffffffffffffffffffffffffff021916908373ffffffffffffffffffffffffffffffffffffffff16021790555082600560006101000a81548173ffffffffffffffffffffffffffffffffffffffff021916908373ffffffffffffffffffffffffffffffffffffffff160217905550505050506118b1806101686000396000f300606060405260043610610112576000357c0100000000000000000000000000000000000000000000000000000000900463ffffffff16806304dac98614610117578063053571e1146101645780630e94a0ee146101b957806316078d041461020e5780631ee79dfe14610237578063230946261461026e5780633ba0b9a9146102785780634ba174bf146102a15780635298fd3f146102ab5780637afdb8a6146102c35780638b7afe2e146102ec578063975057e714610315578063999e3b7c1461036a578063b8146e87146103bf578063cd7b6a41146103f6578063d0b458731461042f578063da35a26f14610476578063edaafe20146104b8578063f31afe11146104e1578063f8fde0bf14610536575b600080fd5b341561012257600080fd5b61014e600480803573ffffffffffffffffffffffffffffffffffffffff1690602001909190505061054e565b6040518082815260200191505060405180910390f35b341561016f57600080fd5b610177610636565b604051808273ffffffffffffffffffffffffffffffffffffffff1673ffffffffffffffffffffffffffffffffffffffff16815260200191505060405180910390f35b34156101c457600080fd5b6101cc61065c565b604051808273ffffffffffffffffffffffffffffffffffffffff1673ffffffffffffffffffffffffffffffffffffffff16815260200191505060405180910390f35b341561021957600080fd5b610221610682565b6040518082815260200191505060405180910390f35b341561024257600080fd5b610258600480803590602001909190505061076f565b6040518082815260200191505060405180910390f35b610276610851565b005b341561028357600080fd5b61028b610853565b6040518082815260200191505060405180910390f35b6102a9610926565b005b6102c16004808035906020019091905050610bf0565b005b34156102ce57600080fd5b6102d6610fd0565b6040518082815260200191505060405180910390f35b34156102f757600080fd5b6102ff61107f565b6040518082815260200191505060405180910390f35b341561032057600080fd5b61032861109e565b604051808273ffffffffffffffffffffffffffffffffffffffff1673ffffffffffffffffffffffffffffffffffffffff16815260200191505060405180910390f35b341561037557600080fd5b61037d6110c4565b604051808273ffffffffffffffffffffffffffffffffffffffff1673ffffffffffffffffffffffffffffffffffffffff16815260200191505060405180910390f35b34156103ca57600080fd5b6103e060048080359060200190919050506110ea565b6040518082815260200191505060405180910390f35b341561040157600080fd5b61042d600480803573ffffffffffffffffffffffffffffffffffffffff16906020019091905050611115565b005b341561043a57600080fd5b61045c600480803560ff16906020019091908035906020019091905050611159565b604051808215151515815260200191505060405180910390f35b341561048157600080fd5b6104b6600480803590602001909190803573ffffffffffffffffffffffffffffffffffffffff169060200190919050506111ae565b005b34156104c357600080fd5b6104cb6113cb565b6040518082815260200191505060405180910390f35b34156104ec57600080fd5b6104f4611400565b604051808273ffffffffffffffffffffffffffffffffffffffff1673ffffffffffffffffffffffffffffffffffffffff16815260200191505060405180910390f35b61054c6004808035906020019091905050611425565b005b60008060009054906101000a900473ffffffffffffffffffffffffffffffffffffffff1673ffffffffffffffffffffffffffffffffffffffff166370a08231836000604051602001526040518263ffffffff167c0100000000000000000000000000000000000000000000000000000000028152600401808273ffffffffffffffffffffffffffffffffffffffff1673ffffffffffffffffffffffffffffffffffffffff168152602001915050602060405180830381600087803b151561061457600080fd5b6102c65a03f1151561062557600080fd5b505050604051805190509050919050565b600360009054906101000a900473ffffffffffffffffffffffffffffffffffffffff1681565b600160009054906101000a900473ffffffffffffffffffffffffffffffffffffffff1681565b600080600061068f610853565b91506000809054906101000a900473ffffffffffffffffffffffffffffffffffffffff1673ffffffffffffffffffffffffffffffffffffffff166318160ddd6000604051602001526040518163ffffffff167c0100000000000000000000000000000000000000000000000000000000028152600401602060405180830381600087803b151561071e57600080fd5b6102c65a03f1151561072f57600080fd5b5050506040518051905090506107688261075a670de0b6b3a76400008461183790919063ffffffff16565b61186a90919063ffffffff16565b9250505090565b6000806000809054906101000a900473ffffffffffffffffffffffffffffffffffffffff1673ffffffffffffffffffffffffffffffffffffffff166318160ddd6000604051602001526040518163ffffffff167c0100000000000000000000000000000000000000000000000000000000028152600401602060405180830381600087803b15156107ff57600080fd5b6102c65a03f1151561081057600080fd5b5050506040518051905090506108498361083b670de0b6b3a76400008461183790919063ffffffff16565b61186a90919063ffffffff16565b915050919050565b565b6000806000600360009054906101000a900473ffffffffffffffffffffffffffffffffffffffff1673ffffffffffffffffffffffffffffffffffffffff166359e02dd76000604051604001526040518163ffffffff167c01000000000000000000000000000000000000000000000000000000000281526004016040805180830381600087803b15156108e557600080fd5b6102c65a03f115156108f657600080fd5b50505060405180519060200180519050809250819350505080151561091a57600080fd5b81600190049250505090565b6000806000806000803373ffffffffffffffffffffffffffffffffffffffff161415151561095357600080fd5b60003411151561096257600080fd5b61096a610853565b9450610977600086611159565b151561098257600080fd5b61099660c83461186a90919063ffffffff16565b93506109ac60c83461186a90919063ffffffff16565b925082843403039150600260009054906101000a900473ffffffffffffffffffffffffffffffffffffffff1673ffffffffffffffffffffffffffffffffffffffff1663631cbe3c856040518263ffffffff167c01000000000000000000000000000000000000000000000000000000000281526004016000604051808303818588803b1515610a3a57600080fd5b6125ee5a03f11515610a4b57600080fd5b50505050610a7c670de0b6b3a7640000610a6e878561183790919063ffffffff16565b61186a90919063ffffffff16565b90506000809054906101000a900473ffffffffffffffffffffffffffffffffffffffff1673ffffffffffffffffffffffffffffffffffffffff1663a59ac6dd3383856000604051602001526040518463ffffffff167c0100000000000000000000000000000000000000000000000000000000028152600401808473ffffffffffffffffffffffffffffffffffffffff1673ffffffffffffffffffffffffffffffffffffffff1681526020018381526020018281526020019350505050602060405180830381600087803b1515610b5257600080fd5b6102c65a03f11515610b6357600080fd5b50505060405180519050507f42b7acf5b527390ff601c5b7d05a6f48b80b976bbd014a7ba3028f8fe9f5adbf33348388604051808573ffffffffffffffffffffffffffffffffffffffff1673ffffffffffffffffffffffffffffffffffffffff16815260200184815260200183815260200182815260200194505050505060405180910390a15050505050565b6000806000806000809054906101000a900473ffffffffffffffffffffffffffffffffffffffff1673ffffffffffffffffffffffffffffffffffffffff166370a08231336000604051602001526040518263ffffffff167c0100000000000000000000000000000000000000000000000000000000028152600401808273ffffffffffffffffffffffffffffffffffffffff1673ffffffffffffffffffffffffffffffffffffffff168152602001915050602060405180830381600087803b1515610cba57600080fd5b6102c65a03f11515610ccb57600080fd5b5050506040518051905093506000809054906101000a900473ffffffffffffffffffffffffffffffffffffffff1673ffffffffffffffffffffffffffffffffffffffff1663556800d4336000604051602001526040518263ffffffff167c0100000000000000000000000000000000000000000000000000000000028152600401808273ffffffffffffffffffffffffffffffffffffffff1673ffffffffffffffffffffffffffffffffffffffff168152602001915050602060405180830381600087803b1515610d9b57600080fd5b6102c65a03f11515610dac57600080fd5b50505060405180519050925060008510151515610dc857600080fd5b838511151515610dd757600080fd5b610ddf610853565b9150610dec600183611159565b1515610df757600080fd5b610e1c84610e0e858861183790919063ffffffff16565b61186a90919063ffffffff16565b90506000809054906101000a900473ffffffffffffffffffffffffffffffffffffffff1673ffffffffffffffffffffffffffffffffffffffff16636a2724623387846000604051602001526040518463ffffffff167c0100000000000000000000000000000000000000000000000000000000028152600401808473ffffffffffffffffffffffffffffffffffffffff1673ffffffffffffffffffffffffffffffffffffffff1681526020018381526020018281526020019350505050602060405180830381600087803b1515610ef257600080fd5b6102c65a03f11515610f0357600080fd5b50505060405180519050503373ffffffffffffffffffffffffffffffffffffffff166108fc829081150290604051600060405180830381858888f193505050501515610f4e57600080fd5b7f202e0051fb22aa0a07251e9070037e17078ec38b7726512603ff4b3f73944cc233828785604051808573ffffffffffffffffffffffffffffffffffffffff1673ffffffffffffffffffffffffffffffffffffffff16815260200184815260200183815260200182815260200194505050505060405180910390a15050505050565b60008060009054906101000a900473ffffffffffffffffffffffffffffffffffffffff1673ffffffffffffffffffffffffffffffffffffffff166318160ddd6000604051602001526040518163ffffffff167c0100000000000000000000000000000000000000000000000000000000028152600401602060405180830381600087803b151561105f57600080fd5b6102c65a03f1151561107057600080fd5b50505060405180519050905090565b60003073ffffffffffffffffffffffffffffffffffffffff1631905090565b600560009054906101000a900473ffffffffffffffffffffffffffffffffffffffff1681565b600260009054906101000a900473ffffffffffffffffffffffffffffffffffffffff1681565b60006110f58261076f565b3073ffffffffffffffffffffffffffffffffffffffff1631039050919050565b80600360006101000a81548173ffffffffffffffffffffffffffffffffffffffff021916908373ffffffffffffffffffffffffffffffffffffffff16021790555050565b600080611165836110ea565b131561118c576000600181111561117857fe5b83600181111561118457fe5b1490506111a8565b60018081111561119857fe5b8360018111156111a457fe5b1490505b92915050565b600560009054906101000a900473ffffffffffffffffffffffffffffffffffffffff1673ffffffffffffffffffffffffffffffffffffffff1673__CryptoFiatStorageProxy________________63083c73799091436040518363ffffffff167c0100000000000000000000000000000000000000000000000000000000028152600401808373ffffffffffffffffffffffffffffffffffffffff1673ffffffffffffffffffffffffffffffffffffffff1681526020018281526020019250505060006040518083038186803b151561128657600080fd5b6102c65a03f4151561129757600080fd5b505050600560009054906101000a900473ffffffffffffffffffffffffffffffffffffffff1673ffffffffffffffffffffffffffffffffffffffff1673__RewardsStorageProxy___________________635658d9c89091846040518363ffffffff167c0100000000000000000000000000000000000000000000000000000000028152600401808373ffffffffffffffffffffffffffffffffffffffff1673ffffffffffffffffffffffffffffffffffffffff1681526020018281526020019250505060006040518083038186803b151561137257600080fd5b6102c65a03f4151561138357600080fd5b50505080600360006101000a81548173ffffffffffffffffffffffffffffffffffffffff021916908373ffffffffffffffffffffffffffffffffffffffff1602179055505050565b6000806113d6610853565b90506113e18161076f565b3073ffffffffffffffffffffffffffffffffffffffff16310391505090565b6000809054906101000a900473ffffffffffffffffffffffffffffffffffffffff1681565b60008060008060008060009054906101000a900473ffffffffffffffffffffffffffffffffffffffff1673ffffffffffffffffffffffffffffffffffffffff166370a08231336000604051602001526040518263ffffffff167c0100000000000000000000000000000000000000000000000000000000028152600401808273ffffffffffffffffffffffffffffffffffffffff1673ffffffffffffffffffffffffffffffffffffffff168152602001915050602060405180830381600087803b15156114f157600080fd5b6102c65a03f1151561150257600080fd5b5050506040518051905094506000809054906101000a900473ffffffffffffffffffffffffffffffffffffffff1673ffffffffffffffffffffffffffffffffffffffff1663556800d4336000604051602001526040518263ffffffff167c0100000000000000000000000000000000000000000000000000000000028152600401808273ffffffffffffffffffffffffffffffffffffffff1673ffffffffffffffffffffffffffffffffffffffff168152602001915050602060405180830381600087803b15156115d257600080fd5b6102c65a03f115156115e357600080fd5b505050604051805190509350600086101515156115ff57600080fd5b84861115151561160e57600080fd5b611616610853565b9250611623600084611159565b151561162e57600080fd5b61165b8361164d670de0b6b3a76400008961183790919063ffffffff16565b61186a90919063ffffffff16565b915061168285611674868961183790919063ffffffff16565b61186a90919063ffffffff16565b90506000809054906101000a900473ffffffffffffffffffffffffffffffffffffffff1673ffffffffffffffffffffffffffffffffffffffff16636a2724623388846000604051602001526040518463ffffffff167c0100000000000000000000000000000000000000000000000000000000028152600401808473ffffffffffffffffffffffffffffffffffffffff1673ffffffffffffffffffffffffffffffffffffffff1681526020018381526020018281526020019350505050602060405180830381600087803b151561175857600080fd5b6102c65a03f1151561176957600080fd5b50505060405180519050503373ffffffffffffffffffffffffffffffffffffffff166108fc839081150290604051600060405180830381858888f1935050505015156117b457600080fd5b7f8a32ba7ecc82e6ff34ff43778b9e6e698fb4a333a2b7b46fc1f9a9175148ac8633828886604051808573ffffffffffffffffffffffffffffffffffffffff1673ffffffffffffffffffffffffffffffffffffffff16815260200184815260200183815260200182815260200194505050505060405180910390a1505050505050565b60008082840290506000841480611858575082848281151561185557fe5b04145b151561186057fe5b8091505092915050565b600080828481151561187857fe5b04905080915050929150505600a165627a7a7230582012add8171263f57f4cbb023fcd5ffc9301aa53afc617bf73f53a9e39ae90b3a20029",
  "source": "pragma solidity ^0.4.19;\n\nimport './libraries/SafeMath.sol';\nimport './libraries/CryptoDollarStorageProxy.sol';\nimport './libraries/CryptoFiatStorageProxy.sol';\nimport './libraries/RewardsStorageProxy.sol';\nimport './interfaces/ProofTokenInterface.sol';\nimport './interfaces/RewardsInterface.sol';\nimport './interfaces/CryptoDollarInterface.sol';\nimport './interfaces/MedianizerInterface.sol';\n\ncontract CryptoFiatHub\n{\n    using SafeMath for uint256;\n    using CryptoFiatStorageProxy for address;\n    using RewardsStorageProxy for address;\n\n    enum State { PEGGED, UNPEGGED }\n\n    CryptoDollarInterface public cryptoDollar;\n    ProofTokenInterface public proofToken;\n    RewardsInterface public proofRewards;\n    MedianizerInterface public medianizer;\n\n    uint256 pointMultiplier = 10 ** 18;\n    address public store;\n\n    event BuyCryptoDollar(address sender, uint256 value, uint256 tokenAmount, uint256 exchangeRate);\n    event SellCryptoDollar(address sender, uint256 value, uint256 tokenAmount, uint256 exchangeRate);\n    event SellUnpeggedCryptoDollar(address sender, uint256 value, uint256 tokenAmount, uint256 exchangeRate);\n\n    function CryptoFiatHub(\n      address _cryptoDollarAddress,\n      address _storeAddress,\n      address _proofTokenAddress,\n      address _proofRewardsAddress)\n    public\n    {\n        cryptoDollar = CryptoDollarInterface(_cryptoDollarAddress);\n        proofToken = ProofTokenInterface(_proofTokenAddress);\n        proofRewards = RewardsInterface(_proofRewardsAddress);\n        store = _storeAddress;\n    }\n\n    /**\n    * @notice initialize() initialize the CryptoFiat smart contract system (CryptoFiat/CryptoDollar/Rewards)\n    * @param _blocksPerEpoch {uint256} - Number of blocks per reward epoch.\n    * @param _medianizerAddress {address} - Medianizer contract address\n    */\n    //TODO need to set ownership model\n    function initialize(uint256 _blocksPerEpoch, address _medianizerAddress) public\n    {\n        store.setCreationBlockNumber(block.number);\n        store.setBlocksPerEpoch(_blocksPerEpoch);\n        medianizer = MedianizerInterface(_medianizerAddress);\n    }\n\n    /**\n     * @notice Modify the Medianizer smart-contract address.\n     * @param _medianizerAddress {address} Medianizer smart-contract address\n     */\n    function modifyMedianizerAddress(address _medianizerAddress) public\n    {\n        medianizer = MedianizerInterface(_medianizerAddress);\n    }\n\n    /**\n    * @dev Is payable needed ?\n    * @notice Sending ether to the contract will result in an error\n    */\n    function () public payable\n    {\n        revert();\n    }\n\n    /**\n    * @notice Capitalize contract\n    */\n    function capitalize() public payable {}\n\n    function buyCryptoDollar() public payable\n    {\n        require(msg.sender != 0x0);\n        require(msg.value > 0);\n\n        uint256 rate = exchangeRate();\n        require(inState(State.PEGGED, rate));\n\n        uint256 tokenHoldersFee = msg.value.div(200);\n        uint256 bufferFee = msg.value.div(200);\n        uint256 paymentValue = msg.value - tokenHoldersFee - bufferFee;\n\n        proofRewards.receiveRewards.value(tokenHoldersFee)();\n        uint256 tokenAmount = paymentValue.mul(rate).div(1 ether);\n\n        cryptoDollar.buy(msg.sender, tokenAmount, paymentValue);\n        BuyCryptoDollar(msg.sender, msg.value, tokenAmount, rate);\n      }\n\n    /**\n    * @dev Currently the oraclizeFee is withdrawn after receiving the tokens. However, what happens when a user\n    * sells a very small amount of tokens ? Then the contract balance decreases (the total value sent to the user is also 0)\n    * which is problematic. The workarounds are:\n    * - Add a transaction fee that corresponds to the transaction fee\n    * - Put a minimum amount of tokens that you could buy/sell\n    * @notice sellCryptoDollar() sells CryptoDollar tokens for the equivalent USD value at which they were bought\n    * @param _tokenAmount Number of CryptoDollar tokens to be sold against ether\n    */\n    function sellCryptoDollar(uint256 _tokenAmount) public payable\n    {\n        uint256 tokenBalance = cryptoDollar.balanceOf(msg.sender);\n        uint256 reservedEther = cryptoDollar.reservedEther(msg.sender);\n        require(_tokenAmount >= 0);\n        require(_tokenAmount <= tokenBalance);\n        uint256 rate = exchangeRate();\n        require(inState(State.PEGGED, rate));\n\n        uint256 tokenValue = _tokenAmount.mul(1 ether).div(rate);\n        uint256 etherValue = _tokenAmount.mul(reservedEther).div(tokenBalance);\n\n        cryptoDollar.sell(msg.sender, _tokenAmount, etherValue);\n        msg.sender.transfer(tokenValue);\n        SellCryptoDollar(msg.sender, etherValue, _tokenAmount, rate);\n    }\n\n    /**\n    * @notice sellUnpeggedCryptoDollar sells CryptoDollar tokens for the equivalent ether value at which they were bought\n    * @param _tokenAmount Number of CryptoDollar tokens to be sold against ether\n    */\n    function sellUnpeggedCryptoDollar(uint256 _tokenAmount) public payable\n    {\n        uint256 tokenBalance = cryptoDollar.balanceOf(msg.sender);\n        uint256 reservedEther = cryptoDollar.reservedEther(msg.sender);\n        require(_tokenAmount >= 0);\n        require(_tokenAmount <= tokenBalance);\n        uint256 rate = exchangeRate();\n        require(inState(State.UNPEGGED, rate));\n\n        uint256 paymentValue = _tokenAmount.mul(reservedEther).div(tokenBalance);\n\n        cryptoDollar.sell(msg.sender, _tokenAmount, paymentValue);\n        msg.sender.transfer(paymentValue);\n        SellUnpeggedCryptoDollar(msg.sender, paymentValue, _tokenAmount, rate);\n    }\n\n  /**\n  * @notice Proxies _holder CryptoDollar token balance from the CryptoDollar contract\n  * @param _holder cryptoDollar token holder balance\n  * @return the cryptoDollar token balance of _holder\n  */\n  function cryptoDollarBalance(address _holder) public constant returns(uint256)\n  {\n      return cryptoDollar.balanceOf(_holder);\n  }\n\n  /**\n  * @notice Proxies the total supply of CryptoDollar tokens from the CryptoDollar contract\n  * @return Total supply of cryptoDollar\n  */\n  function cryptoDollarTotalSupply() public constant returns (uint256)\n  {\n      return cryptoDollar.totalSupply();\n  }\n\n  /**\n  * @notice The totalOutstanding() function returns the amount of ether that is owed to all cryptoDollar token holders for a pegged contract state\n  * @return Total value in ether of the cryptoDollar tokens that have been issued\n  */\n  function totalOutstanding() public constant returns(uint256)\n  {\n      uint256 rate = exchangeRate();\n      uint256 supply = cryptoDollar.totalSupply();\n      return supply.mul(1 ether).div(rate);\n  }\n\n\n  function totalOutstanding(uint256 _exchangeRate) public constant returns(uint256)\n  {\n      uint256 supply = cryptoDollar.totalSupply();\n      return supply.mul(1 ether).div(_exchangeRate);\n  }\n\n  /**\n  * @notice The buffer function computes the difference between the current contract balance and the amount of outstanding tokens.\n  * @return {int256} Buffer Value\n  */\n  function buffer() public constant returns (int256 value)\n  {\n      uint256 rate = exchangeRate();\n      value = int256(this.balance - totalOutstanding(rate));\n  }\n\n  function buffer(uint256 _exchangeRate) public constant returns (int256 value)\n  {\n      value = int256(this.balance - totalOutstanding(_exchangeRate));\n  }\n\n  function exchangeRate() public constant returns (uint256)\n  {\n      bytes32 exchangeRateInBytes;\n      bool valid;\n      (exchangeRateInBytes, valid) = (medianizer.peek());\n      require(valid);\n      return uint256(exchangeRateInBytes);\n  }\n\n  /**\n  * @notice Returns a boolean corresponding to whether the contract is in state _state\n  * (for 1 ETH = _exchangeRate USD)\n  * @param _state {State}\n  * @param _exchangeRate {uint256}\n  * @return {bool}\n  */\n  function inState(State _state, uint256 _exchangeRate) public view returns (bool)\n  {\n      if (buffer(_exchangeRate) > 0)\n      {\n          return (_state == State.PEGGED);\n      }\n      else\n      {\n          return (_state == State.UNPEGGED);\n      }\n  }\n\n  /**\n   * @notice Returns contract balance\n   * @return {uint256} Contract Balance\n   */\n  function contractBalance() public constant returns (uint256)\n  {\n      return this.balance;\n  }\n}",
  "sourcePath": "/Users/davidvanisacker/Programming/Ethereum/Proofsuite/ProofCryptoFiat2/contracts/CryptoFiatHub.sol",
  "compiler": {
    "name": "solc",
    "version": "0.4.19+commit.c4cbbb05.Emscripten.clang"
  },
  "schemaVersion": "2.0.0",
  "updatedAt": "2018-05-11T16:38:14.251Z"
}