{
  "contractName": "CryptoDollar",
  "abi": [
    {
      "constant": false,
      "inputs": [],
      "name": "lockOwnership",
      "outputs": [],
      "payable": false,
      "stateMutability": "nonpayable",
      "type": "function"
    },
    {
      "constant": true,
      "inputs": [],
      "name": "name",
      "outputs": [
        {
          "name": "",
          "type": "string"
        }
      ],
      "payable": false,
      "stateMutability": "view",
      "type": "function"
    },
    {
      "constant": true,
      "inputs": [
        {
          "name": "",
          "type": "uint256"
        }
      ],
      "name": "authorized",
      "outputs": [
        {
          "name": "",
          "type": "address"
        }
      ],
      "payable": false,
      "stateMutability": "view",
      "type": "function"
    },
    {
      "constant": true,
      "inputs": [],
      "name": "decimals",
      "outputs": [
        {
          "name": "",
          "type": "uint8"
        }
      ],
      "payable": false,
      "stateMutability": "view",
      "type": "function"
    },
    {
      "constant": true,
      "inputs": [],
      "name": "authorizationsLocked",
      "outputs": [
        {
          "name": "",
          "type": "bool"
        }
      ],
      "payable": false,
      "stateMutability": "view",
      "type": "function"
    },
    {
      "constant": true,
      "inputs": [],
      "name": "getAuthorizations",
      "outputs": [
        {
          "name": "",
          "type": "address[]"
        }
      ],
      "payable": false,
      "stateMutability": "view",
      "type": "function"
    },
    {
      "constant": false,
      "inputs": [
        {
          "name": "_address",
          "type": "address"
        }
      ],
      "name": "revokeAccess",
      "outputs": [],
      "payable": false,
      "stateMutability": "nonpayable",
      "type": "function"
    },
    {
      "constant": true,
      "inputs": [],
      "name": "owner",
      "outputs": [
        {
          "name": "",
          "type": "address"
        }
      ],
      "payable": false,
      "stateMutability": "view",
      "type": "function"
    },
    {
      "constant": true,
      "inputs": [],
      "name": "symbol",
      "outputs": [
        {
          "name": "",
          "type": "string"
        }
      ],
      "payable": false,
      "stateMutability": "view",
      "type": "function"
    },
    {
      "constant": false,
      "inputs": [],
      "name": "lockAuthorizations",
      "outputs": [
        {
          "name": "success",
          "type": "bool"
        }
      ],
      "payable": false,
      "stateMutability": "nonpayable",
      "type": "function"
    },
    {
      "constant": true,
      "inputs": [],
      "name": "store",
      "outputs": [
        {
          "name": "",
          "type": "address"
        }
      ],
      "payable": false,
      "stateMutability": "view",
      "type": "function"
    },
    {
      "constant": false,
      "inputs": [
        {
          "name": "_address",
          "type": "address"
        },
        {
          "name": "_newAddress",
          "type": "address"
        }
      ],
      "name": "replaceAccess",
      "outputs": [],
      "payable": false,
      "stateMutability": "nonpayable",
      "type": "function"
    },
    {
      "constant": true,
      "inputs": [],
      "name": "locked",
      "outputs": [
        {
          "name": "",
          "type": "bool"
        }
      ],
      "payable": false,
      "stateMutability": "view",
      "type": "function"
    },
    {
      "constant": false,
      "inputs": [
        {
          "name": "_address",
          "type": "address"
        }
      ],
      "name": "authorizeAccess",
      "outputs": [],
      "payable": false,
      "stateMutability": "nonpayable",
      "type": "function"
    },
    {
      "constant": false,
      "inputs": [
        {
          "name": "newOwner",
          "type": "address"
        }
      ],
      "name": "transferOwnership",
      "outputs": [],
      "payable": false,
      "stateMutability": "nonpayable",
      "type": "function"
    },
    {
      "constant": true,
      "inputs": [
        {
          "name": "",
          "type": "address"
        }
      ],
      "name": "isAuthorized",
      "outputs": [
        {
          "name": "",
          "type": "bool"
        }
      ],
      "payable": false,
      "stateMutability": "view",
      "type": "function"
    },
    {
      "inputs": [
        {
          "name": "_storeAddress",
          "type": "address"
        }
      ],
      "payable": false,
      "stateMutability": "nonpayable",
      "type": "constructor"
    },
    {
      "payable": true,
      "stateMutability": "payable",
      "type": "fallback"
    },
    {
      "constant": false,
      "inputs": [
        {
          "name": "_to",
          "type": "address"
        },
        {
          "name": "_amount",
          "type": "uint256"
        }
      ],
      "name": "transfer",
      "outputs": [
        {
          "name": "success",
          "type": "bool"
        }
      ],
      "payable": false,
      "stateMutability": "nonpayable",
      "type": "function"
    },
    {
      "constant": false,
      "inputs": [
        {
          "name": "_from",
          "type": "address"
        },
        {
          "name": "_to",
          "type": "address"
        },
        {
          "name": "_amount",
          "type": "uint256"
        }
      ],
      "name": "transferFrom",
      "outputs": [
        {
          "name": "success",
          "type": "bool"
        }
      ],
      "payable": false,
      "stateMutability": "nonpayable",
      "type": "function"
    },
    {
      "constant": false,
      "inputs": [
        {
          "name": "_spender",
          "type": "address"
        },
        {
          "name": "_amount",
          "type": "uint256"
        }
      ],
      "name": "approve",
      "outputs": [
        {
          "name": "success",
          "type": "bool"
        }
      ],
      "payable": false,
      "stateMutability": "nonpayable",
      "type": "function"
    },
    {
      "constant": true,
      "inputs": [
        {
          "name": "_owner",
          "type": "address"
        },
        {
          "name": "_spender",
          "type": "address"
        }
      ],
      "name": "allowance",
      "outputs": [
        {
          "name": "",
          "type": "uint256"
        }
      ],
      "payable": false,
      "stateMutability": "view",
      "type": "function"
    },
    {
      "constant": false,
      "inputs": [
        {
          "name": "_to",
          "type": "address"
        },
        {
          "name": "_amount",
          "type": "uint256"
        },
        {
          "name": "_etherValue",
          "type": "uint256"
        }
      ],
      "name": "buy",
      "outputs": [
        {
          "name": "",
          "type": "bool"
        }
      ],
      "payable": false,
      "stateMutability": "nonpayable",
      "type": "function"
    },
    {
      "constant": false,
      "inputs": [
        {
          "name": "_to",
          "type": "address"
        },
        {
          "name": "_amount",
          "type": "uint256"
        },
        {
          "name": "_etherValue",
          "type": "uint256"
        }
      ],
      "name": "sell",
      "outputs": [
        {
          "name": "",
          "type": "bool"
        }
      ],
      "payable": false,
      "stateMutability": "nonpayable",
      "type": "function"
    },
    {
      "constant": true,
      "inputs": [],
      "name": "totalSupply",
      "outputs": [
        {
          "name": "",
          "type": "uint256"
        }
      ],
      "payable": false,
      "stateMutability": "view",
      "type": "function"
    },
    {
      "constant": true,
      "inputs": [
        {
          "name": "_owner",
          "type": "address"
        }
      ],
      "name": "balanceOf",
      "outputs": [
        {
          "name": "balance",
          "type": "uint256"
        }
      ],
      "payable": false,
      "stateMutability": "view",
      "type": "function"
    },
    {
      "constant": true,
      "inputs": [
        {
          "name": "_owner",
          "type": "address"
        }
      ],
      "name": "reservedEther",
      "outputs": [
        {
          "name": "value",
          "type": "uint256"
        }
      ],
      "payable": false,
      "stateMutability": "view",
      "type": "function"
    }
  ],
  "bytecode": "0x60606040526040805190810160405280600c81526020017f43727970746f446f6c6c6172000000000000000000000000000000000000000081525060049080519060200190620000519291906200016d565b506040805190810160405280600481526020017f4355534400000000000000000000000000000000000000000000000000000000815250600590805190602001906200009f9291906200016d565b506002600660006101000a81548160ff021916908360ff1602179055503415620000c857600080fd5b604051602080620033a283398101604052808051906020019091905050336000806101000a81548173ffffffffffffffffffffffffffffffffffffffff021916908373ffffffffffffffffffffffffffffffffffffffff16021790555080600660016101000a81548173ffffffffffffffffffffffffffffffffffffffff021916908373ffffffffffffffffffffffffffffffffffffffff160217905550506200021c565b828054600181600116156101000203166002900490600052602060002090601f016020900481019282601f10620001b057805160ff1916838001178555620001e1565b82800160010185558215620001e1579182015b82811115620001e0578251825591602001919060010190620001c3565b5b509050620001f09190620001f4565b5090565b6200021991905b8082111562000215576000816000905550600101620001fb565b5090565b90565b613176806200022c6000396000f300606060405260043610610149576000357c0100000000000000000000000000000000000000000000000000000000900463ffffffff1680630577c02b1461014e57806306fdde0314610163578063095ea7b3146101f15780630d48669a1461024b57806318160ddd146102ae57806323b872dd146102d7578063313ce56714610350578063556800d41461037f5780636a272462146103cc5780636d75b1371461042f57806370a082311461045c5780637f35ff7d146104a957806385e68531146105135780638da5cb5b1461054c57806395d89b41146105a157806396874c501461062f578063975057e71461065c578063a59ac6dd146106b1578063a9059cbb14610714578063b7215e501461076e578063cf309012146107c6578063dd62ed3e146107f3578063eed142181461085f578063f2fde38b14610898578063fe9fbb80146108d1575b600080fd5b341561015957600080fd5b610161610922565b005b341561016e57600080fd5b61017661099a565b6040518080602001828103825283818151815260200191508051906020019080838360005b838110156101b657808201518184015260208101905061019b565b50505050905090810190601f1680156101e35780820380516001836020036101000a031916815260200191505b509250505060405180910390f35b34156101fc57600080fd5b610231600480803573ffffffffffffffffffffffffffffffffffffffff16906020019091908035906020019091905050610a38565b604051808215151515815260200191505060405180910390f35b341561025657600080fd5b61026c6004808035906020019091905050610b98565b604051808273ffffffffffffffffffffffffffffffffffffffff1673ffffffffffffffffffffffffffffffffffffffff16815260200191505060405180910390f35b34156102b957600080fd5b6102c1610bd7565b6040518082815260200191505060405180910390f35b34156102e257600080fd5b610336600480803573ffffffffffffffffffffffffffffffffffffffff1690602001909190803573ffffffffffffffffffffffffffffffffffffffff16906020019091908035906020019091905050610cd2565b604051808215151515815260200191505060405180910390f35b341561035b57600080fd5b610363611543565b604051808260ff1660ff16815260200191505060405180910390f35b341561038a57600080fd5b6103b6600480803573ffffffffffffffffffffffffffffffffffffffff16906020019091905050611556565b6040518082815260200191505060405180910390f35b34156103d757600080fd5b610415600480803573ffffffffffffffffffffffffffffffffffffffff16906020019091908035906020019091908035906020019091905050611687565b604051808215151515815260200191505060405180910390f35b341561043a57600080fd5b610442611a17565b604051808215151515815260200191505060405180910390f35b341561046757600080fd5b610493600480803573ffffffffffffffffffffffffffffffffffffffff16906020019091905050611a2a565b6040518082815260200191505060405180910390f35b34156104b457600080fd5b6104bc611b5b565b6040518080602001828103825283818151815260200191508051906020019060200280838360005b838110156104ff5780820151818401526020810190506104e4565b505050509050019250505060405180910390f35b341561051e57600080fd5b61054a600480803573ffffffffffffffffffffffffffffffffffffffff16906020019091905050611bef565b005b341561055757600080fd5b61055f611e2f565b604051808273ffffffffffffffffffffffffffffffffffffffff1673ffffffffffffffffffffffffffffffffffffffff16815260200191505060405180910390f35b34156105ac57600080fd5b6105b4611e54565b6040518080602001828103825283818151815260200191508051906020019080838360005b838110156105f45780820151818401526020810190506105d9565b50505050905090810190601f1680156106215780820380516001836020036101000a031916815260200191505b509250505060405180910390f35b341561063a57600080fd5b610642611ef2565b604051808215151515815260200191505060405180910390f35b341561066757600080fd5b61066f611f71565b604051808273ffffffffffffffffffffffffffffffffffffffff1673ffffffffffffffffffffffffffffffffffffffff16815260200191505060405180910390f35b34156106bc57600080fd5b6106fa600480803573ffffffffffffffffffffffffffffffffffffffff16906020019091908035906020019091908035906020019091905050611f97565b604051808215151515815260200191505060405180910390f35b341561071f57600080fd5b610754600480803573ffffffffffffffffffffffffffffffffffffffff16906020019091908035906020019091905050612328565b604051808215151515815260200191505060405180910390f35b341561077957600080fd5b6107c4600480803573ffffffffffffffffffffffffffffffffffffffff1690602001909190803573ffffffffffffffffffffffffffffffffffffffff16906020019091905050612a44565b005b34156107d157600080fd5b6107d9612c83565b604051808215151515815260200191505060405180910390f35b34156107fe57600080fd5b610849600480803573ffffffffffffffffffffffffffffffffffffffff1690602001909190803573ffffffffffffffffffffffffffffffffffffffff16906020019091905050612c96565b6040518082815260200191505060405180910390f35b341561086a57600080fd5b610896600480803573ffffffffffffffffffffffffffffffffffffffff16906020019091905050612dfc565b005b34156108a357600080fd5b6108cf600480803573ffffffffffffffffffffffffffffffffffffffff16906020019091905050612f57565b005b34156108dc57600080fd5b610908600480803573ffffffffffffffffffffffffffffffffffffffff1690602001909190505061304b565b604051808215151515815260200191505060405180910390f35b6000809054906101000a900473ffffffffffffffffffffffffffffffffffffffff1673ffffffffffffffffffffffffffffffffffffffff163373ffffffffffffffffffffffffffffffffffffffff1614151561097d57600080fd5b6001600060146101000a81548160ff021916908315150217905550565b60048054600181600116156101000203166002900480601f016020809104026020016040519081016040528092919081815260200182805460018160011615610100020316600290048015610a305780601f10610a0557610100808354040283529160200191610a30565b820191906000526020600020905b815481529060010190602001808311610a1357829003601f168201915b505050505081565b6000600660019054906101000a900473ffffffffffffffffffffffffffffffffffffffff1673ffffffffffffffffffffffffffffffffffffffff1673__CryptoDollarStorageProxy______________63a707037390913386866040518563ffffffff167c0100000000000000000000000000000000000000000000000000000000028152600401808573ffffffffffffffffffffffffffffffffffffffff1673ffffffffffffffffffffffffffffffffffffffff1681526020018473ffffffffffffffffffffffffffffffffffffffff1673ffffffffffffffffffffffffffffffffffffffff1681526020018373ffffffffffffffffffffffffffffffffffffffff1673ffffffffffffffffffffffffffffffffffffffff16815260200182815260200194505050505060006040518083038186803b1515610b7a57600080fd5b6102c65a03f41515610b8b57600080fd5b5050506001905092915050565b600181815481101515610ba757fe5b90600052602060002090016000915054906101000a900473ffffffffffffffffffffffffffffffffffffffff1681565b6000600660019054906101000a900473ffffffffffffffffffffffffffffffffffffffff1673ffffffffffffffffffffffffffffffffffffffff1673__CryptoDollarStorageProxy______________6368da10ae90916000604051602001526040518263ffffffff167c0100000000000000000000000000000000000000000000000000000000028152600401808273ffffffffffffffffffffffffffffffffffffffff1673ffffffffffffffffffffffffffffffffffffffff16815260200191505060206040518083038186803b1515610cb257600080fd5b6102c65a03f41515610cc357600080fd5b50505060405180519050905090565b600080600080600660019054906101000a900473ffffffffffffffffffffffffffffffffffffffff1673ffffffffffffffffffffffffffffffffffffffff1673__CryptoDollarStorageProxy______________63fec5dcf39091896000604051602001526040518363ffffffff167c0100000000000000000000000000000000000000000000000000000000028152600401808373ffffffffffffffffffffffffffffffffffffffff1673ffffffffffffffffffffffffffffffffffffffff1681526020018273ffffffffffffffffffffffffffffffffffffffff1673ffffffffffffffffffffffffffffffffffffffff1681526020019250505060206040518083038186803b1515610de557600080fd5b6102c65a03f41515610df657600080fd5b505050604051805190509250600660019054906101000a900473ffffffffffffffffffffffffffffffffffffffff1673ffffffffffffffffffffffffffffffffffffffff1673__CryptoDollarStorageProxy______________63d4fac45d9091896000604051602001526040518363ffffffff167c0100000000000000000000000000000000000000000000000000000000028152600401808373ffffffffffffffffffffffffffffffffffffffff1673ffffffffffffffffffffffffffffffffffffffff1681526020018273ffffffffffffffffffffffffffffffffffffffff1673ffffffffffffffffffffffffffffffffffffffff1681526020019250505060206040518083038186803b1515610f0f57600080fd5b6102c65a03f41515610f2057600080fd5b505050604051805190509150610f5182610f43878661306b90919063ffffffff16565b61309e90919063ffffffff16565b9050848210151515610f6257600080fd5b600660019054906101000a900473ffffffffffffffffffffffffffffffffffffffff1673ffffffffffffffffffffffffffffffffffffffff1673__CryptoDollarStorageProxy______________632b15e857909188886040518463ffffffff167c0100000000000000000000000000000000000000000000000000000000028152600401808473ffffffffffffffffffffffffffffffffffffffff1673ffffffffffffffffffffffffffffffffffffffff1681526020018373ffffffffffffffffffffffffffffffffffffffff1673ffffffffffffffffffffffffffffffffffffffff168152602001828152602001935050505060006040518083038186803b151561106e57600080fd5b6102c65a03f4151561107f57600080fd5b505050600660019054906101000a900473ffffffffffffffffffffffffffffffffffffffff1673ffffffffffffffffffffffffffffffffffffffff1673__CryptoDollarStorageProxy______________6352fedefa909189886040518463ffffffff167c0100000000000000000000000000000000000000000000000000000000028152600401808473ffffffffffffffffffffffffffffffffffffffff1673ffffffffffffffffffffffffffffffffffffffff1681526020018373ffffffffffffffffffffffffffffffffffffffff1673ffffffffffffffffffffffffffffffffffffffff168152602001828152602001935050505060006040518083038186803b151561118e57600080fd5b6102c65a03f4151561119f57600080fd5b505050600660019054906101000a900473ffffffffffffffffffffffffffffffffffffffff1673ffffffffffffffffffffffffffffffffffffffff1673__CryptoDollarStorageProxy______________62e80682909189846040518463ffffffff167c0100000000000000000000000000000000000000000000000000000000028152600401808473ffffffffffffffffffffffffffffffffffffffff1673ffffffffffffffffffffffffffffffffffffffff1681526020018373ffffffffffffffffffffffffffffffffffffffff1673ffffffffffffffffffffffffffffffffffffffff168152602001828152602001935050505060006040518083038186803b15156112ad57600080fd5b6102c65a03f415156112be57600080fd5b505050600660019054906101000a900473ffffffffffffffffffffffffffffffffffffffff1673ffffffffffffffffffffffffffffffffffffffff1673__CryptoDollarStorageProxy______________6365537771909188846040518463ffffffff167c0100000000000000000000000000000000000000000000000000000000028152600401808473ffffffffffffffffffffffffffffffffffffffff1673ffffffffffffffffffffffffffffffffffffffff1681526020018373ffffffffffffffffffffffffffffffffffffffff1673ffffffffffffffffffffffffffffffffffffffff168152602001828152602001935050505060006040518083038186803b15156113cd57600080fd5b6102c65a03f415156113de57600080fd5b505050600660019054906101000a900473ffffffffffffffffffffffffffffffffffffffff1673ffffffffffffffffffffffffffffffffffffffff1673__CryptoDollarStorageProxy______________636bc2b44390918989896040518563ffffffff167c0100000000000000000000000000000000000000000000000000000000028152600401808573ffffffffffffffffffffffffffffffffffffffff1673ffffffffffffffffffffffffffffffffffffffff1681526020018473ffffffffffffffffffffffffffffffffffffffff1673ffffffffffffffffffffffffffffffffffffffff1681526020018373ffffffffffffffffffffffffffffffffffffffff1673ffffffffffffffffffffffffffffffffffffffff16815260200182815260200194505050505060006040518083038186803b151561152157600080fd5b6102c65a03f4151561153257600080fd5b505050600193505050509392505050565b600660009054906101000a900460ff1681565b6000600660019054906101000a900473ffffffffffffffffffffffffffffffffffffffff1673ffffffffffffffffffffffffffffffffffffffff1673__CryptoDollarStorageProxy______________63fec5dcf39091846000604051602001526040518363ffffffff167c0100000000000000000000000000000000000000000000000000000000028152600401808373ffffffffffffffffffffffffffffffffffffffff1673ffffffffffffffffffffffffffffffffffffffff1681526020018273ffffffffffffffffffffffffffffffffffffffff1673ffffffffffffffffffffffffffffffffffffffff1681526020019250505060206040518083038186803b151561166557600080fd5b6102c65a03f4151561167657600080fd5b505050604051805190509050919050565b6000600260003373ffffffffffffffffffffffffffffffffffffffff1673ffffffffffffffffffffffffffffffffffffffff16815260200190815260200160002060009054906101000a900460ff1615156116e157600080fd5b600660019054906101000a900473ffffffffffffffffffffffffffffffffffffffff1673ffffffffffffffffffffffffffffffffffffffff1673__CryptoDollarStorageProxy______________63a9033ead9091856040518363ffffffff167c0100000000000000000000000000000000000000000000000000000000028152600401808373ffffffffffffffffffffffffffffffffffffffff1673ffffffffffffffffffffffffffffffffffffffff1681526020018281526020019250505060006040518083038186803b15156117b957600080fd5b6102c65a03f415156117ca57600080fd5b505050600660019054906101000a900473ffffffffffffffffffffffffffffffffffffffff1673ffffffffffffffffffffffffffffffffffffffff1673__CryptoDollarStorageProxy______________6352fedefa909186866040518463ffffffff167c0100000000000000000000000000000000000000000000000000000000028152600401808473ffffffffffffffffffffffffffffffffffffffff1673ffffffffffffffffffffffffffffffffffffffff1681526020018373ffffffffffffffffffffffffffffffffffffffff1673ffffffffffffffffffffffffffffffffffffffff168152602001828152602001935050505060006040518083038186803b15156118d957600080fd5b6102c65a03f415156118ea57600080fd5b505050600660019054906101000a900473ffffffffffffffffffffffffffffffffffffffff1673ffffffffffffffffffffffffffffffffffffffff1673__CryptoDollarStorageProxy______________62e80682909186856040518463ffffffff167c0100000000000000000000000000000000000000000000000000000000028152600401808473ffffffffffffffffffffffffffffffffffffffff1673ffffffffffffffffffffffffffffffffffffffff1681526020018373ffffffffffffffffffffffffffffffffffffffff1673ffffffffffffffffffffffffffffffffffffffff168152602001828152602001935050505060006040518083038186803b15156119f857600080fd5b6102c65a03f41515611a0957600080fd5b505050600190509392505050565b600360009054906101000a900460ff1681565b6000600660019054906101000a900473ffffffffffffffffffffffffffffffffffffffff1673ffffffffffffffffffffffffffffffffffffffff1673__CryptoDollarStorageProxy______________63d4fac45d9091846000604051602001526040518363ffffffff167c0100000000000000000000000000000000000000000000000000000000028152600401808373ffffffffffffffffffffffffffffffffffffffff1673ffffffffffffffffffffffffffffffffffffffff1681526020018273ffffffffffffffffffffffffffffffffffffffff1673ffffffffffffffffffffffffffffffffffffffff1681526020019250505060206040518083038186803b1515611b3957600080fd5b6102c65a03f41515611b4a57600080fd5b505050604051805190509050919050565b611b636130b9565b6001805480602002602001604051908101604052809291908181526020018280548015611be557602002820191906000526020600020905b8160009054906101000a900473ffffffffffffffffffffffffffffffffffffffff1673ffffffffffffffffffffffffffffffffffffffff1681526020019060010190808311611b9b575b5050505050905090565b60008060009054906101000a900473ffffffffffffffffffffffffffffffffffffffff1673ffffffffffffffffffffffffffffffffffffffff163373ffffffffffffffffffffffffffffffffffffffff16141515611c4c57600080fd5b60003373ffffffffffffffffffffffffffffffffffffffff1614151515611c7257600080fd5b600360009054906101000a900460ff16151515611c8e57600080fd5b6000600260008473ffffffffffffffffffffffffffffffffffffffff1673ffffffffffffffffffffffffffffffffffffffff16815260200190815260200160002060006101000a81548160ff021916908315150217905550600090505b6001808054905003811015611e2b578173ffffffffffffffffffffffffffffffffffffffff16600182815481101515611d2057fe5b906000526020600020900160009054906101000a900473ffffffffffffffffffffffffffffffffffffffff1673ffffffffffffffffffffffffffffffffffffffff161415611e0657600180808054905003815481101515611d7d57fe5b906000526020600020900160009054906101000a900473ffffffffffffffffffffffffffffffffffffffff16600182815481101515611db857fe5b906000526020600020900160006101000a81548173ffffffffffffffffffffffffffffffffffffffff021916908373ffffffffffffffffffffffffffffffffffffffff160217905550611e2b565b60018081818054905003915081611e1d91906130cd565b508080600101915050611ceb565b5050565b6000809054906101000a900473ffffffffffffffffffffffffffffffffffffffff1681565b60058054600181600116156101000203166002900480601f016020809104026020016040519081016040528092919081815260200182805460018160011615610100020316600290048015611eea5780601f10611ebf57610100808354040283529160200191611eea565b820191906000526020600020905b815481529060010190602001808311611ecd57829003601f168201915b505050505081565b60008060009054906101000a900473ffffffffffffffffffffffffffffffffffffffff1673ffffffffffffffffffffffffffffffffffffffff163373ffffffffffffffffffffffffffffffffffffffff16141515611f4f57600080fd5b6001600360006101000a81548160ff0219169083151502179055506001905090565b600660019054906101000a900473ffffffffffffffffffffffffffffffffffffffff1681565b6000600260003373ffffffffffffffffffffffffffffffffffffffff1673ffffffffffffffffffffffffffffffffffffffff16815260200190815260200160002060009054906101000a900460ff161515611ff157600080fd5b600660019054906101000a900473ffffffffffffffffffffffffffffffffffffffff1673ffffffffffffffffffffffffffffffffffffffff1673__CryptoDollarStorageProxy______________63369f2cc99091856040518363ffffffff167c0100000000000000000000000000000000000000000000000000000000028152600401808373ffffffffffffffffffffffffffffffffffffffff1673ffffffffffffffffffffffffffffffffffffffff1681526020018281526020019250505060006040518083038186803b15156120c957600080fd5b6102c65a03f415156120da57600080fd5b505050600660019054906101000a900473ffffffffffffffffffffffffffffffffffffffff1673ffffffffffffffffffffffffffffffffffffffff1673__CryptoDollarStorageProxy______________632b15e857909186866040518463ffffffff167c0100000000000000000000000000000000000000000000000000000000028152600401808473ffffffffffffffffffffffffffffffffffffffff1673ffffffffffffffffffffffffffffffffffffffff1681526020018373ffffffffffffffffffffffffffffffffffffffff1673ffffffffffffffffffffffffffffffffffffffff168152602001828152602001935050505060006040518083038186803b15156121e957600080fd5b6102c65a03f415156121fa57600080fd5b505050600660019054906101000a900473ffffffffffffffffffffffffffffffffffffffff1673ffffffffffffffffffffffffffffffffffffffff1673__CryptoDollarStorageProxy______________6365537771909186856040518463ffffffff167c0100000000000000000000000000000000000000000000000000000000028152600401808473ffffffffffffffffffffffffffffffffffffffff1673ffffffffffffffffffffffffffffffffffffffff1681526020018373ffffffffffffffffffffffffffffffffffffffff1673ffffffffffffffffffffffffffffffffffffffff168152602001828152602001935050505060006040518083038186803b151561230957600080fd5b6102c65a03f4151561231a57600080fd5b505050600190509392505050565b600080600080600660019054906101000a900473ffffffffffffffffffffffffffffffffffffffff1673ffffffffffffffffffffffffffffffffffffffff1673__CryptoDollarStorageProxy______________63fec5dcf39091336000604051602001526040518363ffffffff167c0100000000000000000000000000000000000000000000000000000000028152600401808373ffffffffffffffffffffffffffffffffffffffff1673ffffffffffffffffffffffffffffffffffffffff1681526020018273ffffffffffffffffffffffffffffffffffffffff1673ffffffffffffffffffffffffffffffffffffffff1681526020019250505060206040518083038186803b151561243b57600080fd5b6102c65a03f4151561244c57600080fd5b505050604051805190509250600660019054906101000a900473ffffffffffffffffffffffffffffffffffffffff1673ffffffffffffffffffffffffffffffffffffffff1673__CryptoDollarStorageProxy______________63d4fac45d9091336000604051602001526040518363ffffffff167c0100000000000000000000000000000000000000000000000000000000028152600401808373ffffffffffffffffffffffffffffffffffffffff1673ffffffffffffffffffffffffffffffffffffffff1681526020018273ffffffffffffffffffffffffffffffffffffffff1673ffffffffffffffffffffffffffffffffffffffff1681526020019250505060206040518083038186803b151561256557600080fd5b6102c65a03f4151561257657600080fd5b5050506040518051905091506125a782612599878661306b90919063ffffffff16565b61309e90919063ffffffff16565b90508482101515156125b857600080fd5b600660019054906101000a900473ffffffffffffffffffffffffffffffffffffffff1673ffffffffffffffffffffffffffffffffffffffff1673__CryptoDollarStorageProxy______________6352fedefa909133886040518463ffffffff167c0100000000000000000000000000000000000000000000000000000000028152600401808473ffffffffffffffffffffffffffffffffffffffff1673ffffffffffffffffffffffffffffffffffffffff1681526020018373ffffffffffffffffffffffffffffffffffffffff1673ffffffffffffffffffffffffffffffffffffffff168152602001828152602001935050505060006040518083038186803b15156126c457600080fd5b6102c65a03f415156126d557600080fd5b505050600660019054906101000a900473ffffffffffffffffffffffffffffffffffffffff1673ffffffffffffffffffffffffffffffffffffffff1673__CryptoDollarStorageProxy______________632b15e857909188886040518463ffffffff167c0100000000000000000000000000000000000000000000000000000000028152600401808473ffffffffffffffffffffffffffffffffffffffff1673ffffffffffffffffffffffffffffffffffffffff1681526020018373ffffffffffffffffffffffffffffffffffffffff1673ffffffffffffffffffffffffffffffffffffffff168152602001828152602001935050505060006040518083038186803b15156127e457600080fd5b6102c65a03f415156127f557600080fd5b505050600660019054906101000a900473ffffffffffffffffffffffffffffffffffffffff1673ffffffffffffffffffffffffffffffffffffffff1673__CryptoDollarStorageProxy______________62e80682909133846040518463ffffffff167c0100000000000000000000000000000000000000000000000000000000028152600401808473ffffffffffffffffffffffffffffffffffffffff1673ffffffffffffffffffffffffffffffffffffffff1681526020018373ffffffffffffffffffffffffffffffffffffffff1673ffffffffffffffffffffffffffffffffffffffff168152602001828152602001935050505060006040518083038186803b151561290357600080fd5b6102c65a03f4151561291457600080fd5b505050600660019054906101000a900473ffffffffffffffffffffffffffffffffffffffff1673ffffffffffffffffffffffffffffffffffffffff1673__CryptoDollarStorageProxy______________6365537771909188846040518463ffffffff167c0100000000000000000000000000000000000000000000000000000000028152600401808473ffffffffffffffffffffffffffffffffffffffff1673ffffffffffffffffffffffffffffffffffffffff1681526020018373ffffffffffffffffffffffffffffffffffffffff1673ffffffffffffffffffffffffffffffffffffffff168152602001828152602001935050505060006040518083038186803b1515612a2357600080fd5b6102c65a03f41515612a3457600080fd5b5050506001935050505092915050565b60008060009054906101000a900473ffffffffffffffffffffffffffffffffffffffff1673ffffffffffffffffffffffffffffffffffffffff163373ffffffffffffffffffffffffffffffffffffffff16141515612aa157600080fd5b60003373ffffffffffffffffffffffffffffffffffffffff1614151515612ac757600080fd5b600360009054906101000a900460ff16151515612ae357600080fd5b600090505b600180549050811015612bce578273ffffffffffffffffffffffffffffffffffffffff16600182815481101515612b1b57fe5b906000526020600020900160009054906101000a900473ffffffffffffffffffffffffffffffffffffffff1673ffffffffffffffffffffffffffffffffffffffff161415612bc15781600182815481101515612b7357fe5b906000526020600020900160006101000a81548173ffffffffffffffffffffffffffffffffffffffff021916908373ffffffffffffffffffffffffffffffffffffffff160217905550612bce565b8080600101915050612ae8565b6000600260008573ffffffffffffffffffffffffffffffffffffffff1673ffffffffffffffffffffffffffffffffffffffff16815260200190815260200160002060006101000a81548160ff0219169083151502179055506001600260008473ffffffffffffffffffffffffffffffffffffffff1673ffffffffffffffffffffffffffffffffffffffff16815260200190815260200160002060006101000a81548160ff021916908315150217905550505050565b600060149054906101000a900460ff1681565b6000600660019054906101000a900473ffffffffffffffffffffffffffffffffffffffff1673ffffffffffffffffffffffffffffffffffffffff1673__CryptoDollarStorageProxy______________63e7092b41909185856000604051602001526040518463ffffffff167c0100000000000000000000000000000000000000000000000000000000028152600401808473ffffffffffffffffffffffffffffffffffffffff1673ffffffffffffffffffffffffffffffffffffffff1681526020018373ffffffffffffffffffffffffffffffffffffffff1673ffffffffffffffffffffffffffffffffffffffff1681526020018273ffffffffffffffffffffffffffffffffffffffff1673ffffffffffffffffffffffffffffffffffffffff168152602001935050505060206040518083038186803b1515612dd957600080fd5b6102c65a03f41515612dea57600080fd5b50505060405180519050905092915050565b6000809054906101000a900473ffffffffffffffffffffffffffffffffffffffff1673ffffffffffffffffffffffffffffffffffffffff163373ffffffffffffffffffffffffffffffffffffffff16141515612e5757600080fd5b60003373ffffffffffffffffffffffffffffffffffffffff1614151515612e7d57600080fd5b600360009054906101000a900460ff16151515612e9957600080fd5b6001600260008373ffffffffffffffffffffffffffffffffffffffff1673ffffffffffffffffffffffffffffffffffffffff16815260200190815260200160002060006101000a81548160ff02191690831515021790555060018054806001018281612f0591906130f9565b9160005260206000209001600083909190916101000a81548173ffffffffffffffffffffffffffffffffffffffff021916908373ffffffffffffffffffffffffffffffffffffffff1602179055505050565b6000809054906101000a900473ffffffffffffffffffffffffffffffffffffffff1673ffffffffffffffffffffffffffffffffffffffff163373ffffffffffffffffffffffffffffffffffffffff16141515612fb257600080fd5b60001515600060149054906101000a900460ff161515141515612fd157fe5b600073ffffffffffffffffffffffffffffffffffffffff168173ffffffffffffffffffffffffffffffffffffffff1614151561304857806000806101000a81548173ffffffffffffffffffffffffffffffffffffffff021916908373ffffffffffffffffffffffffffffffffffffffff1602179055505b50565b60026020528060005260406000206000915054906101000a900460ff1681565b6000808284029050600084148061308c575082848281151561308957fe5b04145b151561309457fe5b8091505092915050565b60008082848115156130ac57fe5b0490508091505092915050565b602060405190810160405280600081525090565b8154818355818115116130f4578183600052602060002091820191016130f39190613125565b5b505050565b8154818355818115116131205781836000526020600020918201910161311f9190613125565b5b505050565b61314791905b8082111561314357600081600090555060010161312b565b5090565b905600a165627a7a723058204c5f1015990f4d0853f4bcac0fc20f8b19dd517d1bed6436bc2aa7083306e49e0029",
  "source": "pragma solidity ^0.4.19;\n\nimport './interfaces/ERC20.sol';\nimport './libraries/SafeMath.sol';\nimport './utils/Ownable.sol';\nimport './utils/Secured.sol';\n\nimport './libraries/CryptoDollarStorageProxy.sol';\nimport './libraries/CryptoFiatStorageProxy.sol';\n\n\ncontract CryptoDollar is Secured {\n  using SafeMath for uint256;\n  using CryptoDollarStorageProxy for address;\n  using CryptoFiatStorageProxy for address;\n\n  string public name = \"CryptoDollar\";\n  string public symbol = \"CUSD\";\n  uint8 public decimals = 2;\n  address public store;\n\n  function CryptoDollar(address _storeAddress) public {\n    store = _storeAddress;\n  }\n\n  function() public payable {\n    revert();\n  }\n\n\n  /**\n  * Standard ERC20 transfer tokens function\n  * @param _to {address}\n  * @param _amount {uint256}\n  * @return success {bool}\n  */\n  function transfer(address _to, uint256 _amount) public returns (bool success) {\n    uint256 senderReservedEther = store.getReservedEther(msg.sender);\n    uint256 senderBalance = store.getBalance(msg.sender);\n    //TODO validate this is the appropriate and desired formula\n    uint256 etherValue = senderReservedEther.mul(_amount).div(senderBalance);\n\n    require(senderBalance >= _amount);\n\n    store.decrementBalance(msg.sender, _amount);\n    store.incrementBalance(_to, _amount);\n    store.decrementReservedEther(msg.sender, etherValue);\n    store.incrementReservedEther(_to, etherValue);\n    return true;\n  }\n\n  /**\n  * Standard ERC20 transferFrom function\n  * @param _from {address}\n  * @param _to {address}\n  * @param _amount {uint256}\n  * @return success {bool}\n  */\n  function transferFrom(address _from, address _to, uint256 _amount) public returns (bool success) {\n    uint256 senderReservedEther = store.getReservedEther(_from);\n    uint256 senderBalance = store.getBalance(_from);\n    uint256 etherValue = senderReservedEther.mul(_amount).div(senderBalance);\n\n    require(senderBalance >= _amount);\n\n    store.incrementBalance(_to, _amount);\n    store.decrementBalance(_from, _amount);\n    store.decrementReservedEther(_from, etherValue);\n    store.incrementReservedEther(_to, etherValue);\n    store.decrementAllowance(_from, _to, _amount);\n    return true;\n  }\n\n  /**\n  * Standard ERC20 approve function\n  * @param _spender {address}\n  * @param _amount {uint256}\n  * @return success {bool}\n  */\n  function approve(address _spender, uint256 _amount) public returns (bool success) {\n    store.setAllowance(msg.sender, _spender, _amount);\n    return true;\n  }\n\n  /**\n  * Standard ERC20 allowance function\n  * @param _owner {address}\n  * @param _spender {address}\n  * @return remaining {uint256}\n  */\n  function allowance(address _owner, address _spender) public constant returns (uint256) {\n    return store.getAllowance(_owner, _spender);\n  }\n\n\n  /**\n   @notice mints _amount tokens for _to and reserves _etherValue of ether\n   @param _to {address} - Address receiving CryptoDollar tokens\n   @param _amount {uint256} - Amount of minted CryptoDollar tokens\n   @param _etherValue {uint256} - Amount of ether that will be added to the receiver's reserved ether\n   @return {bool} - True if the transaction is completed successfully\n   */\n  function buy(address _to, uint256 _amount, uint256 _etherValue) public onlyAuthorized returns (bool) {\n    store.incrementTotalSupply(_amount);\n    store.incrementBalance(_to, _amount);\n    store.incrementReservedEther(_to, _etherValue);\n    return true;\n  }\n\n  /**\n   @notice burns _amount tokens and removes _etherValue of ether for _to\n   @param _to {address} - Address receiving CryptoDollar tokens\n   @param _amount {uint256} - Amount of minted CryptoDollar tokens\n   @param _etherValue {uint256} - Amount of ether that will be removed from the receiver's reserved ether\n   @return True if the transaction is completed successfully\n   */\n  function sell(address _to, uint256 _amount, uint256 _etherValue) public onlyAuthorized returns (bool) {\n    store.decrementTotalSupply(_amount);\n    store.decrementBalance(_to, _amount);\n    store.decrementReservedEther(_to, _etherValue);\n    return true;\n  }\n\n  /**\n   @notice Returns the cryptodollar total supply via the storage contract\n   @return CryptoDollar {uint256} - Total supply\n   */\n  function totalSupply() public view returns (uint256) {\n    return store.getTotalSupply();\n  }\n\n  /**\n  @notice Returns _owner CryptoDollar token balance via the storage contract\n  @param _owner {address} - Address of CryptoDollar token owner\n  @return CryptoDollar {uint256} tokens balance of _owner\n   */\n  function balanceOf(address _owner) public constant returns(uint256 balance) {\n    return store.getBalance(_owner);\n  }\n\n  /**\n  @notice Returns _owner Reserved ether balance by calling the storage contract\n  @param _owner {address} - Address of CryptoDollar token owner\n  @return {uint256} - Ether value reserved for _owner\n   */\n  function reservedEther(address _owner) public constant returns(uint256 value) {\n    return store.getReservedEther(_owner);\n  }\n\n}",
  "sourcePath": "/Users/davidvanisacker/Programming/Ethereum/Proofsuite/ProofCryptoFiat2/contracts/CryptoDollar.sol",
  "compiler": {
    "name": "solc",
    "version": "0.4.19+commit.c4cbbb05.Emscripten.clang"
  },
  "schemaVersion": "2.0.0",
  "updatedAt": "2018-06-13T03:05:40.945Z"
}