{
  "contractName": "CryptoDollarStorageProxy",
  "abi": [
    {
      "constant": true,
      "inputs": [
        {
          "name": "_store",
          "type": "address"
        },
        {
          "name": "_owner",
          "type": "address"
        }
      ],
      "name": "getBalance",
      "outputs": [
        {
          "name": "",
          "type": "uint256"
        }
      ],
      "payable": false,
      "stateMutability": "view",
      "type": "function"
    },
    {
      "constant": true,
      "inputs": [
        {
          "name": "_store",
          "type": "address"
        },
        {
          "name": "_owner",
          "type": "address"
        }
      ],
      "name": "getReservedEther",
      "outputs": [
        {
          "name": "",
          "type": "uint256"
        }
      ],
      "payable": false,
      "stateMutability": "view",
      "type": "function"
    },
    {
      "constant": true,
      "inputs": [
        {
          "name": "_store",
          "type": "address"
        },
        {
          "name": "_from",
          "type": "address"
        },
        {
          "name": "_to",
          "type": "address"
        }
      ],
      "name": "getAllowance",
      "outputs": [
        {
          "name": "",
          "type": "uint256"
        }
      ],
      "payable": false,
      "stateMutability": "view",
      "type": "function"
    },
    {
      "constant": true,
      "inputs": [
        {
          "name": "_store",
          "type": "address"
        }
      ],
      "name": "getTotalSupply",
      "outputs": [
        {
          "name": "",
          "type": "uint256"
        }
      ],
      "payable": false,
      "stateMutability": "view",
      "type": "function"
    },
    {
      "constant": false,
      "inputs": [
        {
          "name": "_store",
          "type": "address"
        },
        {
          "name": "_owner",
          "type": "address"
        },
        {
          "name": "_value",
          "type": "uint256"
        }
      ],
      "name": "setBalance",
      "outputs": [],
      "payable": false,
      "stateMutability": "nonpayable",
      "type": "function"
    },
    {
      "constant": false,
      "inputs": [
        {
          "name": "_store",
          "type": "address"
        },
        {
          "name": "_owner",
          "type": "address"
        },
        {
          "name": "_value",
          "type": "uint256"
        }
      ],
      "name": "setReservedEther",
      "outputs": [],
      "payable": false,
      "stateMutability": "nonpayable",
      "type": "function"
    },
    {
      "constant": false,
      "inputs": [
        {
          "name": "_store",
          "type": "address"
        },
        {
          "name": "_from",
          "type": "address"
        },
        {
          "name": "_to",
          "type": "address"
        },
        {
          "name": "_value",
          "type": "uint256"
        }
      ],
      "name": "setAllowance",
      "outputs": [],
      "payable": false,
      "stateMutability": "nonpayable",
      "type": "function"
    },
    {
      "constant": false,
      "inputs": [
        {
          "name": "_store",
          "type": "address"
        },
        {
          "name": "_value",
          "type": "uint256"
        }
      ],
      "name": "setTotalSupply",
      "outputs": [],
      "payable": false,
      "stateMutability": "nonpayable",
      "type": "function"
    },
    {
      "constant": false,
      "inputs": [
        {
          "name": "_store",
          "type": "address"
        },
        {
          "name": "_owner",
          "type": "address"
        },
        {
          "name": "_value",
          "type": "uint256"
        }
      ],
      "name": "incrementBalance",
      "outputs": [],
      "payable": false,
      "stateMutability": "nonpayable",
      "type": "function"
    },
    {
      "constant": false,
      "inputs": [
        {
          "name": "_store",
          "type": "address"
        },
        {
          "name": "_owner",
          "type": "address"
        },
        {
          "name": "_value",
          "type": "uint256"
        }
      ],
      "name": "decrementBalance",
      "outputs": [],
      "payable": false,
      "stateMutability": "nonpayable",
      "type": "function"
    },
    {
      "constant": false,
      "inputs": [
        {
          "name": "_store",
          "type": "address"
        },
        {
          "name": "_value",
          "type": "uint256"
        }
      ],
      "name": "incrementTotalSupply",
      "outputs": [],
      "payable": false,
      "stateMutability": "nonpayable",
      "type": "function"
    },
    {
      "constant": false,
      "inputs": [
        {
          "name": "_store",
          "type": "address"
        },
        {
          "name": "_value",
          "type": "uint256"
        }
      ],
      "name": "decrementTotalSupply",
      "outputs": [],
      "payable": false,
      "stateMutability": "nonpayable",
      "type": "function"
    },
    {
      "constant": false,
      "inputs": [
        {
          "name": "_store",
          "type": "address"
        },
        {
          "name": "_owner",
          "type": "address"
        },
        {
          "name": "_value",
          "type": "uint256"
        }
      ],
      "name": "incrementReservedEther",
      "outputs": [],
      "payable": false,
      "stateMutability": "nonpayable",
      "type": "function"
    },
    {
      "constant": false,
      "inputs": [
        {
          "name": "_store",
          "type": "address"
        },
        {
          "name": "_owner",
          "type": "address"
        },
        {
          "name": "_value",
          "type": "uint256"
        }
      ],
      "name": "decrementReservedEther",
      "outputs": [],
      "payable": false,
      "stateMutability": "nonpayable",
      "type": "function"
    },
    {
      "constant": false,
      "inputs": [
        {
          "name": "_store",
          "type": "address"
        },
        {
          "name": "_from",
          "type": "address"
        },
        {
          "name": "_to",
          "type": "address"
        },
        {
          "name": "_value",
          "type": "uint256"
        }
      ],
      "name": "incrementAllowance",
      "outputs": [],
      "payable": false,
      "stateMutability": "nonpayable",
      "type": "function"
    },
    {
      "constant": false,
      "inputs": [
        {
          "name": "_store",
          "type": "address"
        },
        {
          "name": "_from",
          "type": "address"
        },
        {
          "name": "_to",
          "type": "address"
        },
        {
          "name": "_value",
          "type": "uint256"
        }
      ],
      "name": "decrementAllowance",
      "outputs": [],
      "payable": false,
      "stateMutability": "nonpayable",
      "type": "function"
    }
  ],
  "bytecode": "0x6060604052341561000f57600080fd5b6121458061001e6000396000f3006060604052600436106100e5576000357c0100000000000000000000000000000000000000000000000000000000900463ffffffff168062e80682146100ea5780632b15e85714610140578063369f2cc91461019657806352fedefa146101cd5780635e56254e14610223578063655377711461029857806368da10ae146102ee5780636bc2b4431461033057806379ba7f39146103a5578063a7070373146103dc578063a9033ead14610451578063b2ac626414610488578063b5c9cbbe146104de578063d4fac45d14610534578063e7092b4114610595578063fec5dcf314610615575b600080fd5b61013e600480803573ffffffffffffffffffffffffffffffffffffffff1690602001909190803573ffffffffffffffffffffffffffffffffffffffff16906020019091908035906020019091905050610676565b005b610194600480803573ffffffffffffffffffffffffffffffffffffffff1690602001909190803573ffffffffffffffffffffffffffffffffffffffff169060200190919080359060200190919050506108ae565b005b6101cb600480803573ffffffffffffffffffffffffffffffffffffffff16906020019091908035906020019091905050610ae6565b005b610221600480803573ffffffffffffffffffffffffffffffffffffffff1690602001909190803573ffffffffffffffffffffffffffffffffffffffff16906020019091908035906020019091905050610c97565b005b610296600480803573ffffffffffffffffffffffffffffffffffffffff1690602001909190803573ffffffffffffffffffffffffffffffffffffffff1690602001909190803573ffffffffffffffffffffffffffffffffffffffff16906020019091908035906020019091905050610ecf565b005b6102ec600480803573ffffffffffffffffffffffffffffffffffffffff1690602001909190803573ffffffffffffffffffffffffffffffffffffffff1690602001909190803590602001909190505061118e565b005b61031a600480803573ffffffffffffffffffffffffffffffffffffffff169060200190919050506113c6565b6040518082815260200191505060405180910390f35b6103a3600480803573ffffffffffffffffffffffffffffffffffffffff1690602001909190803573ffffffffffffffffffffffffffffffffffffffff1690602001909190803573ffffffffffffffffffffffffffffffffffffffff1690602001909190803590602001909190505061149e565b005b6103da600480803573ffffffffffffffffffffffffffffffffffffffff1690602001909190803590602001909190505061175d565b005b61044f600480803573ffffffffffffffffffffffffffffffffffffffff1690602001909190803573ffffffffffffffffffffffffffffffffffffffff1690602001909190803573ffffffffffffffffffffffffffffffffffffffff16906020019091908035906020019091905050611828565b005b610486600480803573ffffffffffffffffffffffffffffffffffffffff1690602001909190803590602001909190505061197b565b005b6104dc600480803573ffffffffffffffffffffffffffffffffffffffff1690602001909190803573ffffffffffffffffffffffffffffffffffffffff16906020019091908035906020019091905050611b2c565b005b610532600480803573ffffffffffffffffffffffffffffffffffffffff1690602001909190803573ffffffffffffffffffffffffffffffffffffffff16906020019091908035906020019091905050611c3b565b005b61057f600480803573ffffffffffffffffffffffffffffffffffffffff1690602001909190803573ffffffffffffffffffffffffffffffffffffffff16906020019091905050611d4a565b6040518082815260200191505060405180910390f35b6105ff600480803573ffffffffffffffffffffffffffffffffffffffff1690602001909190803573ffffffffffffffffffffffffffffffffffffffff1690602001909190803573ffffffffffffffffffffffffffffffffffffffff16906020019091905050611e66565b6040518082815260200191505060405180910390f35b610660600480803573ffffffffffffffffffffffffffffffffffffffff1690602001909190803573ffffffffffffffffffffffffffffffffffffffff16906020019091905050611fc6565b6040518082815260200191505060405180910390f35b60008373ffffffffffffffffffffffffffffffffffffffff1663bd02d0f58460405180807f63727970746f446f6c6c61722e72657365727665644574686572000000000000815250601a018273ffffffffffffffffffffffffffffffffffffffff1673ffffffffffffffffffffffffffffffffffffffff166c0100000000000000000000000002815260140191505060405180910390206000604051602001526040518263ffffffff167c0100000000000000000000000000000000000000000000000000000000028152600401808260001916600019168152602001915050602060405180830381600087803b151561076f57600080fd5b6102c65a03f1151561078057600080fd5b5050506040518051905090508373ffffffffffffffffffffffffffffffffffffffff1663e2a4853a8460405180807f63727970746f446f6c6c61722e72657365727665644574686572000000000000815250601a018273ffffffffffffffffffffffffffffffffffffffff1673ffffffffffffffffffffffffffffffffffffffff166c01000000000000000000000000028152601401915050604051809103902061083485856120e290919063ffffffff16565b6040518363ffffffff167c010000000000000000000000000000000000000000000000000000000002815260040180836000191660001916815260200182815260200192505050600060405180830381600087803b151561089457600080fd5b6102c65a03f115156108a557600080fd5b50505050505050565b60008373ffffffffffffffffffffffffffffffffffffffff1663bd02d0f58460405180807f63727970746f446f6c6c61722e62616c616e63657300000000000000000000008152506015018273ffffffffffffffffffffffffffffffffffffffff1673ffffffffffffffffffffffffffffffffffffffff166c0100000000000000000000000002815260140191505060405180910390206000604051602001526040518263ffffffff167c0100000000000000000000000000000000000000000000000000000000028152600401808260001916600019168152602001915050602060405180830381600087803b15156109a757600080fd5b6102c65a03f115156109b857600080fd5b5050506040518051905090508373ffffffffffffffffffffffffffffffffffffffff1663e2a4853a8460405180807f63727970746f446f6c6c61722e62616c616e63657300000000000000000000008152506015018273ffffffffffffffffffffffffffffffffffffffff1673ffffffffffffffffffffffffffffffffffffffff166c010000000000000000000000000281526014019150506040518091039020610a6c85856120fb90919063ffffffff16565b6040518363ffffffff167c010000000000000000000000000000000000000000000000000000000002815260040180836000191660001916815260200182815260200192505050600060405180830381600087803b1515610acc57600080fd5b6102c65a03f11515610add57600080fd5b50505050505050565b60008273ffffffffffffffffffffffffffffffffffffffff1663bd02d0f560405180807f63727970746f446f6c6c61722e746f74616c537570706c790000000000000000815250601801905060405180910390206000604051602001526040518263ffffffff167c0100000000000000000000000000000000000000000000000000000000028152600401808260001916600019168152602001915050602060405180830381600087803b1515610b9c57600080fd5b6102c65a03f11515610bad57600080fd5b5050506040518051905090508273ffffffffffffffffffffffffffffffffffffffff1663e2a4853a60405180807f63727970746f446f6c6c61722e746f74616c537570706c79000000000000000081525060180190506040518091039020610c1e85856120fb90919063ffffffff16565b6040518363ffffffff167c010000000000000000000000000000000000000000000000000000000002815260040180836000191660001916815260200182815260200192505050600060405180830381600087803b1515610c7e57600080fd5b6102c65a03f11515610c8f57600080fd5b505050505050565b60008373ffffffffffffffffffffffffffffffffffffffff1663bd02d0f58460405180807f63727970746f446f6c6c61722e62616c616e63657300000000000000000000008152506015018273ffffffffffffffffffffffffffffffffffffffff1673ffffffffffffffffffffffffffffffffffffffff166c0100000000000000000000000002815260140191505060405180910390206000604051602001526040518263ffffffff167c0100000000000000000000000000000000000000000000000000000000028152600401808260001916600019168152602001915050602060405180830381600087803b1515610d9057600080fd5b6102c65a03f11515610da157600080fd5b5050506040518051905090508373ffffffffffffffffffffffffffffffffffffffff1663e2a4853a8460405180807f63727970746f446f6c6c61722e62616c616e63657300000000000000000000008152506015018273ffffffffffffffffffffffffffffffffffffffff1673ffffffffffffffffffffffffffffffffffffffff166c010000000000000000000000000281526014019150506040518091039020610e5585856120e290919063ffffffff16565b6040518363ffffffff167c010000000000000000000000000000000000000000000000000000000002815260040180836000191660001916815260200182815260200192505050600060405180830381600087803b1515610eb557600080fd5b6102c65a03f11515610ec657600080fd5b50505050505050565b60008473ffffffffffffffffffffffffffffffffffffffff1663bd02d0f5858560405180807f63727970746f446f6c6c61722e616c6c6f7765640000000000000000000000008152506014018373ffffffffffffffffffffffffffffffffffffffff1673ffffffffffffffffffffffffffffffffffffffff166c010000000000000000000000000281526014018273ffffffffffffffffffffffffffffffffffffffff1673ffffffffffffffffffffffffffffffffffffffff166c010000000000000000000000000281526014019250505060405180910390206000604051602001526040518263ffffffff167c0100000000000000000000000000000000000000000000000000000000028152600401808260001916600019168152602001915050602060405180830381600087803b151561100b57600080fd5b6102c65a03f1151561101c57600080fd5b5050506040518051905090508473ffffffffffffffffffffffffffffffffffffffff1663e2a4853a858560405180807f63727970746f446f6c6c61722e616c6c6f7765640000000000000000000000008152506014018373ffffffffffffffffffffffffffffffffffffffff1673ffffffffffffffffffffffffffffffffffffffff166c010000000000000000000000000281526014018273ffffffffffffffffffffffffffffffffffffffff1673ffffffffffffffffffffffffffffffffffffffff166c0100000000000000000000000002815260140192505050604051809103902061111385856120fb90919063ffffffff16565b6040518363ffffffff167c010000000000000000000000000000000000000000000000000000000002815260040180836000191660001916815260200182815260200192505050600060405180830381600087803b151561117357600080fd5b6102c65a03f1151561118457600080fd5b5050505050505050565b60008373ffffffffffffffffffffffffffffffffffffffff1663bd02d0f58460405180807f63727970746f446f6c6c61722e72657365727665644574686572000000000000815250601a018273ffffffffffffffffffffffffffffffffffffffff1673ffffffffffffffffffffffffffffffffffffffff166c0100000000000000000000000002815260140191505060405180910390206000604051602001526040518263ffffffff167c0100000000000000000000000000000000000000000000000000000000028152600401808260001916600019168152602001915050602060405180830381600087803b151561128757600080fd5b6102c65a03f1151561129857600080fd5b5050506040518051905090508373ffffffffffffffffffffffffffffffffffffffff1663e2a4853a8460405180807f63727970746f446f6c6c61722e72657365727665644574686572000000000000815250601a018273ffffffffffffffffffffffffffffffffffffffff1673ffffffffffffffffffffffffffffffffffffffff166c01000000000000000000000000028152601401915050604051809103902061134c85856120fb90919063ffffffff16565b6040518363ffffffff167c010000000000000000000000000000000000000000000000000000000002815260040180836000191660001916815260200182815260200192505050600060405180830381600087803b15156113ac57600080fd5b6102c65a03f115156113bd57600080fd5b50505050505050565b60008173ffffffffffffffffffffffffffffffffffffffff1663bd02d0f560405180807f63727970746f446f6c6c61722e746f74616c537570706c790000000000000000815250601801905060405180910390206000604051602001526040518263ffffffff167c0100000000000000000000000000000000000000000000000000000000028152600401808260001916600019168152602001915050602060405180830381600087803b151561147c57600080fd5b6102c65a03f1151561148d57600080fd5b505050604051805190509050919050565b60008473ffffffffffffffffffffffffffffffffffffffff1663bd02d0f5858560405180807f63727970746f446f6c6c61722e616c6c6f7765640000000000000000000000008152506014018373ffffffffffffffffffffffffffffffffffffffff1673ffffffffffffffffffffffffffffffffffffffff166c010000000000000000000000000281526014018273ffffffffffffffffffffffffffffffffffffffff1673ffffffffffffffffffffffffffffffffffffffff166c010000000000000000000000000281526014019250505060405180910390206000604051602001526040518263ffffffff167c0100000000000000000000000000000000000000000000000000000000028152600401808260001916600019168152602001915050602060405180830381600087803b15156115da57600080fd5b6102c65a03f115156115eb57600080fd5b5050506040518051905090508473ffffffffffffffffffffffffffffffffffffffff1663e2a4853a858560405180807f63727970746f446f6c6c61722e616c6c6f7765640000000000000000000000008152506014018373ffffffffffffffffffffffffffffffffffffffff1673ffffffffffffffffffffffffffffffffffffffff166c010000000000000000000000000281526014018273ffffffffffffffffffffffffffffffffffffffff1673ffffffffffffffffffffffffffffffffffffffff166c010000000000000000000000000281526014019250505060405180910390206116e285856120e290919063ffffffff16565b6040518363ffffffff167c010000000000000000000000000000000000000000000000000000000002815260040180836000191660001916815260200182815260200192505050600060405180830381600087803b151561174257600080fd5b6102c65a03f1151561175357600080fd5b5050505050505050565b8173ffffffffffffffffffffffffffffffffffffffff1663e2a4853a60405180807f63727970746f446f6c6c61722e746f74616c537570706c79000000000000000081525060180190506040518091039020836040518363ffffffff167c010000000000000000000000000000000000000000000000000000000002815260040180836000191660001916815260200182815260200192505050600060405180830381600087803b151561181057600080fd5b6102c65a03f1151561182157600080fd5b5050505050565b8373ffffffffffffffffffffffffffffffffffffffff1663e2a4853a848460405180807f63727970746f446f6c6c61722e616c6c6f7765640000000000000000000000008152506014018373ffffffffffffffffffffffffffffffffffffffff1673ffffffffffffffffffffffffffffffffffffffff166c010000000000000000000000000281526014018273ffffffffffffffffffffffffffffffffffffffff1673ffffffffffffffffffffffffffffffffffffffff166c01000000000000000000000000028152601401925050506040518091039020836040518363ffffffff167c010000000000000000000000000000000000000000000000000000000002815260040180836000191660001916815260200182815260200192505050600060405180830381600087803b151561196157600080fd5b6102c65a03f1151561197257600080fd5b50505050505050565b60008273ffffffffffffffffffffffffffffffffffffffff1663bd02d0f560405180807f63727970746f446f6c6c61722e746f74616c537570706c790000000000000000815250601801905060405180910390206000604051602001526040518263ffffffff167c0100000000000000000000000000000000000000000000000000000000028152600401808260001916600019168152602001915050602060405180830381600087803b1515611a3157600080fd5b6102c65a03f11515611a4257600080fd5b5050506040518051905090508273ffffffffffffffffffffffffffffffffffffffff1663e2a4853a60405180807f63727970746f446f6c6c61722e746f74616c537570706c79000000000000000081525060180190506040518091039020611ab385856120e290919063ffffffff16565b6040518363ffffffff167c010000000000000000000000000000000000000000000000000000000002815260040180836000191660001916815260200182815260200192505050600060405180830381600087803b1515611b1357600080fd5b6102c65a03f11515611b2457600080fd5b505050505050565b8273ffffffffffffffffffffffffffffffffffffffff1663e2a4853a8360405180807f63727970746f446f6c6c61722e72657365727665644574686572000000000000815250601a018273ffffffffffffffffffffffffffffffffffffffff1673ffffffffffffffffffffffffffffffffffffffff166c010000000000000000000000000281526014019150506040518091039020836040518363ffffffff167c010000000000000000000000000000000000000000000000000000000002815260040180836000191660001916815260200182815260200192505050600060405180830381600087803b1515611c2257600080fd5b6102c65a03f11515611c3357600080fd5b505050505050565b8273ffffffffffffffffffffffffffffffffffffffff1663e2a4853a8360405180807f63727970746f446f6c6c61722e62616c616e63657300000000000000000000008152506015018273ffffffffffffffffffffffffffffffffffffffff1673ffffffffffffffffffffffffffffffffffffffff166c010000000000000000000000000281526014019150506040518091039020836040518363ffffffff167c010000000000000000000000000000000000000000000000000000000002815260040180836000191660001916815260200182815260200192505050600060405180830381600087803b1515611d3157600080fd5b6102c65a03f11515611d4257600080fd5b505050505050565b60008273ffffffffffffffffffffffffffffffffffffffff1663bd02d0f58360405180807f63727970746f446f6c6c61722e62616c616e63657300000000000000000000008152506015018273ffffffffffffffffffffffffffffffffffffffff1673ffffffffffffffffffffffffffffffffffffffff166c0100000000000000000000000002815260140191505060405180910390206000604051602001526040518263ffffffff167c0100000000000000000000000000000000000000000000000000000000028152600401808260001916600019168152602001915050602060405180830381600087803b1515611e4357600080fd5b6102c65a03f11515611e5457600080fd5b50505060405180519050905092915050565b60008373ffffffffffffffffffffffffffffffffffffffff1663bd02d0f5848460405180807f63727970746f446f6c6c61722e616c6c6f7765640000000000000000000000008152506014018373ffffffffffffffffffffffffffffffffffffffff1673ffffffffffffffffffffffffffffffffffffffff166c010000000000000000000000000281526014018273ffffffffffffffffffffffffffffffffffffffff1673ffffffffffffffffffffffffffffffffffffffff166c010000000000000000000000000281526014019250505060405180910390206000604051602001526040518263ffffffff167c0100000000000000000000000000000000000000000000000000000000028152600401808260001916600019168152602001915050602060405180830381600087803b1515611fa257600080fd5b6102c65a03f11515611fb357600080fd5b5050506040518051905090509392505050565b60008273ffffffffffffffffffffffffffffffffffffffff1663bd02d0f58360405180807f63727970746f446f6c6c61722e72657365727665644574686572000000000000815250601a018273ffffffffffffffffffffffffffffffffffffffff1673ffffffffffffffffffffffffffffffffffffffff166c0100000000000000000000000002815260140191505060405180910390206000604051602001526040518263ffffffff167c0100000000000000000000000000000000000000000000000000000000028152600401808260001916600019168152602001915050602060405180830381600087803b15156120bf57600080fd5b6102c65a03f115156120d057600080fd5b50505060405180519050905092915050565b60008282111515156120f057fe5b818303905092915050565b600080828401905083811015151561210f57fe5b80915050929150505600a165627a7a72305820a77fac909cf1746a06dc9a1ee6cd10414360d6b71edfa319658c02a9823dd37b0029",
  "source": "pragma solidity ^0.4.19;\n\nimport \"../interfaces/StoreInterface.sol\";\nimport \"../utils/Ownable.sol\";\nimport './SafeMath.sol';\n\nlibrary CryptoDollarStorageProxy {\n\n    using SafeMath for uint256;\n\n    modifier onlyContractManager {\n        _;\n    }\n\n\n    //getters\n    function getBalance(address _store, address _owner) public view returns(uint256) {\n        return StoreInterface(_store).getUint(keccak256(\"cryptoDollar.balances\", _owner));\n    }\n\n    function getReservedEther(address _store, address _owner) public view returns(uint256) {\n        return StoreInterface(_store).getUint(keccak256(\"cryptoDollar.reservedEther\", _owner));\n    }\n\n    function getAllowance(address _store, address _from, address _to) public view returns(uint256) {\n        return StoreInterface(_store).getUint(keccak256(\"cryptoDollar.allowed\", _from, _to));\n    }\n\n    function getTotalSupply(address _store) public view returns(uint256) {\n        return StoreInterface(_store).getUint(keccak256(\"cryptoDollar.totalSupply\"));\n    }\n\n\n\n    //setters\n    function setBalance(address _store, address _owner, uint _value) public onlyContractManager {\n        return StoreInterface(_store).setUint(keccak256(\"cryptoDollar.balances\", _owner), _value);\n    }\n\n    function setReservedEther(address _store, address _owner, uint _value) public onlyContractManager {\n        return StoreInterface(_store).setUint(keccak256(\"cryptoDollar.reservedEther\", _owner), _value);\n    }\n\n    function setAllowance(address _store, address _from, address _to, uint _value) public onlyContractManager {\n        return StoreInterface(_store).setUint(keccak256(\"cryptoDollar.allowed\", _from, _to), _value);\n    }\n\n    function setTotalSupply(address _store, uint _value) public onlyContractManager {\n        return StoreInterface(_store).setUint(keccak256(\"cryptoDollar.totalSupply\"), _value);\n    }\n\n\n\n    //helpers\n    function incrementBalance(address _store, address _owner, uint _value) public {\n        uint256 balance = StoreInterface(_store).getUint(keccak256(\"cryptoDollar.balances\", _owner));\n        StoreInterface(_store).setUint(keccak256(\"cryptoDollar.balances\", _owner), balance.add(_value));\n    }\n\n    function decrementBalance(address _store, address _owner, uint _value) public {\n        uint256 balance = StoreInterface(_store).getUint(keccak256(\"cryptoDollar.balances\", _owner));\n        StoreInterface(_store).setUint(keccak256(\"cryptoDollar.balances\", _owner), balance.sub(_value));\n    }\n\n    function incrementTotalSupply(address _store, uint _value) public {\n        uint256 balance = StoreInterface(_store).getUint(keccak256(\"cryptoDollar.totalSupply\"));\n        StoreInterface(_store).setUint(keccak256(\"cryptoDollar.totalSupply\"), balance.add(_value));\n    }\n\n    function decrementTotalSupply(address _store, uint _value) public {\n        uint256 balance = StoreInterface(_store).getUint(keccak256(\"cryptoDollar.totalSupply\"));\n        StoreInterface(_store).setUint(keccak256(\"cryptoDollar.totalSupply\"), balance.sub(_value));\n    }\n\n    function incrementReservedEther(address _store, address _owner, uint _value) public {\n        uint256 balance = StoreInterface(_store).getUint(keccak256(\"cryptoDollar.reservedEther\", _owner));\n        StoreInterface(_store).setUint(keccak256(\"cryptoDollar.reservedEther\", _owner), balance.add(_value));\n    }\n\n    function decrementReservedEther(address _store, address _owner, uint _value) public {\n        uint256 balance = StoreInterface(_store).getUint(keccak256(\"cryptoDollar.reservedEther\", _owner));\n        StoreInterface(_store).setUint(keccak256(\"cryptoDollar.reservedEther\", _owner), balance.sub(_value));\n    }\n\n    function incrementAllowance(address _store, address _from, address _to, uint _value) public {\n        uint256 balance = StoreInterface(_store).getUint(keccak256(\"cryptoDollar.allowed\", _from, _to));\n        StoreInterface(_store).setUint(keccak256(\"cryptoDollar.allowed\", _from, _to), balance.add(_value));\n    }\n\n    function decrementAllowance(address _store, address _from, address _to, uint _value) public {\n        uint256 balance = StoreInterface(_store).getUint(keccak256(\"cryptoDollar.allowed\", _from, _to));\n        StoreInterface(_store).setUint(keccak256(\"cryptoDollar.allowed\", _from, _to), balance.sub(_value));\n    }\n\n\n}",
  "sourcePath": "/Users/davidvanisacker/Programming/Ethereum/Proofsuite/ProofCryptoFiat2/contracts/libraries/CryptoDollarStorageProxy.sol",
  "compiler": {
    "name": "solc",
    "version": "0.4.19+commit.c4cbbb05.Emscripten.clang"
  },
  "schemaVersion": "2.0.0",
  "updatedAt": "2018-06-13T03:05:40.936Z"
}