{
  "contractName": "CryptoFiatStorageProxy",
  "abi": [
    {
      "constant": true,
      "inputs": [
        {
          "name": "_store",
          "type": "address"
        }
      ],
      "name": "getCreationTimestamp",
      "outputs": [
        {
          "name": "",
          "type": "uint256"
        }
      ],
      "payable": false,
      "stateMutability": "view",
      "type": "function"
    },
    {
      "constant": true,
      "inputs": [
        {
          "name": "_store",
          "type": "address"
        }
      ],
      "name": "getCreationBlockNumber",
      "outputs": [
        {
          "name": "",
          "type": "uint256"
        }
      ],
      "payable": false,
      "stateMutability": "view",
      "type": "function"
    },
    {
      "constant": false,
      "inputs": [
        {
          "name": "_store",
          "type": "address"
        },
        {
          "name": "_value",
          "type": "uint256"
        }
      ],
      "name": "setCreationTimestamp",
      "outputs": [],
      "payable": false,
      "stateMutability": "nonpayable",
      "type": "function"
    },
    {
      "constant": false,
      "inputs": [
        {
          "name": "_store",
          "type": "address"
        },
        {
          "name": "_value",
          "type": "uint256"
        }
      ],
      "name": "setCreationBlockNumber",
      "outputs": [],
      "payable": false,
      "stateMutability": "nonpayable",
      "type": "function"
    }
  ],
  "bytecode": "0x6060604052341561000f57600080fd5b6104cb8061001e6000396000f300606060405260043610610062576000357c0100000000000000000000000000000000000000000000000000000000900463ffffffff168063083c7379146100675780637dda41071461009e578063a5b4778b146100e0578063e5090d7114610117575b600080fd5b61009c600480803573ffffffffffffffffffffffffffffffffffffffff16906020019091908035906020019091905050610159565b005b6100ca600480803573ffffffffffffffffffffffffffffffffffffffff16906020019091905050610224565b6040518082815260200191505060405180910390f35b610115600480803573ffffffffffffffffffffffffffffffffffffffff169060200190919080359060200190919050506102fc565b005b610143600480803573ffffffffffffffffffffffffffffffffffffffff169060200190919050506103c7565b6040518082815260200191505060405180910390f35b8173ffffffffffffffffffffffffffffffffffffffff1663e2a4853a60405180807f63727970746f666961742e6372656174696f6e426c6f636b4e756d6265720000815250601e0190506040518091039020836040518363ffffffff167c010000000000000000000000000000000000000000000000000000000002815260040180836000191660001916815260200182815260200192505050600060405180830381600087803b151561020c57600080fd5b6102c65a03f1151561021d57600080fd5b5050505050565b60008173ffffffffffffffffffffffffffffffffffffffff1663bd02d0f560405180807f63727970746f666961742e6372656174696f6e426c6f636b4e756d6265720000815250601e01905060405180910390206000604051602001526040518263ffffffff167c0100000000000000000000000000000000000000000000000000000000028152600401808260001916600019168152602001915050602060405180830381600087803b15156102da57600080fd5b6102c65a03f115156102eb57600080fd5b505050604051805190509050919050565b8173ffffffffffffffffffffffffffffffffffffffff1663e2a4853a60405180807f63727970746f666961742e6372656174696f6e54696d657374616d7000000000815250601c0190506040518091039020836040518363ffffffff167c010000000000000000000000000000000000000000000000000000000002815260040180836000191660001916815260200182815260200192505050600060405180830381600087803b15156103af57600080fd5b6102c65a03f115156103c057600080fd5b5050505050565b60008173ffffffffffffffffffffffffffffffffffffffff1663bd02d0f560405180807f63727970746f666961742e6372656174696f6e54696d657374616d7000000000815250601c01905060405180910390206000604051602001526040518263ffffffff167c0100000000000000000000000000000000000000000000000000000000028152600401808260001916600019168152602001915050602060405180830381600087803b151561047d57600080fd5b6102c65a03f1151561048e57600080fd5b5050506040518051905090509190505600a165627a7a723058205e6ffe334233b0e4218d54dd89f794c9c6f5b16e3ec4c0881d35dae82dc69ccd0029",
  "source": "pragma solidity ^0.4.19;\n\nimport \"../interfaces/StoreInterface.sol\";\n\n\nlibrary CryptoFiatStorageProxy {\n\n    /**\n    * @notice Dividends functions can only be called through the proof network\n    * @notice In its current form, the proof network consists of the Cryptofiat and the AMP Manager contracts\n    */\n\n    function getCreationTimestamp(address _store) public view returns(uint256) {\n        return StoreInterface(_store).getUint(keccak256(\"cryptofiat.creationTimestamp\"));\n    }\n\n    function getCreationBlockNumber(address _store) public view returns(uint256) {\n        return StoreInterface(_store).getUint(keccak256(\"cryptofiat.creationBlockNumber\"));\n    }\n\n\n    function setCreationTimestamp(address _store, uint256 _value) public {\n        StoreInterface(_store).setUint(keccak256(\"cryptofiat.creationTimestamp\"), _value);\n    }\n\n    function setCreationBlockNumber(address _store, uint256 _value) public {\n        StoreInterface(_store).setUint(keccak256(\"cryptofiat.creationBlockNumber\"), _value);\n    }\n\n}",
  "sourcePath": "/Users/davidvanisacker/Programming/Ethereum/Proofsuite/ProofCryptoFiat2/contracts/libraries/CryptoFiatStorageProxy.sol",
  "compiler": {
    "name": "solc",
    "version": "0.4.19+commit.c4cbbb05.Emscripten.clang"
  },
  "schemaVersion": "2.0.0",
  "updatedAt": "2018-06-13T03:05:40.922Z"
}