{
  "contractName": "Logger",
  "abi": [
    {
      "inputs": [],
      "payable": false,
      "stateMutability": "nonpayable",
      "type": "constructor"
    },
    {
      "anonymous": false,
      "inputs": [
        {
          "indexed": false,
          "name": "_message",
          "type": "string"
        },
        {
          "indexed": false,
          "name": "_value",
          "type": "uint256"
        }
      ],
      "name": "PrintNumber",
      "type": "event"
    },
    {
      "anonymous": false,
      "inputs": [
        {
          "indexed": false,
          "name": "_message",
          "type": "string"
        },
        {
          "indexed": false,
          "name": "_value",
          "type": "address"
        }
      ],
      "name": "PrintAddress",
      "type": "event"
    },
    {
      "anonymous": false,
      "inputs": [
        {
          "indexed": false,
          "name": "_message",
          "type": "string"
        },
        {
          "indexed": false,
          "name": "_value",
          "type": "string"
        }
      ],
      "name": "PrintString",
      "type": "event"
    },
    {
      "anonymous": false,
      "inputs": [
        {
          "indexed": false,
          "name": "_message",
          "type": "string"
        },
        {
          "indexed": false,
          "name": "_value",
          "type": "bool"
        }
      ],
      "name": "PrintBoolean",
      "type": "event"
    },
    {
      "constant": false,
      "inputs": [
        {
          "name": "_message",
          "type": "string"
        },
        {
          "name": "_value",
          "type": "uint256"
        }
      ],
      "name": "printNumber",
      "outputs": [],
      "payable": false,
      "stateMutability": "nonpayable",
      "type": "function"
    },
    {
      "constant": false,
      "inputs": [
        {
          "name": "_message",
          "type": "string"
        },
        {
          "name": "_value",
          "type": "address"
        }
      ],
      "name": "printAddress",
      "outputs": [],
      "payable": false,
      "stateMutability": "nonpayable",
      "type": "function"
    },
    {
      "constant": false,
      "inputs": [
        {
          "name": "_message",
          "type": "string"
        },
        {
          "name": "_value",
          "type": "string"
        }
      ],
      "name": "printString",
      "outputs": [],
      "payable": false,
      "stateMutability": "nonpayable",
      "type": "function"
    },
    {
      "constant": false,
      "inputs": [
        {
          "name": "_message",
          "type": "string"
        },
        {
          "name": "_value",
          "type": "bool"
        }
      ],
      "name": "printBoolean",
      "outputs": [],
      "payable": false,
      "stateMutability": "nonpayable",
      "type": "function"
    }
  ],
  "bytecode": "0x6060604052341561000f57600080fd5b6105b28061001e6000396000f300606060405260043610610062576000357c0100000000000000000000000000000000000000000000000000000000900463ffffffff1680630fdb14ba14610067578063350b83f1146100e35780633df17e7c14610183578063a9fd9ff6146101eb575b600080fd5b341561007257600080fd5b6100e1600480803590602001908201803590602001908080601f0160208091040260200160405190810160405280939291908181526020018383808284378201915050505050509190803573ffffffffffffffffffffffffffffffffffffffff16906020019091905050610251565b005b34156100ee57600080fd5b610181600480803590602001908201803590602001908080601f0160208091040260200160405190810160405280939291908181526020018383808284378201915050505050509190803590602001908201803590602001908080601f01602080910402602001604051908101604052809392919081815260200183838082843782019150505050505091905050610325565b005b341561018e57600080fd5b6101e9600480803590602001908201803590602001908080601f016020809104026020016040519081016040528093929190818152602001838380828437820191505050505050919080351515906020019091905050610432565b005b34156101f657600080fd5b61024f600480803590602001908201803590602001908080601f016020809104026020016040519081016040528093929190818152602001838380828437820191505050505050919080359060200190919050506104de565b005b7f796ce3320a07b3c2e2b1557075b4190001062474344b031946beda4465aaba20828260405180806020018373ffffffffffffffffffffffffffffffffffffffff1673ffffffffffffffffffffffffffffffffffffffff168152602001828103825284818151815260200191508051906020019080838360005b838110156102e65780820151818401526020810190506102cb565b50505050905090810190601f1680156103135780820380516001836020036101000a031916815260200191505b50935050505060405180910390a15050565b7f32c92857131539f192eabdd437bc04e5e0fef88c6e6d4f5ee0dd65702a7a86188282604051808060200180602001838103835285818151815260200191508051906020019080838360005b8381101561038c578082015181840152602081019050610371565b50505050905090810190601f1680156103b95780820380516001836020036101000a031916815260200191505b50838103825284818151815260200191508051906020019080838360005b838110156103f25780820151818401526020810190506103d7565b50505050905090810190601f16801561041f5780820380516001836020036101000a031916815260200191505b5094505050505060405180910390a15050565b7fb418b9cc75a58dc2d1b834c2e69a9b4f356453130d360cd760e5447a0016824c8282604051808060200183151515158152602001828103825284818151815260200191508051906020019080838360005b8381101561049f578082015181840152602081019050610484565b50505050905090810190601f1680156104cc5780820380516001836020036101000a031916815260200191505b50935050505060405180910390a15050565b7fa199abb1f71d5aee05f6d190805ef5776b7317909489210d3b777a8d55f7d5f682826040518080602001838152602001828103825284818151815260200191508051906020019080838360005b8381101561054757808201518184015260208101905061052c565b50505050905090810190601f1680156105745780820380516001836020036101000a031916815260200191505b50935050505060405180910390a150505600a165627a7a723058201e4250c3adf2406729812c1d39e367deeb8db125f606bfbe56f76dc84a8dfa0d0029",
  "source": "pragma solidity ^0.4.19;\n\ncontract Logger {\n\n  event PrintNumber(string _message, uint256 _value);\n  event PrintAddress(string _message, address _value);\n  event PrintString(string _message, string _value);\n  event PrintBoolean(string _message, bool _value);\n\n  /**\n   * This smart-contract can be used for debugging/logging purposes.\n   * Simply import the Logger contract and print values in the truffle\n   * testing terminal by calling Logger.printNumber(...)\n   * You can provide a _message to describe the _value you are logging.\n   */\n  function Logger() public {\n\n  }\n\n  function printNumber(string _message, uint256 _value) public {\n    PrintNumber(_message, _value);\n  }\n\n  function printAddress(string _message, address _value) public {\n    PrintAddress(_message, _value);\n  }\n\n  function printString(string _message, string _value) public {\n    PrintString(_message, _value);\n  }\n\n  function printBoolean(string _message, bool _value) public {\n    PrintBoolean(_message, _value);\n  }\n\n}",
  "sourcePath": "/Users/davidvanisacker/Programming/Ethereum/Proofsuite/ProofCryptoFiat2/contracts/utils/Logger.sol",
  "compiler": {
    "name": "solc",
    "version": "0.4.19+commit.c4cbbb05.Emscripten.clang"
  },
  "schemaVersion": "2.0.0",
  "updatedAt": "2018-05-11T16:45:43.330Z"
}