{
  "contractName": "Medianizer",
  "abi": [
    {
      "inputs": [
        {
          "name": "_exchangeRate",
          "type": "uint256"
        }
      ],
      "payable": false,
      "stateMutability": "nonpayable",
      "type": "constructor"
    },
    {
      "constant": false,
      "inputs": [
        {
          "name": "_exchangeRate",
          "type": "uint256"
        }
      ],
      "name": "setExchangeRate",
      "outputs": [],
      "payable": false,
      "stateMutability": "nonpayable",
      "type": "function"
    },
    {
      "constant": true,
      "inputs": [],
      "name": "peek",
      "outputs": [
        {
          "name": "",
          "type": "bytes32"
        },
        {
          "name": "",
          "type": "bool"
        }
      ],
      "payable": false,
      "stateMutability": "view",
      "type": "function"
    }
  ],
  "bytecode": "0x6060604052341561000f57600080fd5b60405160208061013683398101604052808051906020019091905050806000819055505060f5806100416000396000f3006060604052600436106049576000357c0100000000000000000000000000000000000000000000000000000000900463ffffffff16806359e02dd714604e578063db068e0e146087575b600080fd5b3415605857600080fd5b605e60a7565b604051808360001916600019168152602001821515151581526020019250505060405180910390f35b3415609157600080fd5b60a5600480803590602001909190505060bf565b005b60008060008054600102905080600192509250509091565b80600081905550505600a165627a7a7230582049fde794197ade775e5957772fd11ce924603454067148bb00e01e8cb8b9733e0029",
  "source": "pragma solidity ^0.4.19;\n\ncontract Medianizer {\n\n  uint256 exchangeRate;\n\n  function Medianizer(uint256 _exchangeRate) public {\n    exchangeRate = _exchangeRate;\n  }\n\n  function setExchangeRate(uint256 _exchangeRate) public {\n    exchangeRate = _exchangeRate;\n  }\n\n  function peek() public view returns(bytes32, bool)\n  {\n      bytes32 exchangeRateInBytes = bytes32(exchangeRate);\n      return (exchangeRateInBytes, true);\n  }\n}",
  "sourcePath": "/Users/davidvanisacker/Programming/Ethereum/Proofsuite/ProofCryptoFiat2/contracts/mocks/Medianizer.sol",
  "compiler": {
    "name": "solc",
    "version": "0.4.19+commit.c4cbbb05.Emscripten.clang"
  },
  "schemaVersion": "2.0.0",
  "updatedAt": "2018-04-25T17:00:27.451Z"
}