{
  "contractName": "ProofToken",
  "abi": [
    {
      "constant": true,
      "inputs": [],
      "name": "mintingFinished",
      "outputs": [
        {
          "name": "",
          "type": "bool"
        }
      ],
      "payable": false,
      "stateMutability": "view",
      "type": "function"
    },
    {
      "constant": true,
      "inputs": [],
      "name": "name",
      "outputs": [
        {
          "name": "",
          "type": "string"
        }
      ],
      "payable": false,
      "stateMutability": "view",
      "type": "function"
    },
    {
      "constant": true,
      "inputs": [],
      "name": "creationBlock",
      "outputs": [
        {
          "name": "",
          "type": "uint256"
        }
      ],
      "payable": false,
      "stateMutability": "view",
      "type": "function"
    },
    {
      "constant": true,
      "inputs": [],
      "name": "decimals",
      "outputs": [
        {
          "name": "",
          "type": "uint8"
        }
      ],
      "payable": false,
      "stateMutability": "view",
      "type": "function"
    },
    {
      "constant": true,
      "inputs": [],
      "name": "version",
      "outputs": [
        {
          "name": "",
          "type": "string"
        }
      ],
      "payable": false,
      "stateMutability": "view",
      "type": "function"
    },
    {
      "constant": false,
      "inputs": [
        {
          "name": "newController",
          "type": "address"
        }
      ],
      "name": "transferControl",
      "outputs": [],
      "payable": false,
      "stateMutability": "nonpayable",
      "type": "function"
    },
    {
      "constant": true,
      "inputs": [],
      "name": "TOTAL_PRESALE_TOKENS",
      "outputs": [
        {
          "name": "",
          "type": "uint256"
        }
      ],
      "payable": false,
      "stateMutability": "view",
      "type": "function"
    },
    {
      "constant": true,
      "inputs": [],
      "name": "parentToken",
      "outputs": [
        {
          "name": "",
          "type": "address"
        }
      ],
      "payable": false,
      "stateMutability": "view",
      "type": "function"
    },
    {
      "constant": true,
      "inputs": [],
      "name": "symbol",
      "outputs": [
        {
          "name": "",
          "type": "string"
        }
      ],
      "payable": false,
      "stateMutability": "view",
      "type": "function"
    },
    {
      "constant": true,
      "inputs": [],
      "name": "parentSnapShotBlock",
      "outputs": [
        {
          "name": "",
          "type": "uint256"
        }
      ],
      "payable": false,
      "stateMutability": "view",
      "type": "function"
    },
    {
      "constant": true,
      "inputs": [],
      "name": "controller",
      "outputs": [
        {
          "name": "",
          "type": "address"
        }
      ],
      "payable": false,
      "stateMutability": "view",
      "type": "function"
    },
    {
      "inputs": [],
      "payable": false,
      "stateMutability": "nonpayable",
      "type": "constructor"
    },
    {
      "payable": true,
      "stateMutability": "payable",
      "type": "fallback"
    },
    {
      "anonymous": false,
      "inputs": [
        {
          "indexed": true,
          "name": "to",
          "type": "address"
        },
        {
          "indexed": false,
          "name": "amount",
          "type": "uint256"
        }
      ],
      "name": "Mint",
      "type": "event"
    },
    {
      "anonymous": false,
      "inputs": [],
      "name": "MintFinished",
      "type": "event"
    },
    {
      "anonymous": false,
      "inputs": [
        {
          "indexed": true,
          "name": "_token",
          "type": "address"
        },
        {
          "indexed": true,
          "name": "_owner",
          "type": "address"
        },
        {
          "indexed": false,
          "name": "_amount",
          "type": "uint256"
        }
      ],
      "name": "ClaimedTokens",
      "type": "event"
    },
    {
      "anonymous": false,
      "inputs": [
        {
          "indexed": true,
          "name": "cloneToken",
          "type": "address"
        }
      ],
      "name": "NewCloneToken",
      "type": "event"
    },
    {
      "anonymous": false,
      "inputs": [
        {
          "indexed": true,
          "name": "_owner",
          "type": "address"
        },
        {
          "indexed": true,
          "name": "_spender",
          "type": "address"
        },
        {
          "indexed": false,
          "name": "_amount",
          "type": "uint256"
        }
      ],
      "name": "Approval",
      "type": "event"
    },
    {
      "anonymous": false,
      "inputs": [
        {
          "indexed": true,
          "name": "from",
          "type": "address"
        },
        {
          "indexed": true,
          "name": "to",
          "type": "address"
        },
        {
          "indexed": false,
          "name": "value",
          "type": "uint256"
        }
      ],
      "name": "Transfer",
      "type": "event"
    },
    {
      "constant": true,
      "inputs": [],
      "name": "totalSupply",
      "outputs": [
        {
          "name": "",
          "type": "uint256"
        }
      ],
      "payable": false,
      "stateMutability": "view",
      "type": "function"
    },
    {
      "constant": true,
      "inputs": [
        {
          "name": "_blockNumber",
          "type": "uint256"
        }
      ],
      "name": "totalSupplyAt",
      "outputs": [
        {
          "name": "",
          "type": "uint256"
        }
      ],
      "payable": false,
      "stateMutability": "view",
      "type": "function"
    },
    {
      "constant": true,
      "inputs": [
        {
          "name": "_owner",
          "type": "address"
        }
      ],
      "name": "balanceOf",
      "outputs": [
        {
          "name": "balance",
          "type": "uint256"
        }
      ],
      "payable": false,
      "stateMutability": "view",
      "type": "function"
    },
    {
      "constant": true,
      "inputs": [
        {
          "name": "_owner",
          "type": "address"
        },
        {
          "name": "_blockNumber",
          "type": "uint256"
        }
      ],
      "name": "balanceOfAt",
      "outputs": [
        {
          "name": "",
          "type": "uint256"
        }
      ],
      "payable": false,
      "stateMutability": "view",
      "type": "function"
    },
    {
      "constant": false,
      "inputs": [
        {
          "name": "_to",
          "type": "address"
        },
        {
          "name": "_amount",
          "type": "uint256"
        }
      ],
      "name": "transfer",
      "outputs": [
        {
          "name": "success",
          "type": "bool"
        }
      ],
      "payable": false,
      "stateMutability": "nonpayable",
      "type": "function"
    },
    {
      "constant": false,
      "inputs": [
        {
          "name": "_from",
          "type": "address"
        },
        {
          "name": "_to",
          "type": "address"
        },
        {
          "name": "_amount",
          "type": "uint256"
        }
      ],
      "name": "transferFrom",
      "outputs": [
        {
          "name": "success",
          "type": "bool"
        }
      ],
      "payable": false,
      "stateMutability": "nonpayable",
      "type": "function"
    },
    {
      "constant": false,
      "inputs": [
        {
          "name": "_spender",
          "type": "address"
        },
        {
          "name": "_amount",
          "type": "uint256"
        }
      ],
      "name": "approve",
      "outputs": [
        {
          "name": "success",
          "type": "bool"
        }
      ],
      "payable": false,
      "stateMutability": "nonpayable",
      "type": "function"
    },
    {
      "constant": false,
      "inputs": [
        {
          "name": "_spender",
          "type": "address"
        },
        {
          "name": "_amount",
          "type": "uint256"
        },
        {
          "name": "_extraData",
          "type": "bytes"
        }
      ],
      "name": "approveAndCall",
      "outputs": [
        {
          "name": "success",
          "type": "bool"
        }
      ],
      "payable": false,
      "stateMutability": "nonpayable",
      "type": "function"
    },
    {
      "constant": true,
      "inputs": [
        {
          "name": "_owner",
          "type": "address"
        },
        {
          "name": "_spender",
          "type": "address"
        }
      ],
      "name": "allowance",
      "outputs": [
        {
          "name": "remaining",
          "type": "uint256"
        }
      ],
      "payable": false,
      "stateMutability": "view",
      "type": "function"
    },
    {
      "constant": false,
      "inputs": [
        {
          "name": "_owner",
          "type": "address"
        },
        {
          "name": "_amount",
          "type": "uint256"
        }
      ],
      "name": "mint",
      "outputs": [
        {
          "name": "",
          "type": "bool"
        }
      ],
      "payable": false,
      "stateMutability": "nonpayable",
      "type": "function"
    }
  ],
  "bytecode": "0x60606040526000600b60006101000a81548160ff02191690831515021790555034156200002b57600080fd5b336000806101000a81548173ffffffffffffffffffffffffffffffffffffffff021916908373ffffffffffffffffffffffffffffffffffffffff1602179055506000600160006101000a81548173ffffffffffffffffffffffffffffffffffffffff021916908373ffffffffffffffffffffffffffffffffffffffff16021790555060006006819055506040805190810160405280600581526020017f50726f6f660000000000000000000000000000000000000000000000000000008152506002908051906020019062000102929190620001c8565b506040805190810160405280600481526020017f50524654000000000000000000000000000000000000000000000000000000008152506003908051906020019062000150929190620001c8565b506012600560006101000a81548160ff021916908360ff160217905550436007819055506040805190810160405280600381526020017f302e31000000000000000000000000000000000000000000000000000000000081525060049080519060200190620001c1929190620001c8565b5062000277565b828054600181600116156101000203166002900490600052602060002090601f016020900481019282601f106200020b57805160ff19168380011785556200023c565b828001600101855582156200023c579182015b828111156200023b5782518255916020019190600101906200021e565b5b5090506200024b91906200024f565b5090565b6200027491905b808211156200027057600081600090555060010162000256565b5090565b90565b611bb780620002876000396000f30060606040526004361061011d576000357c0100000000000000000000000000000000000000000000000000000000900463ffffffff16806305d2035b1461012257806306fdde031461014f578063095ea7b3146101dd578063176345141461023757806318160ddd1461026057806323b872dd14610289578063313ce5671461030257806340c10f19146103315780634ee2cd7e1461038b57806354fd4d50146103e15780636d16fa411461046f57806370a08231146104a8578063763fd2ab146104f557806380a540011461051e57806395d89b4114610573578063981b24d014610601578063a9059cbb14610638578063c5bcc4f114610692578063cae9ca51146106bb578063dd62ed3e14610758578063f77c4791146107c4575b600080fd5b341561012d57600080fd5b610135610819565b604051808215151515815260200191505060405180910390f35b341561015a57600080fd5b61016261082c565b6040518080602001828103825283818151815260200191508051906020019080838360005b838110156101a2578082015181840152602081019050610187565b50505050905090810190601f1680156101cf5780820380516001836020036101000a031916815260200191505b509250505060405180910390f35b34156101e857600080fd5b61021d600480803573ffffffffffffffffffffffffffffffffffffffff169060200190919080359060200190919050506108ca565b604051808215151515815260200191505060405180910390f35b341561024257600080fd5b61024a610a51565b6040518082815260200191505060405180910390f35b341561026b57600080fd5b610273610a57565b6040518082815260200191505060405180910390f35b341561029457600080fd5b6102e8600480803573ffffffffffffffffffffffffffffffffffffffff1690602001909190803573ffffffffffffffffffffffffffffffffffffffff16906020019091908035906020019091905050610a67565b604051808215151515815260200191505060405180910390f35b341561030d57600080fd5b610315610b92565b604051808260ff1660ff16815260200191505060405180910390f35b341561033c57600080fd5b610371600480803573ffffffffffffffffffffffffffffffffffffffff16906020019091908035906020019091905050610ba5565b604051808215151515815260200191505060405180910390f35b341561039657600080fd5b6103cb600480803573ffffffffffffffffffffffffffffffffffffffff16906020019091908035906020019091905050610d0b565b6040518082815260200191505060405180910390f35b34156103ec57600080fd5b6103f4610f80565b6040518080602001828103825283818151815260200191508051906020019080838360005b83811015610434578082015181840152602081019050610419565b50505050905090810190601f1680156104615780820380516001836020036101000a031916815260200191505b509250505060405180910390f35b341561047a57600080fd5b6104a6600480803573ffffffffffffffffffffffffffffffffffffffff1690602001909190505061101e565b005b34156104b357600080fd5b6104df600480803573ffffffffffffffffffffffffffffffffffffffff169060200190919050506110f3565b6040518082815260200191505060405180910390f35b341561050057600080fd5b610508611106565b6040518082815260200191505060405180910390f35b341561052957600080fd5b610531611114565b604051808273ffffffffffffffffffffffffffffffffffffffff1673ffffffffffffffffffffffffffffffffffffffff16815260200191505060405180910390f35b341561057e57600080fd5b61058661113a565b6040518080602001828103825283818151815260200191508051906020019080838360005b838110156105c65780820151818401526020810190506105ab565b50505050905090810190601f1680156105f35780820380516001836020036101000a031916815260200191505b509250505060405180910390f35b341561060c57600080fd5b61062260048080359060200190919050506111d8565b6040518082815260200191505060405180910390f35b341561064357600080fd5b610678600480803573ffffffffffffffffffffffffffffffffffffffff16906020019091908035906020019091905050611361565b604051808215151515815260200191505060405180910390f35b341561069d57600080fd5b6106a5611376565b6040518082815260200191505060405180910390f35b34156106c657600080fd5b61073e600480803573ffffffffffffffffffffffffffffffffffffffff1690602001909190803590602001909190803590602001908201803590602001908080601f0160208091040260200160405190810160405280939291908181526020018383808284378201915050505050509190505061137c565b604051808215151515815260200191505060405180910390f35b341561076357600080fd5b6107ae600480803573ffffffffffffffffffffffffffffffffffffffff1690602001909190803573ffffffffffffffffffffffffffffffffffffffff169060200190919050506114eb565b6040518082815260200191505060405180910390f35b34156107cf57600080fd5b6107d7611572565b604051808273ffffffffffffffffffffffffffffffffffffffff1673ffffffffffffffffffffffffffffffffffffffff16815260200191505060405180910390f35b600b60009054906101000a900460ff1681565b60028054600181600116156101000203166002900480601f0160208091040260200160405190810160405280929190818152602001828054600181600116156101000203166002900480156108c25780601f10610897576101008083540402835291602001916108c2565b820191906000526020600020905b8154815290600101906020018083116108a557829003601f168201915b505050505081565b60008082148061095657506000600a60003373ffffffffffffffffffffffffffffffffffffffff1673ffffffffffffffffffffffffffffffffffffffff16815260200190815260200160002060008573ffffffffffffffffffffffffffffffffffffffff1673ffffffffffffffffffffffffffffffffffffffff16815260200190815260200160002054145b151561096157600080fd5b81600a60003373ffffffffffffffffffffffffffffffffffffffff1673ffffffffffffffffffffffffffffffffffffffff16815260200190815260200160002060008573ffffffffffffffffffffffffffffffffffffffff1673ffffffffffffffffffffffffffffffffffffffff168152602001908152602001600020819055508273ffffffffffffffffffffffffffffffffffffffff163373ffffffffffffffffffffffffffffffffffffffff167f8c5be1e5ebec7d5bd14f71427d1e84f3dd0314c0f7b2291e5b200ac8c7c3b925846040518082815260200191505060405180910390a36001905092915050565b60075481565b6000610a62436111d8565b905090565b600081600a60008673ffffffffffffffffffffffffffffffffffffffff1673ffffffffffffffffffffffffffffffffffffffff16815260200190815260200160002060003373ffffffffffffffffffffffffffffffffffffffff1673ffffffffffffffffffffffffffffffffffffffff1681526020019081526020016000205410151515610af457600080fd5b81600a60008673ffffffffffffffffffffffffffffffffffffffff1673ffffffffffffffffffffffffffffffffffffffff16815260200190815260200160002060003373ffffffffffffffffffffffffffffffffffffffff1673ffffffffffffffffffffffffffffffffffffffff16815260200190815260200160002060008282540392505081905550610b89848484611597565b90509392505050565b600560009054906101000a900460ff1681565b60008060008060009054906101000a900473ffffffffffffffffffffffffffffffffffffffff1673ffffffffffffffffffffffffffffffffffffffff163373ffffffffffffffffffffffffffffffffffffffff16141515610c0557600080fd5b600b60009054906101000a900460ff16151515610c2157600080fd5b610c29610a57565b9150610c34856110f3565b90508184830110151515610c4757600080fd5b8084820110151515610c5857600080fd5b610c656008858401611756565b610caf600960008773ffffffffffffffffffffffffffffffffffffffff1673ffffffffffffffffffffffffffffffffffffffff168152602001908152602001600020858301611756565b8473ffffffffffffffffffffffffffffffffffffffff1660007fddf252ad1be2c89b69c2b068fc378daa952ba7f163c4a11628f55a4df523b3ef866040518082815260200191505060405180910390a360019250505092915050565b600080600960008573ffffffffffffffffffffffffffffffffffffffff1673ffffffffffffffffffffffffffffffffffffffff168152602001908152602001600020805490501480610de5575081600960008573ffffffffffffffffffffffffffffffffffffffff1673ffffffffffffffffffffffffffffffffffffffff1681526020019081526020016000206000815481101515610da657fe5b906000526020600020900160000160009054906101000a90046fffffffffffffffffffffffffffffffff166fffffffffffffffffffffffffffffffff16115b15610f2f576000600160009054906101000a900473ffffffffffffffffffffffffffffffffffffffff1673ffffffffffffffffffffffffffffffffffffffff16141515610f2657600160009054906101000a900473ffffffffffffffffffffffffffffffffffffffff1673ffffffffffffffffffffffffffffffffffffffff16634ee2cd7e84610e77856006546118cd565b6000604051602001526040518363ffffffff167c0100000000000000000000000000000000000000000000000000000000028152600401808373ffffffffffffffffffffffffffffffffffffffff1673ffffffffffffffffffffffffffffffffffffffff16815260200182815260200192505050602060405180830381600087803b1515610f0457600080fd5b6102c65a03f11515610f1557600080fd5b505050604051805190509050610f7a565b60009050610f7a565b610f77600960008573ffffffffffffffffffffffffffffffffffffffff1673ffffffffffffffffffffffffffffffffffffffff168152602001908152602001600020836118e6565b90505b92915050565b60048054600181600116156101000203166002900480601f0160208091040260200160405190810160405280929190818152602001828054600181600116156101000203166002900480156110165780601f10610feb57610100808354040283529160200191611016565b820191906000526020600020905b815481529060010190602001808311610ff957829003601f168201915b505050505081565b6000809054906101000a900473ffffffffffffffffffffffffffffffffffffffff1673ffffffffffffffffffffffffffffffffffffffff163373ffffffffffffffffffffffffffffffffffffffff1614151561107957600080fd5b600073ffffffffffffffffffffffffffffffffffffffff168173ffffffffffffffffffffffffffffffffffffffff161415156110f057806000806101000a81548173ffffffffffffffffffffffffffffffffffffffff021916908373ffffffffffffffffffffffffffffffffffffffff1602179055505b50565b60006110ff8243610d0b565b9050919050565b6917cc7ef452b68253876081565b600160009054906101000a900473ffffffffffffffffffffffffffffffffffffffff1681565b60038054600181600116156101000203166002900480601f0160208091040260200160405190810160405280929190818152602001828054600181600116156101000203166002900480156111d05780601f106111a5576101008083540402835291602001916111d0565b820191906000526020600020905b8154815290600101906020018083116111b357829003601f168201915b505050505081565b6000806008805490501480611238575081600860008154811015156111f957fe5b906000526020600020900160000160009054906101000a90046fffffffffffffffffffffffffffffffff166fffffffffffffffffffffffffffffffff16115b1561134e576000600160009054906101000a900473ffffffffffffffffffffffffffffffffffffffff1673ffffffffffffffffffffffffffffffffffffffff1614151561134557600160009054906101000a900473ffffffffffffffffffffffffffffffffffffffff1673ffffffffffffffffffffffffffffffffffffffff1663981b24d06112c9846006546118cd565b6000604051602001526040518263ffffffff167c010000000000000000000000000000000000000000000000000000000002815260040180828152602001915050602060405180830381600087803b151561132357600080fd5b6102c65a03f1151561133457600080fd5b50505060405180519050905061135c565b6000905061135c565b6113596008836118e6565b90505b919050565b600061136e338484611597565b905092915050565b60065481565b600061138884846108ca565b508373ffffffffffffffffffffffffffffffffffffffff16638f4ffcb1338530866040518563ffffffff167c0100000000000000000000000000000000000000000000000000000000028152600401808573ffffffffffffffffffffffffffffffffffffffff1673ffffffffffffffffffffffffffffffffffffffff1681526020018481526020018373ffffffffffffffffffffffffffffffffffffffff1673ffffffffffffffffffffffffffffffffffffffff16815260200180602001828103825283818151815260200191508051906020019080838360005b8381101561147e578082015181840152602081019050611463565b50505050905090810190601f1680156114ab5780820380516001836020036101000a031916815260200191505b5095505050505050600060405180830381600087803b15156114cc57600080fd5b6102c65a03f115156114dd57600080fd5b505050600190509392505050565b6000600a60008473ffffffffffffffffffffffffffffffffffffffff1673ffffffffffffffffffffffffffffffffffffffff16815260200190815260200160002060008373ffffffffffffffffffffffffffffffffffffffff1673ffffffffffffffffffffffffffffffffffffffff16815260200190815260200160002054905092915050565b6000809054906101000a900473ffffffffffffffffffffffffffffffffffffffff1681565b600080600080841115156115aa57600080fd5b436006541015156115ba57600080fd5b60008573ffffffffffffffffffffffffffffffffffffffff161415801561160d57503073ffffffffffffffffffffffffffffffffffffffff168573ffffffffffffffffffffffffffffffffffffffff1614155b151561161857600080fd5b6116228643610d0b565b915083821015151561163357600080fd5b61167d600960008873ffffffffffffffffffffffffffffffffffffffff1673ffffffffffffffffffffffffffffffffffffffff168152602001908152602001600020858403611756565b6116878543610d0b565b9050808482011015151561169a57600080fd5b6116e4600960008773ffffffffffffffffffffffffffffffffffffffff1673ffffffffffffffffffffffffffffffffffffffff168152602001908152602001600020858301611756565b8473ffffffffffffffffffffffffffffffffffffffff168673ffffffffffffffffffffffffffffffffffffffff167fddf252ad1be2c89b69c2b068fc378daa952ba7f163c4a11628f55a4df523b3ef866040518082815260200191505060405180910390a36001925050509392505050565b6000806000848054905014806117bc57504384600186805490500381548110151561177d57fe5b906000526020600020900160000160009054906101000a90046fffffffffffffffffffffffffffffffff166fffffffffffffffffffffffffffffffff16105b1561186957838480548091906001016117d59190611afa565b8154811015156117e157fe5b90600052602060002090019150438260000160006101000a8154816fffffffffffffffffffffffffffffffff02191690836fffffffffffffffffffffffffffffffff160217905550828260000160106101000a8154816fffffffffffffffffffffffffffffffff02191690836fffffffffffffffffffffffffffffffff1602179055506118c7565b83600185805490500381548110151561187e57fe5b90600052602060002090019050828160000160106101000a8154816fffffffffffffffffffffffffffffffff02191690836fffffffffffffffffffffffffffffffff1602179055505b50505050565b60008183106118dc57816118de565b825b905092915050565b6000806000806000868054905014156119025760009350611af1565b85600187805490500381548110151561191757fe5b906000526020600020900160000160009054906101000a90046fffffffffffffffffffffffffffffffff166fffffffffffffffffffffffffffffffff16851015156119b55785600187805490500381548110151561197157fe5b906000526020600020900160000160109054906101000a90046fffffffffffffffffffffffffffffffff166fffffffffffffffffffffffffffffffff169350611af1565b8560008154811015156119c457fe5b906000526020600020900160000160009054906101000a90046fffffffffffffffffffffffffffffffff166fffffffffffffffffffffffffffffffff16851015611a115760009350611af1565b60009250600186805490500391505b82821115611aa3576002600184840101811515611a3957fe5b049050848682815481101515611a4b57fe5b906000526020600020900160000160009054906101000a90046fffffffffffffffffffffffffffffffff166fffffffffffffffffffffffffffffffff16111515611a9757809250611a9e565b6001810391505b611a20565b8583815481101515611ab157fe5b906000526020600020900160000160109054906101000a90046fffffffffffffffffffffffffffffffff166fffffffffffffffffffffffffffffffff1693505b50505092915050565b815481835581811511611b2157818360005260206000209182019101611b209190611b26565b5b505050565b611b8891905b80821115611b8457600080820160006101000a8154906fffffffffffffffffffffffffffffffff02191690556000820160106101000a8154906fffffffffffffffffffffffffffffffff021916905550600101611b2c565b5090565b905600a165627a7a72305820d432bbe964a1d77a19863b227344a43671fbd5d30e6de19e9d775d951e7791ec0029",
  "source": "pragma solidity ^0.4.15;\n\nimport '../libraries/SafeMath.sol';\nimport '../utils/Controlled.sol';\nimport '../utils/ApproveAndCallReceiver.sol';\nimport '../interfaces/ProofTokenInterface.sol';\n\n\ncontract ProofToken is Controlled {\n\n  using SafeMath for uint256;\n  ProofTokenInterface public parentToken;\n\n  string public name;\n  string public symbol;\n  string public version;\n  uint8 public decimals;\n\n  uint256 public parentSnapShotBlock;\n  uint256 public creationBlock;\n\n\n  struct Checkpoint {\n    uint128 fromBlock;\n    uint128 value;\n  }\n\n  Checkpoint[] totalSupplyHistory;\n  mapping(address => Checkpoint[]) balances;\n  mapping (address => mapping (address => uint)) allowed;\n\n  bool public mintingFinished = false;\n\n  uint256 public constant TOTAL_PRESALE_TOKENS = 112386712924725508802400;\n\n  event Mint(address indexed to, uint256 amount);\n  event MintFinished();\n  event ClaimedTokens(address indexed _token, address indexed _owner, uint _amount);\n  event NewCloneToken(address indexed cloneToken);\n  event Approval(address indexed _owner, address indexed _spender, uint256 _amount);\n  event Transfer(address indexed from, address indexed to, uint256 value);\n\n\n\n\n  function ProofToken() public {\n      parentToken = ProofTokenInterface(0x0);\n      parentSnapShotBlock = 0;\n      name = \"Proof\";\n      symbol = \"PRFT\";\n      decimals = 18;\n      creationBlock = block.number;\n      version = \"0.1\";\n  }\n\n  function() public payable {\n    revert();\n  }\n\n\n  /**\n  * Returns the total Proof token supply at the current block\n  * @return total supply {uint256}\n  */\n  function totalSupply() public constant returns (uint256) {\n    return totalSupplyAt(block.number);\n  }\n\n  /**\n  * Returns the total Proof token supply at the given block number\n  * @param _blockNumber {uint256}\n  * @return total supply {uint256}\n  */\n  function totalSupplyAt(uint256 _blockNumber) public constant returns(uint256) {\n    // These next few lines are used when the totalSupply of the token is\n    //  requested before a check point was ever created for this token, it\n    //  requires that the `parentToken.totalSupplyAt` be queried at the\n    //  genesis block for this token as that contains totalSupply of this\n    //  token at this block number.\n    if ((totalSupplyHistory.length == 0) || (totalSupplyHistory[0].fromBlock > _blockNumber)) {\n        if (address(parentToken) != 0) {\n            return parentToken.totalSupplyAt(min(_blockNumber, parentSnapShotBlock));\n        } else {\n            return 0;\n        }\n\n    // This will return the expected totalSupply during normal situations\n    } else {\n        return getValueAt(totalSupplyHistory, _blockNumber);\n    }\n  }\n\n  /**\n  * Returns the token holder balance at the current block\n  * @param _owner {address}\n  * @return balance {uint256}\n   */\n  function balanceOf(address _owner) public constant returns (uint256 balance) {\n    return balanceOfAt(_owner, block.number);\n  }\n\n  /**\n  * Returns the token holder balance the the given block number\n  * @param _owner {address}\n  * @param _blockNumber {uint256}\n  * @return balance {uint256}\n  */\n  function balanceOfAt(address _owner, uint256 _blockNumber) public constant returns (uint256) {\n    // These next few lines are used when the balance of the token is\n    //  requested before a check point was ever created for this token, it\n    //  requires that the `parentToken.balanceOfAt` be queried at the\n    //  genesis block for that token as this contains initial balance of\n    //  this token\n    if ((balances[_owner].length == 0) || (balances[_owner][0].fromBlock > _blockNumber)) {\n        if (address(parentToken) != 0) {\n            return parentToken.balanceOfAt(_owner, min(_blockNumber, parentSnapShotBlock));\n        } else {\n            // Has no parent\n            return 0;\n        }\n\n    // This will return the expected balance during normal situations\n    } else {\n        return getValueAt(balances[_owner], _blockNumber);\n    }\n  }\n\n  /**\n  * Standard ERC20 transfer tokens function\n  * @param _to {address}\n  * @param _amount {uint}\n  * @return success {bool}\n  */\n  function transfer(address _to, uint256 _amount) public returns (bool success) {\n    return doTransfer(msg.sender, _to, _amount);\n  }\n\n  /**\n  * Standard ERC20 transferFrom function\n  * @param _from {address}\n  * @param _to {address}\n  * @param _amount {uint256}\n  * @return success {bool}\n  */\n  function transferFrom(address _from, address _to, uint256 _amount) public returns (bool success) {\n    require(allowed[_from][msg.sender] >= _amount);\n    allowed[_from][msg.sender] -= _amount;\n    return doTransfer(_from, _to, _amount);\n  }\n\n  /**\n  * Standard ERC20 approve function\n  * @param _spender {address}\n  * @param _amount {uint256}\n  * @return success {bool}\n  */\n  function approve(address _spender, uint256 _amount) public returns (bool success) {\n\n    //https://github.com/ethereum/EIPs/issues/20#issuecomment-263524729\n    require((_amount == 0) || (allowed[msg.sender][_spender] == 0));\n\n    allowed[msg.sender][_spender] = _amount;\n    Approval(msg.sender, _spender, _amount);\n    return true;\n  }\n\n  /**\n  * Standard ERC20 approve function\n  * @param _spender {address}\n  * @param _amount {uint256}\n  * @return success {bool}\n  */\n  function approveAndCall(address _spender, uint256 _amount, bytes _extraData) public returns (bool success) {\n    approve(_spender, _amount);\n\n    ApproveAndCallReceiver(_spender).receiveApproval(\n        msg.sender,\n        _amount,\n        this,\n        _extraData\n    );\n\n    return true;\n  }\n\n  /**\n  * Standard ERC20 allowance function\n  * @param _owner {address}\n  * @param _spender {address}\n  * @return remaining {uint256}\n   */\n  function allowance(address _owner, address _spender) public constant returns (uint256 remaining) {\n    return allowed[_owner][_spender];\n  }\n\n  /**\n  * Internal Transfer function - Updates the checkpoint ledger\n  * @param _from {address}\n  * @param _to {address}\n  * @param _amount {uint256}\n  * @return success {bool}\n  */\n  function doTransfer(address _from, address _to, uint256 _amount) internal returns(bool) {\n    require(_amount > 0);\n    require(parentSnapShotBlock < block.number);\n    require((_to != 0) && (_to != address(this)));\n\n    // If the amount being transfered is more than the balance of the\n    // account the transfer returns false\n    uint256 previousBalanceFrom = balanceOfAt(_from, block.number);\n    require(previousBalanceFrom >= _amount);\n\n    // First update the balance array with the new value for the address\n    //  sending the tokens\n    updateValueAtNow(balances[_from], previousBalanceFrom - _amount);\n\n    // Then update the balance array with the new value for the address\n    //  receiving the tokens\n    uint256 previousBalanceTo = balanceOfAt(_to, block.number);\n    require(previousBalanceTo + _amount >= previousBalanceTo); // Check for overflow\n    updateValueAtNow(balances[_to], previousBalanceTo + _amount);\n\n    // An event to make the transfer easy to find on the blockchain\n    Transfer(_from, _to, _amount);\n    return true;\n  }\n\n\n  /**\n  * Token creation functions - can only be called by the tokensale controller during the tokensale period\n  * @param _owner {address}\n  * @param _amount {uint256}\n  * @return success {bool}\n  */\n  function mint(address _owner, uint256 _amount) public onlyController canMint returns (bool) {\n    uint256 curTotalSupply = totalSupply();\n    uint256 previousBalanceTo = balanceOf(_owner);\n\n    require(curTotalSupply + _amount >= curTotalSupply); // Check for overflow\n    require(previousBalanceTo + _amount >= previousBalanceTo); // Check for overflow\n\n    updateValueAtNow(totalSupplyHistory, curTotalSupply + _amount);\n    updateValueAtNow(balances[_owner], previousBalanceTo + _amount);\n    Transfer(0, _owner, _amount);\n    return true;\n  }\n\n  modifier canMint() {\n    require(!mintingFinished);\n    _;\n  }\n\n  /**\n   * Internal balance method - gets a certain checkpoint value a a certain _block\n   * @param _checkpoints {Checkpoint[]} List of checkpoints - supply history or balance history\n   * @return value {uint256} Value of _checkpoints at _block\n  */\n  function getValueAt(Checkpoint[] storage _checkpoints, uint256 _block) constant internal returns (uint256) {\n\n      if (_checkpoints.length == 0)\n        return 0;\n      // Shortcut for the actual value\n      if (_block >= _checkpoints[_checkpoints.length-1].fromBlock)\n        return _checkpoints[_checkpoints.length-1].value;\n      if (_block < _checkpoints[0].fromBlock)\n        return 0;\n\n      // Binary search of the value in the array\n      uint256 min = 0;\n      uint256 max = _checkpoints.length-1;\n      while (max > min) {\n          uint256 mid = (max + min + 1) / 2;\n          if (_checkpoints[mid].fromBlock<=_block) {\n              min = mid;\n          } else {\n              max = mid-1;\n          }\n      }\n      return _checkpoints[min].value;\n  }\n\n\n  /**\n  * Internal update method - updates the checkpoint ledger at the current block\n  * @param _checkpoints {Checkpoint[]}  List of checkpoints - supply history or balance history\n  * @return value {uint256} Value to add to the checkpoints ledger\n   */\n  function updateValueAtNow(Checkpoint[] storage _checkpoints, uint256 _value) internal {\n      if ((_checkpoints.length == 0) || (_checkpoints[_checkpoints.length-1].fromBlock < block.number)) {\n              Checkpoint storage newCheckPoint = _checkpoints[_checkpoints.length++];\n              newCheckPoint.fromBlock = uint128(block.number);\n              newCheckPoint.value = uint128(_value);\n          } else {\n              Checkpoint storage oldCheckPoint = _checkpoints[_checkpoints.length-1];\n              oldCheckPoint.value = uint128(_value);\n          }\n  }\n\n\n  function min(uint256 a, uint256 b) internal pure returns (uint) {\n      return a < b ? a : b;\n  }\n}",
  "sourcePath": "/Users/davidvanisacker/Programming/Ethereum/Proofsuite/ProofCryptoFiat2/contracts/mocks/ProofToken.sol",
  "compiler": {
    "name": "solc",
    "version": "0.4.19+commit.c4cbbb05.Emscripten.clang"
  },
  "schemaVersion": "2.0.0",
  "updatedAt": "2018-06-13T03:05:40.952Z"
}