{
  "contractName": "RewardsStorageProxy",
  "abi": [
    {
      "constant": true,
      "inputs": [
        {
          "name": "_store",
          "type": "address"
        }
      ],
      "name": "getCurrentPoolIndex",
      "outputs": [
        {
          "name": "",
          "type": "uint256"
        }
      ],
      "payable": false,
      "stateMutability": "view",
      "type": "function"
    },
    {
      "constant": true,
      "inputs": [
        {
          "name": "_store",
          "type": "address"
        }
      ],
      "name": "getCurrentEpoch",
      "outputs": [
        {
          "name": "",
          "type": "uint256"
        }
      ],
      "payable": false,
      "stateMutability": "view",
      "type": "function"
    },
    {
      "constant": true,
      "inputs": [
        {
          "name": "_store",
          "type": "address"
        }
      ],
      "name": "getCurrentPoolBalance",
      "outputs": [
        {
          "name": "",
          "type": "uint256"
        }
      ],
      "payable": false,
      "stateMutability": "view",
      "type": "function"
    },
    {
      "constant": true,
      "inputs": [
        {
          "name": "_store",
          "type": "address"
        },
        {
          "name": "_index",
          "type": "uint256"
        }
      ],
      "name": "getNthPoolBalance",
      "outputs": [
        {
          "name": "",
          "type": "uint256"
        }
      ],
      "payable": false,
      "stateMutability": "view",
      "type": "function"
    },
    {
      "constant": true,
      "inputs": [
        {
          "name": "_store",
          "type": "address"
        },
        {
          "name": "_index",
          "type": "uint256"
        }
      ],
      "name": "getNthPoolRemainingDividends",
      "outputs": [
        {
          "name": "",
          "type": "uint256"
        }
      ],
      "payable": false,
      "stateMutability": "view",
      "type": "function"
    },
    {
      "constant": true,
      "inputs": [
        {
          "name": "_store",
          "type": "address"
        },
        {
          "name": "_account",
          "type": "address"
        }
      ],
      "name": "getAccountLastWithdrawal",
      "outputs": [
        {
          "name": "",
          "type": "uint256"
        }
      ],
      "payable": false,
      "stateMutability": "view",
      "type": "function"
    },
    {
      "constant": true,
      "inputs": [
        {
          "name": "_store",
          "type": "address"
        }
      ],
      "name": "getBlocksPerEpoch",
      "outputs": [
        {
          "name": "",
          "type": "uint256"
        }
      ],
      "payable": false,
      "stateMutability": "view",
      "type": "function"
    },
    {
      "constant": false,
      "inputs": [
        {
          "name": "_store",
          "type": "address"
        },
        {
          "name": "_value",
          "type": "uint256"
        }
      ],
      "name": "setCurrentPoolIndex",
      "outputs": [],
      "payable": false,
      "stateMutability": "nonpayable",
      "type": "function"
    },
    {
      "constant": false,
      "inputs": [
        {
          "name": "_store",
          "type": "address"
        },
        {
          "name": "_value",
          "type": "uint256"
        }
      ],
      "name": "setCurrentEpoch",
      "outputs": [],
      "payable": false,
      "stateMutability": "nonpayable",
      "type": "function"
    },
    {
      "constant": false,
      "inputs": [
        {
          "name": "_store",
          "type": "address"
        },
        {
          "name": "_value",
          "type": "uint256"
        }
      ],
      "name": "setCurrentPoolBalance",
      "outputs": [],
      "payable": false,
      "stateMutability": "nonpayable",
      "type": "function"
    },
    {
      "constant": false,
      "inputs": [
        {
          "name": "_store",
          "type": "address"
        },
        {
          "name": "_index",
          "type": "uint256"
        },
        {
          "name": "_value",
          "type": "uint256"
        }
      ],
      "name": "setNthPoolBalance",
      "outputs": [],
      "payable": false,
      "stateMutability": "nonpayable",
      "type": "function"
    },
    {
      "constant": false,
      "inputs": [
        {
          "name": "_store",
          "type": "address"
        },
        {
          "name": "_index",
          "type": "uint256"
        },
        {
          "name": "_value",
          "type": "uint256"
        }
      ],
      "name": "setNthPoolRemainingDividends",
      "outputs": [],
      "payable": false,
      "stateMutability": "nonpayable",
      "type": "function"
    },
    {
      "constant": false,
      "inputs": [
        {
          "name": "_store",
          "type": "address"
        },
        {
          "name": "_account",
          "type": "address"
        },
        {
          "name": "_value",
          "type": "uint256"
        }
      ],
      "name": "setAccountLastWithdrawal",
      "outputs": [],
      "payable": false,
      "stateMutability": "nonpayable",
      "type": "function"
    },
    {
      "constant": false,
      "inputs": [
        {
          "name": "_store",
          "type": "address"
        },
        {
          "name": "_value",
          "type": "uint256"
        }
      ],
      "name": "setBlocksPerEpoch",
      "outputs": [],
      "payable": false,
      "stateMutability": "nonpayable",
      "type": "function"
    },
    {
      "constant": false,
      "inputs": [
        {
          "name": "_store",
          "type": "address"
        },
        {
          "name": "_amount",
          "type": "uint256"
        }
      ],
      "name": "incrementCurrentPoolIndex",
      "outputs": [],
      "payable": false,
      "stateMutability": "nonpayable",
      "type": "function"
    },
    {
      "constant": false,
      "inputs": [
        {
          "name": "_store",
          "type": "address"
        },
        {
          "name": "_amount",
          "type": "uint256"
        }
      ],
      "name": "incrementCurrentEpoch",
      "outputs": [],
      "payable": false,
      "stateMutability": "nonpayable",
      "type": "function"
    },
    {
      "constant": false,
      "inputs": [
        {
          "name": "_store",
          "type": "address"
        },
        {
          "name": "_amount",
          "type": "uint256"
        }
      ],
      "name": "incrementCurrentPoolBalance",
      "outputs": [],
      "payable": false,
      "stateMutability": "nonpayable",
      "type": "function"
    }
  ],
  "bytecode": "0x6060604052341561000f57600080fd5b6116ca8061001e6000396000f3006060604052600436106100f1576000357c0100000000000000000000000000000000000000000000000000000000900463ffffffff168063010ffe96146100f6578063071e316c1461013857806323b526b51461016f578063304191b8146101ba5780634d3223a5146101f15780635658d9c8146102335780635b34e24c1461026a5780635d957314146102a157806390c5adf8146102d8578063929b9bf41461031a578063a0e793bc14610351578063b205d52214610388578063b617188c146103e9578063b6e8bcf414610429578063c384f0a914610469578063c93eddac146104bf578063d1076a931461050a575b600080fd5b610122600480803573ffffffffffffffffffffffffffffffffffffffff1690602001909190505061054c565b6040518082815260200191505060405180910390f35b61016d600480803573ffffffffffffffffffffffffffffffffffffffff16906020019091908035906020019091905050610624565b005b6101a4600480803573ffffffffffffffffffffffffffffffffffffffff169060200190919080359060200190919050506107d5565b6040518082815260200191505060405180910390f35b6101ef600480803573ffffffffffffffffffffffffffffffffffffffff169060200190919080359060200190919050506108b6565b005b61021d600480803573ffffffffffffffffffffffffffffffffffffffff16906020019091905050610981565b6040518082815260200191505060405180910390f35b610268600480803573ffffffffffffffffffffffffffffffffffffffff16906020019091908035906020019091905050610a59565b005b61029f600480803573ffffffffffffffffffffffffffffffffffffffff16906020019091908035906020019091905050610b24565b005b6102d6600480803573ffffffffffffffffffffffffffffffffffffffff16906020019091908035906020019091905050610cd5565b005b610304600480803573ffffffffffffffffffffffffffffffffffffffff16906020019091905050610da0565b6040518082815260200191505060405180910390f35b61034f600480803573ffffffffffffffffffffffffffffffffffffffff16906020019091908035906020019091905050610e78565b005b610386600480803573ffffffffffffffffffffffffffffffffffffffff16906020019091908035906020019091905050610f43565b005b6103d3600480803573ffffffffffffffffffffffffffffffffffffffff1690602001909190803573ffffffffffffffffffffffffffffffffffffffff169060200190919050506110f4565b6040518082815260200191505060405180910390f35b610427600480803573ffffffffffffffffffffffffffffffffffffffff16906020019091908035906020019091908035906020019091905050611210565b005b610467600480803573ffffffffffffffffffffffffffffffffffffffff169060200190919080359060200190919080359060200190919050506112e4565b005b6104bd600480803573ffffffffffffffffffffffffffffffffffffffff1690602001909190803573ffffffffffffffffffffffffffffffffffffffff169060200190919080359060200190919050506113b8565b005b6104f4600480803573ffffffffffffffffffffffffffffffffffffffff169060200190919080359060200190919050506114c7565b6040518082815260200191505060405180910390f35b610536600480803573ffffffffffffffffffffffffffffffffffffffff169060200190919050506115a8565b6040518082815260200191505060405180910390f35b60008173ffffffffffffffffffffffffffffffffffffffff1663bd02d0f560405180807f726577617264732e63757272656e74506f6f6c496e6465780000000000000000815250601801905060405180910390206000604051602001526040518263ffffffff167c0100000000000000000000000000000000000000000000000000000000028152600401808260001916600019168152602001915050602060405180830381600087803b151561060257600080fd5b6102c65a03f1151561061357600080fd5b505050604051805190509050919050565b6000610707828473ffffffffffffffffffffffffffffffffffffffff1663bd02d0f560405180807f726577617264732e63757272656e74506f6f6c496e6465780000000000000000815250601801905060405180910390206000604051602001526040518263ffffffff167c0100000000000000000000000000000000000000000000000000000000028152600401808260001916600019168152602001915050602060405180830381600087803b15156106de57600080fd5b6102c65a03f115156106ef57600080fd5b5050506040518051905061168090919063ffffffff16565b90508273ffffffffffffffffffffffffffffffffffffffff1663e2a4853a60405180807f726577617264732e63757272656e74506f6f6c496e646578000000000000000081525060180190506040518091039020836040518363ffffffff167c010000000000000000000000000000000000000000000000000000000002815260040180836000191660001916815260200182815260200192505050600060405180830381600087803b15156107bc57600080fd5b6102c65a03f115156107cd57600080fd5b505050505050565b60008273ffffffffffffffffffffffffffffffffffffffff1663bd02d0f58360405180807f726577617264732e6e7468506f6f6c52656d61696e696e6742616c616e636500815250601f0182815260200191505060405180910390206000604051602001526040518263ffffffff167c0100000000000000000000000000000000000000000000000000000000028152600401808260001916600019168152602001915050602060405180830381600087803b151561089357600080fd5b6102c65a03f115156108a457600080fd5b50505060405180519050905092915050565b8173ffffffffffffffffffffffffffffffffffffffff1663e2a4853a60405180807f726577617264732e63757272656e74506f6f6c496e646578000000000000000081525060180190506040518091039020836040518363ffffffff167c010000000000000000000000000000000000000000000000000000000002815260040180836000191660001916815260200182815260200192505050600060405180830381600087803b151561096957600080fd5b6102c65a03f1151561097a57600080fd5b5050505050565b60008173ffffffffffffffffffffffffffffffffffffffff1663bd02d0f560405180807f726577617264732e63757272656e7445706f6368000000000000000000000000815250601401905060405180910390206000604051602001526040518263ffffffff167c0100000000000000000000000000000000000000000000000000000000028152600401808260001916600019168152602001915050602060405180830381600087803b1515610a3757600080fd5b6102c65a03f11515610a4857600080fd5b505050604051805190509050919050565b8173ffffffffffffffffffffffffffffffffffffffff1663e2a4853a60405180807f726577617264732e626c6f636b7350657245706f63680000000000000000000081525060160190506040518091039020836040518363ffffffff167c010000000000000000000000000000000000000000000000000000000002815260040180836000191660001916815260200182815260200192505050600060405180830381600087803b1515610b0c57600080fd5b6102c65a03f11515610b1d57600080fd5b5050505050565b6000610c07828473ffffffffffffffffffffffffffffffffffffffff1663bd02d0f560405180807f726577617264732e63757272656e7445706f6368000000000000000000000000815250601401905060405180910390206000604051602001526040518263ffffffff167c0100000000000000000000000000000000000000000000000000000000028152600401808260001916600019168152602001915050602060405180830381600087803b1515610bde57600080fd5b6102c65a03f11515610bef57600080fd5b5050506040518051905061168090919063ffffffff16565b90508273ffffffffffffffffffffffffffffffffffffffff1663e2a4853a60405180807f726577617264732e63757272656e7445706f636800000000000000000000000081525060140190506040518091039020836040518363ffffffff167c010000000000000000000000000000000000000000000000000000000002815260040180836000191660001916815260200182815260200192505050600060405180830381600087803b1515610cbc57600080fd5b6102c65a03f11515610ccd57600080fd5b505050505050565b8173ffffffffffffffffffffffffffffffffffffffff1663e2a4853a60405180807f726577617264732e63757272656e74506f6f6c42616c616e6365000000000000815250601a0190506040518091039020836040518363ffffffff167c010000000000000000000000000000000000000000000000000000000002815260040180836000191660001916815260200182815260200192505050600060405180830381600087803b1515610d8857600080fd5b6102c65a03f11515610d9957600080fd5b5050505050565b60008173ffffffffffffffffffffffffffffffffffffffff1663bd02d0f560405180807f726577617264732e626c6f636b7350657245706f636800000000000000000000815250601601905060405180910390206000604051602001526040518263ffffffff167c0100000000000000000000000000000000000000000000000000000000028152600401808260001916600019168152602001915050602060405180830381600087803b1515610e5657600080fd5b6102c65a03f11515610e6757600080fd5b505050604051805190509050919050565b8173ffffffffffffffffffffffffffffffffffffffff1663e2a4853a60405180807f726577617264732e63757272656e7445706f636800000000000000000000000081525060140190506040518091039020836040518363ffffffff167c010000000000000000000000000000000000000000000000000000000002815260040180836000191660001916815260200182815260200192505050600060405180830381600087803b1515610f2b57600080fd5b6102c65a03f11515610f3c57600080fd5b5050505050565b6000611026828473ffffffffffffffffffffffffffffffffffffffff1663bd02d0f560405180807f726577617264732e63757272656e74506f6f6c42616c616e6365000000000000815250601a01905060405180910390206000604051602001526040518263ffffffff167c0100000000000000000000000000000000000000000000000000000000028152600401808260001916600019168152602001915050602060405180830381600087803b1515610ffd57600080fd5b6102c65a03f1151561100e57600080fd5b5050506040518051905061168090919063ffffffff16565b90508273ffffffffffffffffffffffffffffffffffffffff1663e2a4853a60405180807f726577617264732e63757272656e74506f6f6c42616c616e6365000000000000815250601a0190506040518091039020836040518363ffffffff167c010000000000000000000000000000000000000000000000000000000002815260040180836000191660001916815260200182815260200192505050600060405180830381600087803b15156110db57600080fd5b6102c65a03f115156110ec57600080fd5b505050505050565b60008273ffffffffffffffffffffffffffffffffffffffff1663bd02d0f58360405180807f726577617264732e6163636f756e74732e6c6173745769746864726177616c00815250601f018273ffffffffffffffffffffffffffffffffffffffff1673ffffffffffffffffffffffffffffffffffffffff166c0100000000000000000000000002815260140191505060405180910390206000604051602001526040518263ffffffff167c0100000000000000000000000000000000000000000000000000000000028152600401808260001916600019168152602001915050602060405180830381600087803b15156111ed57600080fd5b6102c65a03f115156111fe57600080fd5b50505060405180519050905092915050565b8273ffffffffffffffffffffffffffffffffffffffff1663e2a4853a8360405180807f726577617264732e6e7468506f6f6c42616c616e6365000000000000000000008152506016018281526020019150506040518091039020836040518363ffffffff167c010000000000000000000000000000000000000000000000000000000002815260040180836000191660001916815260200182815260200192505050600060405180830381600087803b15156112cb57600080fd5b6102c65a03f115156112dc57600080fd5b505050505050565b8273ffffffffffffffffffffffffffffffffffffffff1663e2a4853a8360405180807f726577617264732e6e7468506f6f6c52656d61696e696e6742616c616e636500815250601f018281526020019150506040518091039020836040518363ffffffff167c010000000000000000000000000000000000000000000000000000000002815260040180836000191660001916815260200182815260200192505050600060405180830381600087803b151561139f57600080fd5b6102c65a03f115156113b057600080fd5b505050505050565b8273ffffffffffffffffffffffffffffffffffffffff1663e2a4853a8360405180807f726577617264732e6163636f756e74732e6c6173745769746864726177616c00815250601f018273ffffffffffffffffffffffffffffffffffffffff1673ffffffffffffffffffffffffffffffffffffffff166c010000000000000000000000000281526014019150506040518091039020836040518363ffffffff167c010000000000000000000000000000000000000000000000000000000002815260040180836000191660001916815260200182815260200192505050600060405180830381600087803b15156114ae57600080fd5b6102c65a03f115156114bf57600080fd5b505050505050565b60008273ffffffffffffffffffffffffffffffffffffffff1663bd02d0f58360405180807f726577617264732e6e7468506f6f6c42616c616e63650000000000000000000081525060160182815260200191505060405180910390206000604051602001526040518263ffffffff167c0100000000000000000000000000000000000000000000000000000000028152600401808260001916600019168152602001915050602060405180830381600087803b151561158557600080fd5b6102c65a03f1151561159657600080fd5b50505060405180519050905092915050565b60008173ffffffffffffffffffffffffffffffffffffffff1663bd02d0f560405180807f726577617264732e63757272656e74506f6f6c42616c616e6365000000000000815250601a01905060405180910390206000604051602001526040518263ffffffff167c0100000000000000000000000000000000000000000000000000000000028152600401808260001916600019168152602001915050602060405180830381600087803b151561165e57600080fd5b6102c65a03f1151561166f57600080fd5b505050604051805190509050919050565b600080828401905083811015151561169457fe5b80915050929150505600a165627a7a723058200652972f23a6ef1e054129450f7f551a35752c206083195285c642c707c7b4550029",
  "source": "pragma solidity ^0.4.19;\n\nimport \"../interfaces/StoreInterface.sol\";\nimport \"./SafeMath.sol\";\n\n\nlibrary RewardsStorageProxy {\n\n    using SafeMath for uint256;\n\n    /**\n    * @notice Dividends functions can only be called through the proof network\n    * @notice In its current form, the proof network consists of the Cryptofiat and the AMP Manager contracts\n    * @dev Implement the onlyAuthorized function when writing the ownership model\n    */\n    modifier onlyAuthorized() {\n        _;\n    }\n\n    //getters\n    function getCurrentPoolIndex(address _store) public view returns(uint256) {\n        return StoreInterface(_store).getUint(keccak256(\"rewards.currentPoolIndex\"));\n    }\n\n    function getCurrentEpoch(address _store) public view returns(uint256) {\n        return StoreInterface(_store).getUint(keccak256(\"rewards.currentEpoch\"));\n    }\n\n    function getCurrentPoolBalance(address _store) public view returns(uint256) {\n        return StoreInterface(_store).getUint(keccak256(\"rewards.currentPoolBalance\"));\n    }\n\n    function getNthPoolBalance(address _store, uint256 _index) public view returns(uint256) {\n        return StoreInterface(_store).getUint(keccak256(\"rewards.nthPoolBalance\", _index));\n    }\n\n    function getNthPoolRemainingDividends(address _store, uint256 _index) public view returns(uint256) {\n        return StoreInterface(_store).getUint(keccak256(\"rewards.nthPoolRemainingBalance\", _index));\n    }\n\n    function getAccountLastWithdrawal(address _store, address _account) public view returns(uint256) {\n        return StoreInterface(_store).getUint(keccak256(\"rewards.accounts.lastWithdrawal\", _account));\n    }\n\n    function getBlocksPerEpoch(address _store) public view returns(uint256) {\n        return StoreInterface(_store).getUint(keccak256(\"rewards.blocksPerEpoch\"));\n    }\n\n\n\n    //setters\n    function setCurrentPoolIndex(address _store, uint256 _value) public {\n        StoreInterface(_store).setUint(keccak256(\"rewards.currentPoolIndex\"), _value);\n    }\n\n    function setCurrentEpoch(address _store, uint256 _value) public {\n        StoreInterface(_store).setUint(keccak256(\"rewards.currentEpoch\"), _value);\n    }\n\n    function setCurrentPoolBalance(address _store, uint256 _value) public {\n        StoreInterface(_store).setUint(keccak256(\"rewards.currentPoolBalance\"), _value);\n    }\n\n    function setNthPoolBalance(address _store, uint256 _index, uint256 _value) public {\n        StoreInterface(_store).setUint(keccak256(\"rewards.nthPoolBalance\", _index), _value);\n    }\n\n    function setNthPoolRemainingDividends(address _store, uint256 _index, uint256 _value) public {\n        StoreInterface(_store).setUint(keccak256(\"rewards.nthPoolRemainingBalance\", _index), _value);\n    }\n\n    function setAccountLastWithdrawal(address _store, address _account, uint256 _value) public {\n        StoreInterface(_store).setUint(keccak256(\"rewards.accounts.lastWithdrawal\", _account), _value);\n    }\n\n    function setBlocksPerEpoch(address _store, uint256 _value) public {\n        StoreInterface(_store).setUint(keccak256(\"rewards.blocksPerEpoch\"), _value);\n    }\n\n\n    //helpers\n    function incrementCurrentPoolIndex(address _store, uint256 _amount) public {\n        uint256 newValue = StoreInterface(_store).getUint(keccak256(\"rewards.currentPoolIndex\")).add(_amount);\n        StoreInterface(_store).setUint(keccak256(\"rewards.currentPoolIndex\"), newValue);\n    }\n\n    function incrementCurrentEpoch(address _store, uint256 _amount) public {\n        uint256 newValue = StoreInterface(_store).getUint(keccak256(\"rewards.currentEpoch\")).add(_amount);\n        StoreInterface(_store).setUint(keccak256(\"rewards.currentEpoch\"), newValue);\n    }\n\n    function incrementCurrentPoolBalance(address _store, uint256 _amount) public {\n        uint256 newValue = StoreInterface(_store).getUint(keccak256(\"rewards.currentPoolBalance\")).add(_amount);\n        StoreInterface(_store).setUint(keccak256(\"rewards.currentPoolBalance\"), newValue);\n    }\n}",
  "sourcePath": "/Users/davidvanisacker/Programming/Ethereum/Proofsuite/ProofCryptoFiat2/contracts/libraries/RewardsStorageProxy.sol",
  "compiler": {
    "name": "solc",
    "version": "0.4.19+commit.c4cbbb05.Emscripten.clang"
  },
  "schemaVersion": "2.0.0",
  "updatedAt": "2018-06-13T03:05:40.927Z"
}