{
  "contractName": "Rewards",
  "abi": [
    {
      "constant": true,
      "inputs": [],
      "name": "proofToken",
      "outputs": [
        {
          "name": "",
          "type": "address"
        }
      ],
      "payable": false,
      "stateMutability": "view",
      "type": "function"
    },
    {
      "constant": true,
      "inputs": [],
      "name": "store",
      "outputs": [
        {
          "name": "",
          "type": "address"
        }
      ],
      "payable": false,
      "stateMutability": "view",
      "type": "function"
    },
    {
      "inputs": [
        {
          "name": "_storeAddress",
          "type": "address"
        },
        {
          "name": "_PRFTAddress",
          "type": "address"
        }
      ],
      "payable": false,
      "stateMutability": "nonpayable",
      "type": "constructor"
    },
    {
      "payable": true,
      "stateMutability": "payable",
      "type": "fallback"
    },
    {
      "constant": true,
      "inputs": [],
      "name": "getCurrentPoolBalance",
      "outputs": [
        {
          "name": "",
          "type": "uint256"
        }
      ],
      "payable": false,
      "stateMutability": "view",
      "type": "function"
    },
    {
      "constant": true,
      "inputs": [
        {
          "name": "_index",
          "type": "uint256"
        }
      ],
      "name": "getNthPoolBalance",
      "outputs": [
        {
          "name": "",
          "type": "uint256"
        }
      ],
      "payable": false,
      "stateMutability": "view",
      "type": "function"
    },
    {
      "constant": false,
      "inputs": [],
      "name": "receiveRewards",
      "outputs": [],
      "payable": true,
      "stateMutability": "payable",
      "type": "function"
    },
    {
      "constant": false,
      "inputs": [],
      "name": "withdrawRewards",
      "outputs": [],
      "payable": false,
      "stateMutability": "nonpayable",
      "type": "function"
    },
    {
      "constant": true,
      "inputs": [],
      "name": "getCurrentEpoch",
      "outputs": [
        {
          "name": "currentEpoch",
          "type": "uint256"
        }
      ],
      "payable": false,
      "stateMutability": "view",
      "type": "function"
    },
    {
      "constant": true,
      "inputs": [
        {
          "name": "_epoch",
          "type": "uint256"
        }
      ],
      "name": "getBlockNumberAtEpochStart",
      "outputs": [
        {
          "name": "blockNumber",
          "type": "uint256"
        }
      ],
      "payable": false,
      "stateMutability": "view",
      "type": "function"
    },
    {
      "constant": true,
      "inputs": [],
      "name": "getCurrentPoolIndex",
      "outputs": [
        {
          "name": "poolIndex",
          "type": "uint256"
        }
      ],
      "payable": false,
      "stateMutability": "view",
      "type": "function"
    }
  ],
  "bytecode": "0x6060604052341561000f57600080fd5b604051604080611af783398101604052808051906020019091908051906020019091905050816000806101000a81548173ffffffffffffffffffffffffffffffffffffffff021916908373ffffffffffffffffffffffffffffffffffffffff16021790555080600160006101000a81548173ffffffffffffffffffffffffffffffffffffffff021916908373ffffffffffffffffffffffffffffffffffffffff1602179055505050611a31806100c66000396000f300606060405260043610610099576000357c0100000000000000000000000000000000000000000000000000000000900463ffffffff1680630e94a0ee1461009e57806311e87188146100f3578063631cbe3c1461011c578063975057e7146101265780639f59ec391461017b578063b97dd9e2146101b2578063c7b8981c146101db578063ca6aa723146101f0578063cc947f3914610227575b600080fd5b34156100a957600080fd5b6100b1610250565b604051808273ffffffffffffffffffffffffffffffffffffffff1673ffffffffffffffffffffffffffffffffffffffff16815260200191505060405180910390f35b34156100fe57600080fd5b610106610276565b6040518082815260200191505060405180910390f35b610124610370565b005b341561013157600080fd5b61013961093a565b604051808273ffffffffffffffffffffffffffffffffffffffff1673ffffffffffffffffffffffffffffffffffffffff16815260200191505060405180910390f35b341561018657600080fd5b61019c600480803590602001909190505061095f565b6040518082815260200191505060405180910390f35b34156101bd57600080fd5b6101c5610b5f565b6040518082815260200191505060405180910390f35b34156101e657600080fd5b6101ee610d66565b005b34156101fb57600080fd5b6102116004808035906020019091905050611807565b6040518082815260200191505060405180910390f35b341561023257600080fd5b61023a61190b565b6040518082815260200191505060405180910390f35b600160009054906101000a900473ffffffffffffffffffffffffffffffffffffffff1681565b60008060009054906101000a900473ffffffffffffffffffffffffffffffffffffffff1673ffffffffffffffffffffffffffffffffffffffff1673__RewardsStorageProxy___________________63d1076a9390916000604051602001526040518263ffffffff167c0100000000000000000000000000000000000000000000000000000000028152600401808273ffffffffffffffffffffffffffffffffffffffff1673ffffffffffffffffffffffffffffffffffffffff16815260200191505060206040518083038186803b151561035057600080fd5b6102c65a03f4151561036157600080fd5b50505060405180519050905090565b6000806000803411151561038357600080fd5b6000809054906101000a900473ffffffffffffffffffffffffffffffffffffffff1673ffffffffffffffffffffffffffffffffffffffff1673__RewardsStorageProxy___________________634d3223a590916000604051602001526040518263ffffffff167c0100000000000000000000000000000000000000000000000000000000028152600401808273ffffffffffffffffffffffffffffffffffffffff1673ffffffffffffffffffffffffffffffffffffffff16815260200191505060206040518083038186803b151561045b57600080fd5b6102c65a03f4151561046c57600080fd5b505050604051805190509250610480610b5f565b91508282111561084a576000809054906101000a900473ffffffffffffffffffffffffffffffffffffffff1673ffffffffffffffffffffffffffffffffffffffff1673__RewardsStorageProxy___________________63d1076a9390916000604051602001526040518263ffffffff167c0100000000000000000000000000000000000000000000000000000000028152600401808273ffffffffffffffffffffffffffffffffffffffff1673ffffffffffffffffffffffffffffffffffffffff16815260200191505060206040518083038186803b151561056257600080fd5b6102c65a03f4151561057357600080fd5b5050506040518051905090506000809054906101000a900473ffffffffffffffffffffffffffffffffffffffff1673ffffffffffffffffffffffffffffffffffffffff1673__RewardsStorageProxy___________________63b617188c909185846040518463ffffffff167c0100000000000000000000000000000000000000000000000000000000028152600401808473ffffffffffffffffffffffffffffffffffffffff1673ffffffffffffffffffffffffffffffffffffffff168152602001838152602001828152602001935050505060006040518083038186803b151561065e57600080fd5b6102c65a03f4151561066f57600080fd5b5050506000809054906101000a900473ffffffffffffffffffffffffffffffffffffffff1673ffffffffffffffffffffffffffffffffffffffff1673__RewardsStorageProxy___________________635d957314909160006040518363ffffffff167c0100000000000000000000000000000000000000000000000000000000028152600401808373ffffffffffffffffffffffffffffffffffffffff1673ffffffffffffffffffffffffffffffffffffffff1681526020018281526020019250505060006040518083038186803b151561074a57600080fd5b6102c65a03f4151561075b57600080fd5b5050506000809054906101000a900473ffffffffffffffffffffffffffffffffffffffff1673ffffffffffffffffffffffffffffffffffffffff1673__RewardsStorageProxy___________________63929b9bf49091846040518363ffffffff167c0100000000000000000000000000000000000000000000000000000000028152600401808373ffffffffffffffffffffffffffffffffffffffff1673ffffffffffffffffffffffffffffffffffffffff1681526020018281526020019250505060006040518083038186803b151561083557600080fd5b6102c65a03f4151561084657600080fd5b5050505b6000809054906101000a900473ffffffffffffffffffffffffffffffffffffffff1673ffffffffffffffffffffffffffffffffffffffff1673__RewardsStorageProxy___________________63a0e793bc9091346040518363ffffffff167c0100000000000000000000000000000000000000000000000000000000028152600401808373ffffffffffffffffffffffffffffffffffffffff1673ffffffffffffffffffffffffffffffffffffffff1681526020018281526020019250505060006040518083038186803b151561092157600080fd5b6102c65a03f4151561093257600080fd5b505050505050565b6000809054906101000a900473ffffffffffffffffffffffffffffffffffffffff1681565b60008060008060009054906101000a900473ffffffffffffffffffffffffffffffffffffffff1673ffffffffffffffffffffffffffffffffffffffff1673__CryptoFiatStorageProxy________________637dda410790916000604051602001526040518263ffffffff167c0100000000000000000000000000000000000000000000000000000000028152600401808273ffffffffffffffffffffffffffffffffffffffff1673ffffffffffffffffffffffffffffffffffffffff16815260200191505060206040518083038186803b1515610a3c57600080fd5b6102c65a03f41515610a4d57600080fd5b5050506040518051905091506000809054906101000a900473ffffffffffffffffffffffffffffffffffffffff1673ffffffffffffffffffffffffffffffffffffffff1673__RewardsStorageProxy___________________6390c5adf890916000604051602001526040518263ffffffff167c0100000000000000000000000000000000000000000000000000000000028152600401808273ffffffffffffffffffffffffffffffffffffffff1673ffffffffffffffffffffffffffffffffffffffff16815260200191505060206040518083038186803b1515610b3157600080fd5b6102c65a03f41515610b4257600080fd5b505050604051805190509050838102820192508292505050919050565b60008060008060009054906101000a900473ffffffffffffffffffffffffffffffffffffffff1673ffffffffffffffffffffffffffffffffffffffff1673__CryptoFiatStorageProxy________________637dda410790916000604051602001526040518263ffffffff167c0100000000000000000000000000000000000000000000000000000000028152600401808273ffffffffffffffffffffffffffffffffffffffff1673ffffffffffffffffffffffffffffffffffffffff16815260200191505060206040518083038186803b1515610c3c57600080fd5b6102c65a03f41515610c4d57600080fd5b5050506040518051905091506000809054906101000a900473ffffffffffffffffffffffffffffffffffffffff1673ffffffffffffffffffffffffffffffffffffffff1673__RewardsStorageProxy___________________6390c5adf890916000604051602001526040518263ffffffff167c0100000000000000000000000000000000000000000000000000000000028152600401808273ffffffffffffffffffffffffffffffffffffffff1673ffffffffffffffffffffffffffffffffffffffff16815260200191505060206040518083038186803b1515610d3157600080fd5b6102c65a03f41515610d4257600080fd5b50505060405180519050905080824303811515610d5b57fe5b049250829250505090565b60008060008060008060008060008060003373ffffffffffffffffffffffffffffffffffffffff1614151515610d9b57600080fd5b6000809054906101000a900473ffffffffffffffffffffffffffffffffffffffff1673ffffffffffffffffffffffffffffffffffffffff1673__RewardsStorageProxy___________________634d3223a590916000604051602001526040518263ffffffff167c0100000000000000000000000000000000000000000000000000000000028152600401808273ffffffffffffffffffffffffffffffffffffffff1673ffffffffffffffffffffffffffffffffffffffff16815260200191505060206040518083038186803b1515610e7357600080fd5b6102c65a03f41515610e8457600080fd5b505050604051805190509950610e98610b5f565b98508989141515611263576000809054906101000a900473ffffffffffffffffffffffffffffffffffffffff1673ffffffffffffffffffffffffffffffffffffffff1673__RewardsStorageProxy___________________63d1076a9390916000604051602001526040518263ffffffff167c0100000000000000000000000000000000000000000000000000000000028152600401808273ffffffffffffffffffffffffffffffffffffffff1673ffffffffffffffffffffffffffffffffffffffff16815260200191505060206040518083038186803b1515610f7b57600080fd5b6102c65a03f41515610f8c57600080fd5b5050506040518051905097506000809054906101000a900473ffffffffffffffffffffffffffffffffffffffff1673ffffffffffffffffffffffffffffffffffffffff1673__RewardsStorageProxy___________________63b617188c90918c8b6040518463ffffffff167c0100000000000000000000000000000000000000000000000000000000028152600401808473ffffffffffffffffffffffffffffffffffffffff1673ffffffffffffffffffffffffffffffffffffffff168152602001838152602001828152602001935050505060006040518083038186803b151561107757600080fd5b6102c65a03f4151561108857600080fd5b5050506000809054906101000a900473ffffffffffffffffffffffffffffffffffffffff1673ffffffffffffffffffffffffffffffffffffffff1673__RewardsStorageProxy___________________635d957314909160006040518363ffffffff167c0100000000000000000000000000000000000000000000000000000000028152600401808373ffffffffffffffffffffffffffffffffffffffff1673ffffffffffffffffffffffffffffffffffffffff1681526020018281526020019250505060006040518083038186803b151561116357600080fd5b6102c65a03f4151561117457600080fd5b5050506000809054906101000a900473ffffffffffffffffffffffffffffffffffffffff1673ffffffffffffffffffffffffffffffffffffffff1673__RewardsStorageProxy___________________63929b9bf490918b6040518363ffffffff167c0100000000000000000000000000000000000000000000000000000000028152600401808373ffffffffffffffffffffffffffffffffffffffff1673ffffffffffffffffffffffffffffffffffffffff1681526020018281526020019250505060006040518083038186803b151561124e57600080fd5b6102c65a03f4151561125f57600080fd5b5050505b600096506000809054906101000a900473ffffffffffffffffffffffffffffffffffffffff1673ffffffffffffffffffffffffffffffffffffffff1673__RewardsStorageProxy___________________63b205d5229091336000604051602001526040518363ffffffff167c0100000000000000000000000000000000000000000000000000000000028152600401808373ffffffffffffffffffffffffffffffffffffffff1673ffffffffffffffffffffffffffffffffffffffff1681526020018273ffffffffffffffffffffffffffffffffffffffff1673ffffffffffffffffffffffffffffffffffffffff1681526020019250505060206040518083038186803b151561137357600080fd5b6102c65a03f4151561138457600080fd5b50505060405180519050955088861415151561139f57600080fd5b8594505b88851015611667576113b48561095f565b9350600160009054906101000a900473ffffffffffffffffffffffffffffffffffffffff1673ffffffffffffffffffffffffffffffffffffffff16634ee2cd7e33866000604051602001526040518363ffffffff167c0100000000000000000000000000000000000000000000000000000000028152600401808373ffffffffffffffffffffffffffffffffffffffff1673ffffffffffffffffffffffffffffffffffffffff16815260200182815260200192505050602060405180830381600087803b151561148357600080fd5b6102c65a03f1151561149457600080fd5b505050604051805190509250600160009054906101000a900473ffffffffffffffffffffffffffffffffffffffff1673ffffffffffffffffffffffffffffffffffffffff166318160ddd6000604051602001526040518163ffffffff167c0100000000000000000000000000000000000000000000000000000000028152600401602060405180830381600087803b151561152e57600080fd5b6102c65a03f1151561153f57600080fd5b50505060405180519050915081836000809054906101000a900473ffffffffffffffffffffffffffffffffffffffff1673ffffffffffffffffffffffffffffffffffffffff1673__RewardsStorageProxy___________________63c93eddac9091896000604051602001526040518363ffffffff167c0100000000000000000000000000000000000000000000000000000000028152600401808373ffffffffffffffffffffffffffffffffffffffff1673ffffffffffffffffffffffffffffffffffffffff1681526020018281526020019250505060206040518083038186803b151561162d57600080fd5b6102c65a03f4151561163e57600080fd5b505050604051805190500281151561165257fe5b049050808701965084806001019550506113a3565b6000871415151561167757600080fd5b3073ffffffffffffffffffffffffffffffffffffffff16318710151561169c57600080fd5b6000809054906101000a900473ffffffffffffffffffffffffffffffffffffffff1673ffffffffffffffffffffffffffffffffffffffff1673__RewardsStorageProxy___________________63c384f0a99091338c6040518463ffffffff167c0100000000000000000000000000000000000000000000000000000000028152600401808473ffffffffffffffffffffffffffffffffffffffff1673ffffffffffffffffffffffffffffffffffffffff1681526020018373ffffffffffffffffffffffffffffffffffffffff1673ffffffffffffffffffffffffffffffffffffffff168152602001828152602001935050505060006040518083038186803b15156117a757600080fd5b6102c65a03f415156117b857600080fd5b5050503373ffffffffffffffffffffffffffffffffffffffff166108fc889081150290604051600060405180830381858888f1935050505015156117fb57600080fd5b50505050505050505050565b60008060009054906101000a900473ffffffffffffffffffffffffffffffffffffffff1673ffffffffffffffffffffffffffffffffffffffff1673__RewardsStorageProxy___________________63c93eddac9091846000604051602001526040518363ffffffff167c0100000000000000000000000000000000000000000000000000000000028152600401808373ffffffffffffffffffffffffffffffffffffffff1673ffffffffffffffffffffffffffffffffffffffff1681526020018281526020019250505060206040518083038186803b15156118e957600080fd5b6102c65a03f415156118fa57600080fd5b505050604051805190509050919050565b60008060009054906101000a900473ffffffffffffffffffffffffffffffffffffffff1673ffffffffffffffffffffffffffffffffffffffff1673__RewardsStorageProxy___________________63010ffe9690916000604051602001526040518263ffffffff167c0100000000000000000000000000000000000000000000000000000000028152600401808273ffffffffffffffffffffffffffffffffffffffff1673ffffffffffffffffffffffffffffffffffffffff16815260200191505060206040518083038186803b15156119e557600080fd5b6102c65a03f415156119f657600080fd5b505050604051805190509050905600a165627a7a72305820fe4415794d61e25d6ddfc3789c220ac78d5858230630ce5ea47eadb878299c5d0029",
  "source": "pragma solidity ^0.4.19;\nimport \"./utils/Ownable.sol\";\nimport \"./interfaces/ProofTokenInterface.sol\";\nimport \"./libraries/SafeMath.sol\";\nimport \"./libraries/CryptoFiatStorageProxy.sol\";\nimport \"./libraries/RewardsStorageProxy.sol\";\n\ncontract Rewards {\n\n  using SafeMath for uint256;\n  using RewardsStorageProxy for address;\n  using CryptoFiatStorageProxy for address;\n\n  address public store;\n  ProofTokenInterface public proofToken;\n\n\n\n  /**\n   * The rewards contracts handles all logic relative to the rewards for Proof Token Holders.\n   * The rewards are allocated in different pools that each represent a certain epoch. The first\n   * epoch starts on the store contract creation and lasts for a certain amount of blocks. The rewards\n   * for each epoch are allocated to addresses in respect of the proportion of proof tokens they own at the\n   * beginning of that epoch.\n   *\n   * @param _storeAddress {address} - Address of the Proof storage contract\n   * @param _PRFTAddress {address} - Address of the Proof token address\n   */\n  function Rewards(address _storeAddress, address _PRFTAddress) public {\n    store = _storeAddress;\n    proofToken = ProofTokenInterface(_PRFTAddress);\n  }\n\n  /**\n  * Simple ether transactions are reverted\n  */\n  function () public payable {\n    revert();\n  }\n\n\n  /**\n  * Returns the balance of the current rewards pool. The current rewards pool is incremented\n  * everytime the receiveRewards() function is called. When a new epoch starts, the current pool\n  * balance is set to 0 and transfer to the pool balance corresponding to the epoch index\n  *\n  * @return {uint256} - Current Pool Balance\n  */\n  function getCurrentPoolBalance() public constant returns (uint256) {\n    return store.getCurrentPoolBalance();\n  }\n\n  /**\n  * Returns the balance of the rewards pool corresponding to the _index argument.\n\n  * @param _index {uint256}\n  * @return {uint256} - Nth pool balance\n  */\n  function getNthPoolBalance(uint256 _index) public constant returns (uint256) {\n    return store.getNthPoolBalance(_index);\n  }\n\n  /**\n  * receiveRewards() updates the current pool balance with the received value.\n  * In addition to that, it also checks if a new epoch has been reached. If a new epoch is reached:\n  * - the pool balance corresponding to the current epoch is set to the current pool balance\n  * - the current pool balance is set to 0\n  * - the current epoch is incremented\n  */\n  function receiveRewards() public payable {\n    require(msg.value > 0);\n\n    uint256 lastEpoch = store.getCurrentEpoch();\n    uint256 currentEpoch = getCurrentEpoch();\n\n    if (currentEpoch > lastEpoch) {\n      uint256 currentPoolBalance = store.getCurrentPoolBalance();\n      store.setNthPoolBalance(lastEpoch, currentPoolBalance);\n      store.setCurrentPoolBalance(0);\n      store.setCurrentEpoch(currentEpoch);\n    }\n\n    store.incrementCurrentPoolBalance(msg.value);\n  }\n\n  /**\n  * withdrawRewards() sends proof rewards to the msg.sender address.\n  * First, withdrawRewards() checks if a new epoch has been reached. If a new epoch is reached:\n  * - the pool balance corresponding to the current epoch is set to the current pool balance\n  * - the current pool balance is set to 0\n  * - the current epoch is incremented\n  *\n  * The amount of rewards for each address for an epoch N is equal to:\n  *   NthPoolBalance * balanceAtEpochStart / totalSupply\n  * where:\n  * - NthPoolBalance is the pool balance corresponding to epoch N\n  * - balanceAtEpochStart is the proof token balance of msg.sender at the start of epoch N\n  * - totalSupply is the total supply of proof tokens\n  * The total reward amount is therefore equal to the sum of rewards by epoch over all epochs\n  * after the last withdrawal by the same address has been made.\n  *\n  * If the rewards request is valid and accepted, the last withdrawal is set to the current epoch\n  * and the reward value is sent to the msg.sender\n  */\n  function withdrawRewards() public {\n    require(msg.sender != 0x0);\n\n    uint256 lastEpoch = store.getCurrentEpoch();\n    uint256 currentEpoch = getCurrentEpoch();\n\n    if (currentEpoch != lastEpoch) {\n      uint256 currentPoolBalance = store.getCurrentPoolBalance();\n      store.setNthPoolBalance(lastEpoch, currentPoolBalance);\n      store.setCurrentPoolBalance(0);\n      store.setCurrentEpoch(currentEpoch);\n    }\n\n    uint256 withdrawalValue = 0;\n    uint256 lastWithdrawal = store.getAccountLastWithdrawal(msg.sender);\n    require(lastWithdrawal != currentEpoch);\n\n    for (uint256 i = lastWithdrawal; i < currentEpoch; i++) {\n      uint256 blockNumberAtEpochStart = getBlockNumberAtEpochStart(i);\n      uint256 balanceAtEpochStart = proofToken.balanceOfAt(msg.sender, blockNumberAtEpochStart);\n      uint256 totalSupply = proofToken.totalSupply();\n      uint256 currentPoolValue = (store.getNthPoolBalance(i) * balanceAtEpochStart) / totalSupply;\n      withdrawalValue = withdrawalValue + currentPoolValue;\n    }\n\n    require(withdrawalValue != 0);\n    require(withdrawalValue < this.balance);\n    store.setAccountLastWithdrawal(msg.sender, currentEpoch);\n    msg.sender.transfer(withdrawalValue);\n  }\n\n  /**\n   * Epochs separate the different pools of rewards (see description of withdrawRewards() and receiveRewards())\n   * @return currentEpoch {uint256} - Number corresponding to the current epoch\n   */\n  function getCurrentEpoch() public view returns(uint256 currentEpoch) {\n    uint256 creationBlockNumber = store.getCreationBlockNumber();\n    uint256 blocksPerEpoch = store.getBlocksPerEpoch();\n\n    currentEpoch = (block.number - creationBlockNumber) / blocksPerEpoch;\n    return currentEpoch;\n  }\n\n  /**\n   * getBlockNumberAtEpochStart() returns the block number corresponding to the start of an epoch.\n   * The first epoch is set to start when the cryptofiat network is initially deployed\n   *\n   * @param _epoch {uint256}\n   * @return blockNumber {uint256}\n   */\n  function getBlockNumberAtEpochStart(uint256 _epoch) public view returns(uint256 blockNumber) {\n    uint256 creationBlockNumber = store.getCreationBlockNumber();\n    uint256 blocksPerEpoch = store.getBlocksPerEpoch();\n    blockNumber = creationBlockNumber + blocksPerEpoch * _epoch;\n\n    return blockNumber;\n  }\n\n\n  function getCurrentPoolIndex() public view returns(uint256 poolIndex) {\n    return store.getCurrentPoolIndex();\n  }\n\n}",
  "sourcePath": "/Users/davidvanisacker/Programming/Ethereum/Proofsuite/ProofCryptoFiat2/contracts/Rewards.sol",
  "compiler": {
    "name": "solc",
    "version": "0.4.19+commit.c4cbbb05.Emscripten.clang"
  },
  "schemaVersion": "2.0.0",
  "updatedAt": "2018-06-13T03:05:41.011Z"
}