{
  "contractName": "Secured",
  "abi": [
    {
      "constant": false,
      "inputs": [],
      "name": "lockOwnership",
      "outputs": [],
      "payable": false,
      "stateMutability": "nonpayable",
      "type": "function"
    },
    {
      "constant": true,
      "inputs": [
        {
          "name": "",
          "type": "uint256"
        }
      ],
      "name": "authorized",
      "outputs": [
        {
          "name": "",
          "type": "address"
        }
      ],
      "payable": false,
      "stateMutability": "view",
      "type": "function"
    },
    {
      "constant": true,
      "inputs": [],
      "name": "authorizationsLocked",
      "outputs": [
        {
          "name": "",
          "type": "bool"
        }
      ],
      "payable": false,
      "stateMutability": "view",
      "type": "function"
    },
    {
      "constant": true,
      "inputs": [],
      "name": "owner",
      "outputs": [
        {
          "name": "",
          "type": "address"
        }
      ],
      "payable": false,
      "stateMutability": "view",
      "type": "function"
    },
    {
      "constant": true,
      "inputs": [],
      "name": "locked",
      "outputs": [
        {
          "name": "",
          "type": "bool"
        }
      ],
      "payable": false,
      "stateMutability": "view",
      "type": "function"
    },
    {
      "constant": false,
      "inputs": [
        {
          "name": "newOwner",
          "type": "address"
        }
      ],
      "name": "transferOwnership",
      "outputs": [],
      "payable": false,
      "stateMutability": "nonpayable",
      "type": "function"
    },
    {
      "constant": true,
      "inputs": [
        {
          "name": "",
          "type": "address"
        }
      ],
      "name": "isAuthorized",
      "outputs": [
        {
          "name": "",
          "type": "bool"
        }
      ],
      "payable": false,
      "stateMutability": "view",
      "type": "function"
    },
    {
      "inputs": [],
      "payable": false,
      "stateMutability": "nonpayable",
      "type": "constructor"
    },
    {
      "constant": false,
      "inputs": [
        {
          "name": "_address",
          "type": "address"
        }
      ],
      "name": "authorizeAccess",
      "outputs": [],
      "payable": false,
      "stateMutability": "nonpayable",
      "type": "function"
    },
    {
      "constant": false,
      "inputs": [
        {
          "name": "_address",
          "type": "address"
        }
      ],
      "name": "revokeAccess",
      "outputs": [],
      "payable": false,
      "stateMutability": "nonpayable",
      "type": "function"
    },
    {
      "constant": false,
      "inputs": [
        {
          "name": "_address",
          "type": "address"
        },
        {
          "name": "_newAddress",
          "type": "address"
        }
      ],
      "name": "replaceAccess",
      "outputs": [],
      "payable": false,
      "stateMutability": "nonpayable",
      "type": "function"
    },
    {
      "constant": true,
      "inputs": [],
      "name": "getAuthorizations",
      "outputs": [
        {
          "name": "",
          "type": "address[]"
        }
      ],
      "payable": false,
      "stateMutability": "view",
      "type": "function"
    },
    {
      "constant": false,
      "inputs": [],
      "name": "lockAuthorizations",
      "outputs": [
        {
          "name": "success",
          "type": "bool"
        }
      ],
      "payable": false,
      "stateMutability": "nonpayable",
      "type": "function"
    }
  ],
  "bytecode": "0x6060604052341561000f57600080fd5b336000806101000a81548173ffffffffffffffffffffffffffffffffffffffff021916908373ffffffffffffffffffffffffffffffffffffffff160217905550610d918061005e6000396000f3006060604052600436106100ba576000357c0100000000000000000000000000000000000000000000000000000000900463ffffffff1680630577c02b146100bf5780630d48669a146100d45780636d75b137146101375780637f35ff7d1461016457806385e68531146101ce5780638da5cb5b1461020757806396874c501461025c578063b7215e5014610289578063cf309012146102e1578063eed142181461030e578063f2fde38b14610347578063fe9fbb8014610380575b600080fd5b34156100ca57600080fd5b6100d26103d1565b005b34156100df57600080fd5b6100f56004808035906020019091905050610449565b604051808273ffffffffffffffffffffffffffffffffffffffff1673ffffffffffffffffffffffffffffffffffffffff16815260200191505060405180910390f35b341561014257600080fd5b61014a610488565b604051808215151515815260200191505060405180910390f35b341561016f57600080fd5b61017761049b565b6040518080602001828103825283818151815260200191508051906020019060200280838360005b838110156101ba57808201518184015260208101905061019f565b505050509050019250505060405180910390f35b34156101d957600080fd5b610205600480803573ffffffffffffffffffffffffffffffffffffffff1690602001909190505061052f565b005b341561021257600080fd5b61021a61076f565b604051808273ffffffffffffffffffffffffffffffffffffffff1673ffffffffffffffffffffffffffffffffffffffff16815260200191505060405180910390f35b341561026757600080fd5b61026f610794565b604051808215151515815260200191505060405180910390f35b341561029457600080fd5b6102df600480803573ffffffffffffffffffffffffffffffffffffffff1690602001909190803573ffffffffffffffffffffffffffffffffffffffff16906020019091905050610813565b005b34156102ec57600080fd5b6102f4610a52565b604051808215151515815260200191505060405180910390f35b341561031957600080fd5b610345600480803573ffffffffffffffffffffffffffffffffffffffff16906020019091905050610a65565b005b341561035257600080fd5b61037e600480803573ffffffffffffffffffffffffffffffffffffffff16906020019091905050610bc0565b005b341561038b57600080fd5b6103b7600480803573ffffffffffffffffffffffffffffffffffffffff16906020019091905050610cb4565b604051808215151515815260200191505060405180910390f35b6000809054906101000a900473ffffffffffffffffffffffffffffffffffffffff1673ffffffffffffffffffffffffffffffffffffffff163373ffffffffffffffffffffffffffffffffffffffff1614151561042c57600080fd5b6001600060146101000a81548160ff021916908315150217905550565b60018181548110151561045857fe5b90600052602060002090016000915054906101000a900473ffffffffffffffffffffffffffffffffffffffff1681565b600360009054906101000a900460ff1681565b6104a3610cd4565b600180548060200260200160405190810160405280929190818152602001828054801561052557602002820191906000526020600020905b8160009054906101000a900473ffffffffffffffffffffffffffffffffffffffff1673ffffffffffffffffffffffffffffffffffffffff16815260200190600101908083116104db575b5050505050905090565b60008060009054906101000a900473ffffffffffffffffffffffffffffffffffffffff1673ffffffffffffffffffffffffffffffffffffffff163373ffffffffffffffffffffffffffffffffffffffff1614151561058c57600080fd5b60003373ffffffffffffffffffffffffffffffffffffffff16141515156105b257600080fd5b600360009054906101000a900460ff161515156105ce57600080fd5b6000600260008473ffffffffffffffffffffffffffffffffffffffff1673ffffffffffffffffffffffffffffffffffffffff16815260200190815260200160002060006101000a81548160ff021916908315150217905550600090505b600180805490500381101561076b578173ffffffffffffffffffffffffffffffffffffffff1660018281548110151561066057fe5b906000526020600020900160009054906101000a900473ffffffffffffffffffffffffffffffffffffffff1673ffffffffffffffffffffffffffffffffffffffff161415610746576001808080549050038154811015156106bd57fe5b906000526020600020900160009054906101000a900473ffffffffffffffffffffffffffffffffffffffff166001828154811015156106f857fe5b906000526020600020900160006101000a81548173ffffffffffffffffffffffffffffffffffffffff021916908373ffffffffffffffffffffffffffffffffffffffff16021790555061076b565b6001808181805490500391508161075d9190610ce8565b50808060010191505061062b565b5050565b6000809054906101000a900473ffffffffffffffffffffffffffffffffffffffff1681565b60008060009054906101000a900473ffffffffffffffffffffffffffffffffffffffff1673ffffffffffffffffffffffffffffffffffffffff163373ffffffffffffffffffffffffffffffffffffffff161415156107f157600080fd5b6001600360006101000a81548160ff0219169083151502179055506001905090565b60008060009054906101000a900473ffffffffffffffffffffffffffffffffffffffff1673ffffffffffffffffffffffffffffffffffffffff163373ffffffffffffffffffffffffffffffffffffffff1614151561087057600080fd5b60003373ffffffffffffffffffffffffffffffffffffffff161415151561089657600080fd5b600360009054906101000a900460ff161515156108b257600080fd5b600090505b60018054905081101561099d578273ffffffffffffffffffffffffffffffffffffffff166001828154811015156108ea57fe5b906000526020600020900160009054906101000a900473ffffffffffffffffffffffffffffffffffffffff1673ffffffffffffffffffffffffffffffffffffffff161415610990578160018281548110151561094257fe5b906000526020600020900160006101000a81548173ffffffffffffffffffffffffffffffffffffffff021916908373ffffffffffffffffffffffffffffffffffffffff16021790555061099d565b80806001019150506108b7565b6000600260008573ffffffffffffffffffffffffffffffffffffffff1673ffffffffffffffffffffffffffffffffffffffff16815260200190815260200160002060006101000a81548160ff0219169083151502179055506001600260008473ffffffffffffffffffffffffffffffffffffffff1673ffffffffffffffffffffffffffffffffffffffff16815260200190815260200160002060006101000a81548160ff021916908315150217905550505050565b600060149054906101000a900460ff1681565b6000809054906101000a900473ffffffffffffffffffffffffffffffffffffffff1673ffffffffffffffffffffffffffffffffffffffff163373ffffffffffffffffffffffffffffffffffffffff16141515610ac057600080fd5b60003373ffffffffffffffffffffffffffffffffffffffff1614151515610ae657600080fd5b600360009054906101000a900460ff16151515610b0257600080fd5b6001600260008373ffffffffffffffffffffffffffffffffffffffff1673ffffffffffffffffffffffffffffffffffffffff16815260200190815260200160002060006101000a81548160ff02191690831515021790555060018054806001018281610b6e9190610d14565b9160005260206000209001600083909190916101000a81548173ffffffffffffffffffffffffffffffffffffffff021916908373ffffffffffffffffffffffffffffffffffffffff1602179055505050565b6000809054906101000a900473ffffffffffffffffffffffffffffffffffffffff1673ffffffffffffffffffffffffffffffffffffffff163373ffffffffffffffffffffffffffffffffffffffff16141515610c1b57600080fd5b60001515600060149054906101000a900460ff161515141515610c3a57fe5b600073ffffffffffffffffffffffffffffffffffffffff168173ffffffffffffffffffffffffffffffffffffffff16141515610cb157806000806101000a81548173ffffffffffffffffffffffffffffffffffffffff021916908373ffffffffffffffffffffffffffffffffffffffff1602179055505b50565b60026020528060005260406000206000915054906101000a900460ff1681565b602060405190810160405280600081525090565b815481835581811511610d0f57818360005260206000209182019101610d0e9190610d40565b5b505050565b815481835581811511610d3b57818360005260206000209182019101610d3a9190610d40565b5b505050565b610d6291905b80821115610d5e576000816000905550600101610d46565b5090565b905600a165627a7a72305820fd114e3def2d95cfa0a5496b95e7d5c6433619891d0a1945872b990a145d5f920029",
  "source": "pragma solidity ^0.4.19;\n\nimport \"./Ownable.sol\";\n\n\ncontract Secured is Ownable {\n\n  address[] public authorized;\n  mapping(address => bool) public isAuthorized;\n  bool public authorizationsLocked;\n\n\n  function Secured() public {\n\n  }\n\n\n  modifier notNull() {\n    require(msg.sender != 0x0);\n    _;\n  }\n\n  modifier onlyAuthorized {\n    require(isAuthorized[msg.sender]);\n    _;\n  }\n\n  modifier notLocked {\n    require(!authorizationsLocked);\n    _;\n  }\n\n\n  function authorizeAccess(address _address) public onlyOwner notNull notLocked {\n    isAuthorized[_address] = true;\n    authorized.push(_address);\n  }\n\n  function revokeAccess(address _address) public onlyOwner notNull notLocked {\n    isAuthorized[_address] = false;\n    for (uint i = 0; i < authorized.length - 1; i++) {\n      if (authorized[i] == _address) {\n        authorized[i] = authorized[authorized.length - 1];\n        break;\n      }\n      authorized.length -= 1;\n    }\n  }\n\n  function replaceAccess(address _address, address _newAddress) public onlyOwner notNull notLocked {\n    for (uint i = 0; i < authorized.length; i++) {\n      if (authorized[i] == _address) {\n          authorized[i] = _newAddress;\n          break;\n      }\n    }\n    isAuthorized[_address] = false;\n    isAuthorized[_newAddress] = true;\n  }\n\n  function getAuthorizations() public constant returns(address[]) {\n    return authorized;\n  }\n\n  function lockAuthorizations() public onlyOwner returns(bool success) {\n    authorizationsLocked = true;\n    return true;\n  }\n\n}",
  "sourcePath": "/Users/davidvanisacker/Programming/Ethereum/Proofsuite/ProofCryptoFiat2/contracts/utils/Secured.sol",
  "compiler": {
    "name": "solc",
    "version": "0.4.19+commit.c4cbbb05.Emscripten.clang"
  },
  "schemaVersion": "2.0.0",
  "updatedAt": "2018-05-11T16:45:43.332Z"
}