{
  "contractName": "SecureContract",
  "abi": [
    {
      "constant": false,
      "inputs": [],
      "name": "lockOwnership",
      "outputs": [],
      "payable": false,
      "stateMutability": "nonpayable",
      "type": "function"
    },
    {
      "constant": true,
      "inputs": [
        {
          "name": "",
          "type": "uint256"
        }
      ],
      "name": "authorized",
      "outputs": [
        {
          "name": "",
          "type": "address"
        }
      ],
      "payable": false,
      "stateMutability": "view",
      "type": "function"
    },
    {
      "constant": true,
      "inputs": [],
      "name": "a",
      "outputs": [
        {
          "name": "",
          "type": "bool"
        }
      ],
      "payable": false,
      "stateMutability": "view",
      "type": "function"
    },
    {
      "constant": true,
      "inputs": [],
      "name": "authorizationsLocked",
      "outputs": [
        {
          "name": "",
          "type": "bool"
        }
      ],
      "payable": false,
      "stateMutability": "view",
      "type": "function"
    },
    {
      "constant": true,
      "inputs": [],
      "name": "getAuthorizations",
      "outputs": [
        {
          "name": "",
          "type": "address[]"
        }
      ],
      "payable": false,
      "stateMutability": "view",
      "type": "function"
    },
    {
      "constant": false,
      "inputs": [
        {
          "name": "_address",
          "type": "address"
        }
      ],
      "name": "revokeAccess",
      "outputs": [],
      "payable": false,
      "stateMutability": "nonpayable",
      "type": "function"
    },
    {
      "constant": true,
      "inputs": [],
      "name": "owner",
      "outputs": [
        {
          "name": "",
          "type": "address"
        }
      ],
      "payable": false,
      "stateMutability": "view",
      "type": "function"
    },
    {
      "constant": false,
      "inputs": [],
      "name": "lockAuthorizations",
      "outputs": [
        {
          "name": "success",
          "type": "bool"
        }
      ],
      "payable": false,
      "stateMutability": "nonpayable",
      "type": "function"
    },
    {
      "constant": false,
      "inputs": [
        {
          "name": "_address",
          "type": "address"
        },
        {
          "name": "_newAddress",
          "type": "address"
        }
      ],
      "name": "replaceAccess",
      "outputs": [],
      "payable": false,
      "stateMutability": "nonpayable",
      "type": "function"
    },
    {
      "constant": true,
      "inputs": [],
      "name": "locked",
      "outputs": [
        {
          "name": "",
          "type": "bool"
        }
      ],
      "payable": false,
      "stateMutability": "view",
      "type": "function"
    },
    {
      "constant": false,
      "inputs": [
        {
          "name": "_address",
          "type": "address"
        }
      ],
      "name": "authorizeAccess",
      "outputs": [],
      "payable": false,
      "stateMutability": "nonpayable",
      "type": "function"
    },
    {
      "constant": false,
      "inputs": [
        {
          "name": "newOwner",
          "type": "address"
        }
      ],
      "name": "transferOwnership",
      "outputs": [],
      "payable": false,
      "stateMutability": "nonpayable",
      "type": "function"
    },
    {
      "constant": true,
      "inputs": [
        {
          "name": "",
          "type": "address"
        }
      ],
      "name": "isAuthorized",
      "outputs": [
        {
          "name": "",
          "type": "bool"
        }
      ],
      "payable": false,
      "stateMutability": "view",
      "type": "function"
    },
    {
      "inputs": [],
      "payable": false,
      "stateMutability": "nonpayable",
      "type": "constructor"
    },
    {
      "constant": true,
      "inputs": [],
      "name": "get",
      "outputs": [
        {
          "name": "",
          "type": "bool"
        }
      ],
      "payable": false,
      "stateMutability": "view",
      "type": "function"
    },
    {
      "constant": false,
      "inputs": [
        {
          "name": "_value",
          "type": "bool"
        }
      ],
      "name": "set",
      "outputs": [],
      "payable": false,
      "stateMutability": "nonpayable",
      "type": "function"
    }
  ],
  "bytecode": "0x6060604052341561000f57600080fd5b336000806101000a81548173ffffffffffffffffffffffffffffffffffffffff021916908373ffffffffffffffffffffffffffffffffffffffff160217905550610ed08061005e6000396000f3006060604052600436106100db576000357c0100000000000000000000000000000000000000000000000000000000900463ffffffff1680630577c02b146100e05780630d48669a146100f55780630dbe671f146101585780635f76f6ab146101855780636d4ce63c146101aa5780636d75b137146101d75780637f35ff7d1461020457806385e685311461026e5780638da5cb5b146102a757806396874c50146102fc578063b7215e5014610329578063cf30901214610381578063eed14218146103ae578063f2fde38b146103e7578063fe9fbb8014610420575b600080fd5b34156100eb57600080fd5b6100f3610471565b005b341561010057600080fd5b61011660048080359060200190919050506104e9565b604051808273ffffffffffffffffffffffffffffffffffffffff1673ffffffffffffffffffffffffffffffffffffffff16815260200191505060405180910390f35b341561016357600080fd5b61016b610528565b604051808215151515815260200191505060405180910390f35b341561019057600080fd5b6101a86004808035151590602001909190505061053b565b005b34156101b557600080fd5b6101bd6105b0565b604051808215151515815260200191505060405180910390f35b34156101e257600080fd5b6101ea6105c7565b604051808215151515815260200191505060405180910390f35b341561020f57600080fd5b6102176105da565b6040518080602001828103825283818151815260200191508051906020019060200280838360005b8381101561025a57808201518184015260208101905061023f565b505050509050019250505060405180910390f35b341561027957600080fd5b6102a5600480803573ffffffffffffffffffffffffffffffffffffffff1690602001909190505061066e565b005b34156102b257600080fd5b6102ba6108ae565b604051808273ffffffffffffffffffffffffffffffffffffffff1673ffffffffffffffffffffffffffffffffffffffff16815260200191505060405180910390f35b341561030757600080fd5b61030f6108d3565b604051808215151515815260200191505060405180910390f35b341561033457600080fd5b61037f600480803573ffffffffffffffffffffffffffffffffffffffff1690602001909190803573ffffffffffffffffffffffffffffffffffffffff16906020019091905050610952565b005b341561038c57600080fd5b610394610b91565b604051808215151515815260200191505060405180910390f35b34156103b957600080fd5b6103e5600480803573ffffffffffffffffffffffffffffffffffffffff16906020019091905050610ba4565b005b34156103f257600080fd5b61041e600480803573ffffffffffffffffffffffffffffffffffffffff16906020019091905050610cff565b005b341561042b57600080fd5b610457600480803573ffffffffffffffffffffffffffffffffffffffff16906020019091905050610df3565b604051808215151515815260200191505060405180910390f35b6000809054906101000a900473ffffffffffffffffffffffffffffffffffffffff1673ffffffffffffffffffffffffffffffffffffffff163373ffffffffffffffffffffffffffffffffffffffff161415156104cc57600080fd5b6001600060146101000a81548160ff021916908315150217905550565b6001818154811015156104f857fe5b90600052602060002090016000915054906101000a900473ffffffffffffffffffffffffffffffffffffffff1681565b600360019054906101000a900460ff1681565b600260003373ffffffffffffffffffffffffffffffffffffffff1673ffffffffffffffffffffffffffffffffffffffff16815260200190815260200160002060009054906101000a900460ff16151561059357600080fd5b80600360016101000a81548160ff02191690831515021790555050565b6000600360019054906101000a900460ff16905090565b600360009054906101000a900460ff1681565b6105e2610e13565b600180548060200260200160405190810160405280929190818152602001828054801561066457602002820191906000526020600020905b8160009054906101000a900473ffffffffffffffffffffffffffffffffffffffff1673ffffffffffffffffffffffffffffffffffffffff168152602001906001019080831161061a575b5050505050905090565b60008060009054906101000a900473ffffffffffffffffffffffffffffffffffffffff1673ffffffffffffffffffffffffffffffffffffffff163373ffffffffffffffffffffffffffffffffffffffff161415156106cb57600080fd5b60003373ffffffffffffffffffffffffffffffffffffffff16141515156106f157600080fd5b600360009054906101000a900460ff1615151561070d57600080fd5b6000600260008473ffffffffffffffffffffffffffffffffffffffff1673ffffffffffffffffffffffffffffffffffffffff16815260200190815260200160002060006101000a81548160ff021916908315150217905550600090505b60018080549050038110156108aa578173ffffffffffffffffffffffffffffffffffffffff1660018281548110151561079f57fe5b906000526020600020900160009054906101000a900473ffffffffffffffffffffffffffffffffffffffff1673ffffffffffffffffffffffffffffffffffffffff161415610885576001808080549050038154811015156107fc57fe5b906000526020600020900160009054906101000a900473ffffffffffffffffffffffffffffffffffffffff1660018281548110151561083757fe5b906000526020600020900160006101000a81548173ffffffffffffffffffffffffffffffffffffffff021916908373ffffffffffffffffffffffffffffffffffffffff1602179055506108aa565b6001808181805490500391508161089c9190610e27565b50808060010191505061076a565b5050565b6000809054906101000a900473ffffffffffffffffffffffffffffffffffffffff1681565b60008060009054906101000a900473ffffffffffffffffffffffffffffffffffffffff1673ffffffffffffffffffffffffffffffffffffffff163373ffffffffffffffffffffffffffffffffffffffff1614151561093057600080fd5b6001600360006101000a81548160ff0219169083151502179055506001905090565b60008060009054906101000a900473ffffffffffffffffffffffffffffffffffffffff1673ffffffffffffffffffffffffffffffffffffffff163373ffffffffffffffffffffffffffffffffffffffff161415156109af57600080fd5b60003373ffffffffffffffffffffffffffffffffffffffff16141515156109d557600080fd5b600360009054906101000a900460ff161515156109f157600080fd5b600090505b600180549050811015610adc578273ffffffffffffffffffffffffffffffffffffffff16600182815481101515610a2957fe5b906000526020600020900160009054906101000a900473ffffffffffffffffffffffffffffffffffffffff1673ffffffffffffffffffffffffffffffffffffffff161415610acf5781600182815481101515610a8157fe5b906000526020600020900160006101000a81548173ffffffffffffffffffffffffffffffffffffffff021916908373ffffffffffffffffffffffffffffffffffffffff160217905550610adc565b80806001019150506109f6565b6000600260008573ffffffffffffffffffffffffffffffffffffffff1673ffffffffffffffffffffffffffffffffffffffff16815260200190815260200160002060006101000a81548160ff0219169083151502179055506001600260008473ffffffffffffffffffffffffffffffffffffffff1673ffffffffffffffffffffffffffffffffffffffff16815260200190815260200160002060006101000a81548160ff021916908315150217905550505050565b600060149054906101000a900460ff1681565b6000809054906101000a900473ffffffffffffffffffffffffffffffffffffffff1673ffffffffffffffffffffffffffffffffffffffff163373ffffffffffffffffffffffffffffffffffffffff16141515610bff57600080fd5b60003373ffffffffffffffffffffffffffffffffffffffff1614151515610c2557600080fd5b600360009054906101000a900460ff16151515610c4157600080fd5b6001600260008373ffffffffffffffffffffffffffffffffffffffff1673ffffffffffffffffffffffffffffffffffffffff16815260200190815260200160002060006101000a81548160ff02191690831515021790555060018054806001018281610cad9190610e53565b9160005260206000209001600083909190916101000a81548173ffffffffffffffffffffffffffffffffffffffff021916908373ffffffffffffffffffffffffffffffffffffffff1602179055505050565b6000809054906101000a900473ffffffffffffffffffffffffffffffffffffffff1673ffffffffffffffffffffffffffffffffffffffff163373ffffffffffffffffffffffffffffffffffffffff16141515610d5a57600080fd5b60001515600060149054906101000a900460ff161515141515610d7957fe5b600073ffffffffffffffffffffffffffffffffffffffff168173ffffffffffffffffffffffffffffffffffffffff16141515610df057806000806101000a81548173ffffffffffffffffffffffffffffffffffffffff021916908373ffffffffffffffffffffffffffffffffffffffff1602179055505b50565b60026020528060005260406000206000915054906101000a900460ff1681565b602060405190810160405280600081525090565b815481835581811511610e4e57818360005260206000209182019101610e4d9190610e7f565b5b505050565b815481835581811511610e7a57818360005260206000209182019101610e799190610e7f565b5b505050565b610ea191905b80821115610e9d576000816000905550600101610e85565b5090565b905600a165627a7a72305820ec93291b8471cae86afe2c770b4afe89ded1e24fbb5cfca739ffa2f4c9edad4d0029",
  "source": "pragma solidity ^0.4.19;\n\nimport \"../utils/Secured.sol\";\n\n\ncontract SecureContract is Secured {\n\n  bool public a;\n\n  function SecureContract() public {\n\n  }\n\n  function get() public view returns (bool) {\n    return a;\n  }\n\n  function set(bool _value) public onlyAuthorized {\n    a = _value;\n  }\n\n\n}\n\n",
  "sourcePath": "/Users/davidvanisacker/Programming/Ethereum/Proofsuite/ProofCryptoFiat2/contracts/mocks/SecureContract.sol",
  "compiler": {
    "name": "solc",
    "version": "0.4.19+commit.c4cbbb05.Emscripten.clang"
  },
  "schemaVersion": "2.0.0",
  "updatedAt": "2018-05-11T16:45:43.316Z"
}