{
  "contractName": "Exchange",
  "abi": [
    {
      "constant": true,
      "inputs": [
        {
          "name": "",
          "type": "address"
        }
      ],
      "name": "lastTransaction",
      "outputs": [
        {
          "name": "",
          "type": "uint256"
        }
      ],
      "payable": false,
      "stateMutability": "view",
      "type": "function"
    },
    {
      "constant": false,
      "inputs": [
        {
          "name": "newOwner",
          "type": "address"
        }
      ],
      "name": "setOwner",
      "outputs": [],
      "payable": false,
      "stateMutability": "nonpayable",
      "type": "function"
    },
    {
      "constant": true,
      "inputs": [
        {
          "name": "",
          "type": "address"
        }
      ],
      "name": "operators",
      "outputs": [
        {
          "name": "",
          "type": "bool"
        }
      ],
      "payable": false,
      "stateMutability": "view",
      "type": "function"
    },
    {
      "constant": true,
      "inputs": [
        {
          "name": "",
          "type": "bytes32"
        }
      ],
      "name": "withdrawn",
      "outputs": [
        {
          "name": "",
          "type": "bool"
        }
      ],
      "payable": false,
      "stateMutability": "view",
      "type": "function"
    },
    {
      "constant": true,
      "inputs": [
        {
          "name": "",
          "type": "address"
        },
        {
          "name": "",
          "type": "address"
        }
      ],
      "name": "tokens",
      "outputs": [
        {
          "name": "",
          "type": "uint256"
        }
      ],
      "payable": false,
      "stateMutability": "view",
      "type": "function"
    },
    {
      "constant": true,
      "inputs": [],
      "name": "feeAccount",
      "outputs": [
        {
          "name": "",
          "type": "address"
        }
      ],
      "payable": false,
      "stateMutability": "view",
      "type": "function"
    },
    {
      "constant": true,
      "inputs": [],
      "name": "owner",
      "outputs": [
        {
          "name": "",
          "type": "address"
        }
      ],
      "payable": false,
      "stateMutability": "view",
      "type": "function"
    },
    {
      "constant": true,
      "inputs": [
        {
          "name": "",
          "type": "bytes32"
        }
      ],
      "name": "transferred",
      "outputs": [
        {
          "name": "",
          "type": "bool"
        }
      ],
      "payable": false,
      "stateMutability": "view",
      "type": "function"
    },
    {
      "constant": true,
      "inputs": [
        {
          "name": "",
          "type": "bytes32"
        }
      ],
      "name": "traded",
      "outputs": [
        {
          "name": "",
          "type": "bool"
        }
      ],
      "payable": false,
      "stateMutability": "view",
      "type": "function"
    },
    {
      "constant": true,
      "inputs": [],
      "name": "withdrawalSecurityPeriod",
      "outputs": [
        {
          "name": "",
          "type": "uint256"
        }
      ],
      "payable": false,
      "stateMutability": "view",
      "type": "function"
    },
    {
      "constant": true,
      "inputs": [
        {
          "name": "",
          "type": "bytes32"
        }
      ],
      "name": "orderFills",
      "outputs": [
        {
          "name": "",
          "type": "uint256"
        }
      ],
      "payable": false,
      "stateMutability": "view",
      "type": "function"
    },
    {
      "constant": true,
      "inputs": [
        {
          "name": "",
          "type": "address"
        }
      ],
      "name": "protectedFunds",
      "outputs": [
        {
          "name": "",
          "type": "uint256"
        }
      ],
      "payable": false,
      "stateMutability": "view",
      "type": "function"
    },
    {
      "inputs": [
        {
          "name": "_feeAccount",
          "type": "address"
        }
      ],
      "payable": false,
      "stateMutability": "nonpayable",
      "type": "constructor"
    },
    {
      "payable": false,
      "stateMutability": "nonpayable",
      "type": "fallback"
    },
    {
      "anonymous": false,
      "inputs": [
        {
          "indexed": false,
          "name": "tokenBuy",
          "type": "address"
        },
        {
          "indexed": false,
          "name": "tokenSell",
          "type": "address"
        },
        {
          "indexed": false,
          "name": "maker",
          "type": "address"
        },
        {
          "indexed": false,
          "name": "taker",
          "type": "address"
        },
        {
          "indexed": false,
          "name": "amount",
          "type": "uint256"
        },
        {
          "indexed": false,
          "name": "hsh",
          "type": "bytes32"
        }
      ],
      "name": "LogTrade",
      "type": "event"
    },
    {
      "anonymous": false,
      "inputs": [
        {
          "indexed": false,
          "name": "token",
          "type": "address"
        },
        {
          "indexed": false,
          "name": "user",
          "type": "address"
        },
        {
          "indexed": false,
          "name": "amount",
          "type": "uint256"
        },
        {
          "indexed": false,
          "name": "balance",
          "type": "uint256"
        }
      ],
      "name": "LogDeposit",
      "type": "event"
    },
    {
      "anonymous": false,
      "inputs": [
        {
          "indexed": false,
          "name": "token",
          "type": "address"
        },
        {
          "indexed": false,
          "name": "user",
          "type": "address"
        },
        {
          "indexed": false,
          "name": "amount",
          "type": "uint256"
        },
        {
          "indexed": false,
          "name": "balance",
          "type": "uint256"
        }
      ],
      "name": "LogWithdraw",
      "type": "event"
    },
    {
      "anonymous": false,
      "inputs": [
        {
          "indexed": false,
          "name": "token",
          "type": "address"
        },
        {
          "indexed": false,
          "name": "user",
          "type": "address"
        },
        {
          "indexed": false,
          "name": "amount",
          "type": "uint256"
        },
        {
          "indexed": false,
          "name": "balance",
          "type": "uint256"
        }
      ],
      "name": "LogSecurityWithdraw",
      "type": "event"
    },
    {
      "anonymous": false,
      "inputs": [
        {
          "indexed": false,
          "name": "token",
          "type": "address"
        },
        {
          "indexed": false,
          "name": "recipient",
          "type": "address"
        }
      ],
      "name": "LogTransfer",
      "type": "event"
    },
    {
      "anonymous": false,
      "inputs": [
        {
          "indexed": false,
          "name": "tokenBuy",
          "type": "address"
        },
        {
          "indexed": false,
          "name": "amountBuy",
          "type": "uint256"
        },
        {
          "indexed": false,
          "name": "tokenSell",
          "type": "address"
        },
        {
          "indexed": false,
          "name": "amountSell",
          "type": "uint256"
        },
        {
          "indexed": false,
          "name": "expires",
          "type": "uint256"
        },
        {
          "indexed": false,
          "name": "nonce",
          "type": "uint256"
        },
        {
          "indexed": false,
          "name": "maker",
          "type": "address"
        },
        {
          "indexed": false,
          "name": "v",
          "type": "uint8"
        },
        {
          "indexed": false,
          "name": "r",
          "type": "bytes32"
        },
        {
          "indexed": false,
          "name": "s",
          "type": "bytes32"
        }
      ],
      "name": "LogCancelOrder",
      "type": "event"
    },
    {
      "anonymous": false,
      "inputs": [
        {
          "indexed": false,
          "name": "orderHash",
          "type": "bytes32"
        },
        {
          "indexed": false,
          "name": "amount",
          "type": "uint256"
        },
        {
          "indexed": false,
          "name": "tradeNonce",
          "type": "uint256"
        },
        {
          "indexed": false,
          "name": "taker",
          "type": "address"
        },
        {
          "indexed": false,
          "name": "sender",
          "type": "address"
        },
        {
          "indexed": false,
          "name": "v",
          "type": "uint8"
        },
        {
          "indexed": false,
          "name": "r",
          "type": "bytes32"
        },
        {
          "indexed": false,
          "name": "s",
          "type": "bytes32"
        }
      ],
      "name": "LogCancelTrade",
      "type": "event"
    },
    {
      "anonymous": false,
      "inputs": [
        {
          "indexed": false,
          "name": "errorId",
          "type": "uint8"
        },
        {
          "indexed": false,
          "name": "orderHash",
          "type": "bytes32"
        }
      ],
      "name": "LogError",
      "type": "event"
    },
    {
      "anonymous": false,
      "inputs": [
        {
          "indexed": true,
          "name": "previousOwner",
          "type": "address"
        },
        {
          "indexed": true,
          "name": "newOwner",
          "type": "address"
        }
      ],
      "name": "SetOwner",
      "type": "event"
    },
    {
      "constant": false,
      "inputs": [
        {
          "name": "_feeAccount",
          "type": "address"
        }
      ],
      "name": "setFeeAccount",
      "outputs": [
        {
          "name": "",
          "type": "bool"
        }
      ],
      "payable": false,
      "stateMutability": "nonpayable",
      "type": "function"
    },
    {
      "constant": false,
      "inputs": [
        {
          "name": "operator",
          "type": "address"
        },
        {
          "name": "isOperator",
          "type": "bool"
        }
      ],
      "name": "setOperator",
      "outputs": [
        {
          "name": "",
          "type": "bool"
        }
      ],
      "payable": false,
      "stateMutability": "nonpayable",
      "type": "function"
    },
    {
      "constant": false,
      "inputs": [
        {
          "name": "_withdrawalSecurityPeriod",
          "type": "uint256"
        }
      ],
      "name": "setWithdrawalSecurityPeriod",
      "outputs": [
        {
          "name": "",
          "type": "bool"
        }
      ],
      "payable": false,
      "stateMutability": "nonpayable",
      "type": "function"
    },
    {
      "constant": false,
      "inputs": [],
      "name": "depositEther",
      "outputs": [
        {
          "name": "",
          "type": "bool"
        }
      ],
      "payable": true,
      "stateMutability": "payable",
      "type": "function"
    },
    {
      "constant": false,
      "inputs": [
        {
          "name": "token",
          "type": "address"
        },
        {
          "name": "amount",
          "type": "uint256"
        }
      ],
      "name": "depositToken",
      "outputs": [
        {
          "name": "",
          "type": "bool"
        }
      ],
      "payable": false,
      "stateMutability": "nonpayable",
      "type": "function"
    },
    {
      "constant": true,
      "inputs": [
        {
          "name": "trader",
          "type": "address"
        },
        {
          "name": "token",
          "type": "address"
        }
      ],
      "name": "tokenBalance",
      "outputs": [
        {
          "name": "",
          "type": "uint256"
        }
      ],
      "payable": false,
      "stateMutability": "view",
      "type": "function"
    },
    {
      "constant": true,
      "inputs": [
        {
          "name": "trader",
          "type": "address"
        }
      ],
      "name": "etherBalance",
      "outputs": [
        {
          "name": "",
          "type": "uint256"
        }
      ],
      "payable": false,
      "stateMutability": "view",
      "type": "function"
    },
    {
      "constant": false,
      "inputs": [
        {
          "name": "token",
          "type": "address"
        },
        {
          "name": "amount",
          "type": "uint256"
        }
      ],
      "name": "securityWithdraw",
      "outputs": [
        {
          "name": "",
          "type": "bool"
        }
      ],
      "payable": false,
      "stateMutability": "nonpayable",
      "type": "function"
    },
    {
      "constant": false,
      "inputs": [
        {
          "name": "token",
          "type": "address"
        },
        {
          "name": "amount",
          "type": "uint256"
        },
        {
          "name": "trader",
          "type": "address"
        },
        {
          "name": "receiver",
          "type": "address"
        },
        {
          "name": "nonce",
          "type": "uint256"
        },
        {
          "name": "v",
          "type": "uint8"
        },
        {
          "name": "rs",
          "type": "bytes32[2]"
        },
        {
          "name": "feeWithdrawal",
          "type": "uint256"
        }
      ],
      "name": "withdraw",
      "outputs": [
        {
          "name": "",
          "type": "bool"
        }
      ],
      "payable": false,
      "stateMutability": "nonpayable",
      "type": "function"
    },
    {
      "constant": false,
      "inputs": [
        {
          "name": "orderValues",
          "type": "uint256[8]"
        },
        {
          "name": "orderAddresses",
          "type": "address[4]"
        },
        {
          "name": "v",
          "type": "uint8[2]"
        },
        {
          "name": "rs",
          "type": "bytes32[4]"
        }
      ],
      "name": "executeTrade",
      "outputs": [
        {
          "name": "",
          "type": "bool"
        }
      ],
      "payable": false,
      "stateMutability": "nonpayable",
      "type": "function"
    },
    {
      "constant": false,
      "inputs": [
        {
          "name": "orderValues",
          "type": "uint256[5]"
        },
        {
          "name": "orderAddresses",
          "type": "address[4]"
        },
        {
          "name": "v",
          "type": "uint8"
        },
        {
          "name": "r",
          "type": "bytes32"
        },
        {
          "name": "s",
          "type": "bytes32"
        }
      ],
      "name": "cancelOrder",
      "outputs": [
        {
          "name": "",
          "type": "bool"
        }
      ],
      "payable": false,
      "stateMutability": "nonpayable",
      "type": "function"
    },
    {
      "constant": false,
      "inputs": [
        {
          "name": "orderHash",
          "type": "bytes32"
        },
        {
          "name": "amount",
          "type": "uint256"
        },
        {
          "name": "tradeNonce",
          "type": "uint256"
        },
        {
          "name": "taker",
          "type": "address"
        },
        {
          "name": "v",
          "type": "uint8"
        },
        {
          "name": "r",
          "type": "bytes32"
        },
        {
          "name": "s",
          "type": "bytes32"
        }
      ],
      "name": "cancelTrade",
      "outputs": [
        {
          "name": "",
          "type": "bool"
        }
      ],
      "payable": false,
      "stateMutability": "nonpayable",
      "type": "function"
    },
    {
      "constant": true,
      "inputs": [
        {
          "name": "signer",
          "type": "address"
        },
        {
          "name": "hashedData",
          "type": "bytes32"
        },
        {
          "name": "v",
          "type": "uint8"
        },
        {
          "name": "r",
          "type": "bytes32"
        },
        {
          "name": "s",
          "type": "bytes32"
        }
      ],
      "name": "isValidSignature",
      "outputs": [
        {
          "name": "",
          "type": "bool"
        }
      ],
      "payable": false,
      "stateMutability": "view",
      "type": "function"
    }
  ],
  "bytecode": "0x6060604052341561000f57600080fd5b60405160208061415b83398101604052808051906020019091905050336000806101000a81548173ffffffffffffffffffffffffffffffffffffffff021916908373ffffffffffffffffffffffffffffffffffffffff16021790555080600160006101000a81548173ffffffffffffffffffffffffffffffffffffffff021916908373ffffffffffffffffffffffffffffffffffffffff1602179055505061409f806100bc6000396000f300606060405260043610610149576000357c0100000000000000000000000000000000000000000000000000000000900463ffffffff1680630531be92146101595780631049334f146101a657806313af40351461021257806313e7c9d81461024b5780632207148d1461029c5780632e813def1461037f578063338b5dea1461042f5780633823d66c14610489578063468ddf2e146104c85780634b023cf81461055e578063508493bc146105af578063558a72971461061b57806365e17c9d1461067757806374af3ab3146106cc5780638163681e146107ae5780638da5cb5b1461083257806398ea5fca146108875780639bc2c131146108a9578063afc441e314610903578063cd0c589614610942578063cf46d3d71461098f578063d5813323146109ca578063f3198b1614610a09578063f7213db614610a32578063fe2e2b9414610a6d575b341561015457600080fd5b600080fd5b341561016457600080fd5b610190600480803573ffffffffffffffffffffffffffffffffffffffff16906020019091905050610aba565b6040518082815260200191505060405180910390f35b34156101b157600080fd5b6101fc600480803573ffffffffffffffffffffffffffffffffffffffff1690602001909190803573ffffffffffffffffffffffffffffffffffffffff16906020019091905050610ad2565b6040518082815260200191505060405180910390f35b341561021d57600080fd5b610249600480803573ffffffffffffffffffffffffffffffffffffffff16906020019091905050610b59565b005b341561025657600080fd5b610282600480803573ffffffffffffffffffffffffffffffffffffffff16906020019091905050610c72565b604051808215151515815260200191505060405180910390f35b34156102a757600080fd5b6103656004808061010001906008806020026040519081016040528092919082600860200280828437820191505050505091908060800190600480602002604051908101604052809291908260046020028082843782019150505050509190806040019060028060200260405190810160405280929190826002602002808284378201915050505050919080608001906004806020026040519081016040528092919082600460200280828437820191505050505091905050610c92565b604051808215151515815260200191505060405180910390f35b341561038a57600080fd5b6104156004808060a001906005806020026040519081016040528092919082600560200280828437820191505050505091908060800190600480602002604051908101604052809291908260046020028082843782019150505050509190803560ff169060200190919080356000191690602001909190803560001916906020019091905050612049565b604051808215151515815260200191505060405180910390f35b341561043a57600080fd5b61046f600480803573ffffffffffffffffffffffffffffffffffffffff16906020019091908035906020019091905050612480565b604051808215151515815260200191505060405180910390f35b341561049457600080fd5b6104ae6004808035600019169060200190919050506125d9565b604051808215151515815260200191505060405180910390f35b34156104d357600080fd5b61054460048080356000191690602001909190803590602001909190803590602001909190803573ffffffffffffffffffffffffffffffffffffffff1690602001909190803560ff1690602001909190803560001916906020019091908035600019169060200190919050506125f9565b604051808215151515815260200191505060405180910390f35b341561056957600080fd5b610595600480803573ffffffffffffffffffffffffffffffffffffffff1690602001909190505061280a565b604051808215151515815260200191505060405180910390f35b34156105ba57600080fd5b610605600480803573ffffffffffffffffffffffffffffffffffffffff1690602001909190803573ffffffffffffffffffffffffffffffffffffffff16906020019091905050612905565b6040518082815260200191505060405180910390f35b341561062657600080fd5b61065d600480803573ffffffffffffffffffffffffffffffffffffffff16906020019091908035151590602001909190505061292a565b604051808215151515815260200191505060405180910390f35b341561068257600080fd5b61068a6129e8565b604051808273ffffffffffffffffffffffffffffffffffffffff1673ffffffffffffffffffffffffffffffffffffffff16815260200191505060405180910390f35b34156106d757600080fd5b610794600480803573ffffffffffffffffffffffffffffffffffffffff1690602001909190803590602001909190803573ffffffffffffffffffffffffffffffffffffffff1690602001909190803573ffffffffffffffffffffffffffffffffffffffff1690602001909190803590602001909190803560ff169060200190919080604001906002806020026040519081016040528092919082600260200280828437820191505050505091908035906020019091905050612a0e565b604051808215151515815260200191505060405180910390f35b34156107b957600080fd5b610818600480803573ffffffffffffffffffffffffffffffffffffffff169060200190919080356000191690602001909190803560ff1690602001909190803560001916906020019091908035600019169060200190919050506131a1565b604051808215151515815260200191505060405180910390f35b341561083d57600080fd5b6108456132a8565b604051808273ffffffffffffffffffffffffffffffffffffffff1673ffffffffffffffffffffffffffffffffffffffff16815260200191505060405180910390f35b61088f6132cd565b604051808215151515815260200191505060405180910390f35b34156108b457600080fd5b6108e9600480803573ffffffffffffffffffffffffffffffffffffffff169060200190919080359060200190919050506132f0565b604051808215151515815260200191505060405180910390f35b341561090e57600080fd5b61092860048080356000191690602001909190505061376e565b604051808215151515815260200191505060405180910390f35b341561094d57600080fd5b610979600480803573ffffffffffffffffffffffffffffffffffffffff1690602001909190505061378e565b6040518082815260200191505060405180910390f35b341561099a57600080fd5b6109b060048080359060200190919050506137fe565b604051808215151515815260200191505060405180910390f35b34156109d557600080fd5b6109ef6004808035600019169060200190919050506138bf565b604051808215151515815260200191505060405180910390f35b3415610a1457600080fd5b610a1c6138df565b6040518082815260200191505060405180910390f35b3415610a3d57600080fd5b610a576004808035600019169060200190919050506138e5565b6040518082815260200191505060405180910390f35b3415610a7857600080fd5b610aa4600480803573ffffffffffffffffffffffffffffffffffffffff169060200190919050506138fd565b6040518082815260200191505060405180910390f35b60076020528060005260406000206000915090505481565b6000600960008373ffffffffffffffffffffffffffffffffffffffff1673ffffffffffffffffffffffffffffffffffffffff16815260200190815260200160002060008473ffffffffffffffffffffffffffffffffffffffff1673ffffffffffffffffffffffffffffffffffffffff16815260200190815260200160002054905092915050565b6000809054906101000a900473ffffffffffffffffffffffffffffffffffffffff1673ffffffffffffffffffffffffffffffffffffffff163373ffffffffffffffffffffffffffffffffffffffff16141515610bb457600080fd5b8073ffffffffffffffffffffffffffffffffffffffff166000809054906101000a900473ffffffffffffffffffffffffffffffffffffffff1673ffffffffffffffffffffffffffffffffffffffff167fcbf985117192c8f614a58aaf97226bb80a754772f5f6edf06f87c675f2e6c66360405160405180910390a3806000806101000a81548173ffffffffffffffffffffffffffffffffffffffff021916908373ffffffffffffffffffffffffffffffffffffffff16021790555050565b60066020528060005260406000206000915054906101000a900460ff1681565b6000610c9c613f2c565b610ca4613fbb565b60008060008060008060009054906101000a900473ffffffffffffffffffffffffffffffffffffffff1673ffffffffffffffffffffffffffffffffffffffff163373ffffffffffffffffffffffffffffffffffffffff161480610d505750600660003373ffffffffffffffffffffffffffffffffffffffff1673ffffffffffffffffffffffffffffffffffffffff16815260200190815260200160002060009054906101000a900460ff165b1515610d5b57600080fd5b610120604051908101604052808d6000600881101515610d7757fe5b602002015181526020018d6001600881101515610d9057fe5b602002015181526020018d6002600881101515610da957fe5b602002015181526020018d6003600881101515610dc257fe5b602002015181526020018d6004600881101515610ddb57fe5b602002015181526020018d6005600881101515610df457fe5b602002015181526020018c6000600481101515610e0d57fe5b602002015173ffffffffffffffffffffffffffffffffffffffff1681526020018c6001600481101515610e3c57fe5b602002015173ffffffffffffffffffffffffffffffffffffffff1681526020018c6002600481101515610e6b57fe5b602002015173ffffffffffffffffffffffffffffffffffffffff1681525096506060604051908101604052808d6006600881101515610ea657fe5b602002015181526020018d6007600881101515610ebf57fe5b602002015181526020018c6003600481101515610ed857fe5b602002015173ffffffffffffffffffffffffffffffffffffffff168152509550308760c0015188600001518960e001518a602001518b604001518c606001518d6101000151604051808973ffffffffffffffffffffffffffffffffffffffff1673ffffffffffffffffffffffffffffffffffffffff166c010000000000000000000000000281526014018873ffffffffffffffffffffffffffffffffffffffff1673ffffffffffffffffffffffffffffffffffffffff166c010000000000000000000000000281526014018781526020018673ffffffffffffffffffffffffffffffffffffffff1673ffffffffffffffffffffffffffffffffffffffff166c010000000000000000000000000281526014018581526020018481526020018381526020018273ffffffffffffffffffffffffffffffffffffffff1673ffffffffffffffffffffffffffffffffffffffff166c010000000000000000000000000281526014019850505050505050505060405180910390209450848660000151876040015188602001516040518085600019166000191681526020018481526020018373ffffffffffffffffffffffffffffffffffffffff1673ffffffffffffffffffffffffffffffffffffffff166c010000000000000000000000000281526014018281526020019450505050506040518091039020935061111b876101000151868c60006002811015156110e957fe5b60200201518c60006004811015156110fd57fe5b60200201518d600160048110151561111157fe5b60200201516131a1565b1515611183577f36d86c59e00bd73dc19ba3adfe068e4b64ac7e92be35546adeddf1b956a87e906009600a81111561114f57fe5b86604051808360ff1660ff16815260200182600019166000191681526020019250505060405180910390a16000975061203a565b6111cd8660400151858c600160028110151561119b57fe5b60200201518c60026004811015156111af57fe5b60200201518d60036004811015156111c357fe5b60200201516131a1565b1515611234577f36d86c59e00bd73dc19ba3adfe068e4b64ac7e92be35546adeddf1b956a87e90600a8081111561120057fe5b85604051808360ff1660ff16815260200182600019166000191681526020019250505060405180910390a16000975061203a565b43876040015110156112a2577f36d86c59e00bd73dc19ba3adfe068e4b64ac7e92be35546adeddf1b956a87e906004600a81111561126e57fe5b86604051808360ff1660ff16815260200182600019166000191681526020019250505060405180910390a16000975061203a565b8560000151600960008960c0015173ffffffffffffffffffffffffffffffffffffffff1673ffffffffffffffffffffffffffffffffffffffff1681526020019081526020016000206000886040015173ffffffffffffffffffffffffffffffffffffffff1673ffffffffffffffffffffffffffffffffffffffff168152602001908152602001600020541015611394577f36d86c59e00bd73dc19ba3adfe068e4b64ac7e92be35546adeddf1b956a87e906001600a81111561136057fe5b85604051808360ff1660ff16815260200182600019166000191681526020019250505060405180910390a16000975061203a565b6113c587600001516113b788600001518a6020015161391590919063ffffffff16565b61394890919063ffffffff16565b600960008960e0015173ffffffffffffffffffffffffffffffffffffffff1673ffffffffffffffffffffffffffffffffffffffff168152602001908152602001600020600089610100015173ffffffffffffffffffffffffffffffffffffffff1673ffffffffffffffffffffffffffffffffffffffff1681526020019081526020016000205410156114b3577f36d86c59e00bd73dc19ba3adfe068e4b64ac7e92be35546adeddf1b956a87e906000600a81111561147f57fe5b85604051808360ff1660ff16815260200182600019166000191681526020019250505060405180910390a16000975061203a565b60036000856000191660001916815260200190815260200160002060009054906101000a900460ff1615611543577f36d86c59e00bd73dc19ba3adfe068e4b64ac7e92be35546adeddf1b956a87e906006600a81111561150f57fe5b85604051808360ff1660ff16815260200182600019166000191681526020019250505060405180910390a16000975061203a565b866000015161157a87600001516008600089600019166000191681526020019081526020016000205461396390919063ffffffff16565b11156115e2577f36d86c59e00bd73dc19ba3adfe068e4b64ac7e92be35546adeddf1b956a87e906007600a8111156115ae57fe5b85604051808360ff1660ff16815260200182600019166000191681526020019250505060405180910390a16000975061203a565b600160036000866000191660001916815260200190815260200160002060006101000a81548160ff021916908315150217905550670de0b6b3a764000061163a8860800151886000015161391590919063ffffffff16565b81151561164357fe5b049250611677876000015161166988600001518a6020015161391590919063ffffffff16565b61394890919063ffffffff16565b9150670de0b6b3a7640000611699838960a0015161391590919063ffffffff16565b8115156116a257fe5b04905061174383876000015103600960008a60c0015173ffffffffffffffffffffffffffffffffffffffff1673ffffffffffffffffffffffffffffffffffffffff16815260200190815260200160002060008a610100015173ffffffffffffffffffffffffffffffffffffffff1673ffffffffffffffffffffffffffffffffffffffff1681526020019081526020016000205461396390919063ffffffff16565b600960008960c0015173ffffffffffffffffffffffffffffffffffffffff1673ffffffffffffffffffffffffffffffffffffffff168152602001908152602001600020600089610100015173ffffffffffffffffffffffffffffffffffffffff1673ffffffffffffffffffffffffffffffffffffffff168152602001908152602001600020819055506118678660000151600960008a60c0015173ffffffffffffffffffffffffffffffffffffffff1673ffffffffffffffffffffffffffffffffffffffff1681526020019081526020016000206000896040015173ffffffffffffffffffffffffffffffffffffffff1673ffffffffffffffffffffffffffffffffffffffff1681526020019081526020016000205461398190919063ffffffff16565b600960008960c0015173ffffffffffffffffffffffffffffffffffffffff1673ffffffffffffffffffffffffffffffffffffffff1681526020019081526020016000206000886040015173ffffffffffffffffffffffffffffffffffffffff1673ffffffffffffffffffffffffffffffffffffffff168152602001908152602001600020819055506119a483600960008a60c0015173ffffffffffffffffffffffffffffffffffffffff1673ffffffffffffffffffffffffffffffffffffffff1681526020019081526020016000206000600160009054906101000a900473ffffffffffffffffffffffffffffffffffffffff1673ffffffffffffffffffffffffffffffffffffffff1673ffffffffffffffffffffffffffffffffffffffff1681526020019081526020016000205461396390919063ffffffff16565b600960008960c0015173ffffffffffffffffffffffffffffffffffffffff1673ffffffffffffffffffffffffffffffffffffffff1681526020019081526020016000206000600160009054906101000a900473ffffffffffffffffffffffffffffffffffffffff1673ffffffffffffffffffffffffffffffffffffffff1673ffffffffffffffffffffffffffffffffffffffff16815260200190815260200160002081905550611b12611a7e8860000151611a7089600001518b6020015161391590919063ffffffff16565b61394890919063ffffffff16565b600960008a60e0015173ffffffffffffffffffffffffffffffffffffffff1673ffffffffffffffffffffffffffffffffffffffff16815260200190815260200160002060008a610100015173ffffffffffffffffffffffffffffffffffffffff1673ffffffffffffffffffffffffffffffffffffffff1681526020019081526020016000205461398190919063ffffffff16565b600960008960e0015173ffffffffffffffffffffffffffffffffffffffff1673ffffffffffffffffffffffffffffffffffffffff168152602001908152602001600020600089610100015173ffffffffffffffffffffffffffffffffffffffff1673ffffffffffffffffffffffffffffffffffffffff16815260200190815260200160002081905550611c44611bb1828461398190919063ffffffff16565b600960008a60e0015173ffffffffffffffffffffffffffffffffffffffff1673ffffffffffffffffffffffffffffffffffffffff1681526020019081526020016000206000896040015173ffffffffffffffffffffffffffffffffffffffff1673ffffffffffffffffffffffffffffffffffffffff1681526020019081526020016000205461396390919063ffffffff16565b600960008960e0015173ffffffffffffffffffffffffffffffffffffffff1673ffffffffffffffffffffffffffffffffffffffff1681526020019081526020016000206000886040015173ffffffffffffffffffffffffffffffffffffffff1673ffffffffffffffffffffffffffffffffffffffff16815260200190815260200160002081905550611d8181600960008a60e0015173ffffffffffffffffffffffffffffffffffffffff1673ffffffffffffffffffffffffffffffffffffffff1681526020019081526020016000206000600160009054906101000a900473ffffffffffffffffffffffffffffffffffffffff1673ffffffffffffffffffffffffffffffffffffffff1673ffffffffffffffffffffffffffffffffffffffff1681526020019081526020016000205461396390919063ffffffff16565b600960008960e0015173ffffffffffffffffffffffffffffffffffffffff1673ffffffffffffffffffffffffffffffffffffffff1681526020019081526020016000206000600160009054906101000a900473ffffffffffffffffffffffffffffffffffffffff1673ffffffffffffffffffffffffffffffffffffffff1673ffffffffffffffffffffffffffffffffffffffff16815260200190815260200160002081905550611e5986600001516008600088600019166000191681526020019081526020016000205461396390919063ffffffff16565b60086000876000191660001916815260200190815260200160002081905550436007600089610100015173ffffffffffffffffffffffffffffffffffffffff1673ffffffffffffffffffffffffffffffffffffffff168152602001908152602001600020819055504360076000886040015173ffffffffffffffffffffffffffffffffffffffff1673ffffffffffffffffffffffffffffffffffffffff168152602001908152602001600020819055507facba690473c099075a43376bf85b9c2560e51ee66a208fca92b31922d7d3a3678760c001518860e0015189610100015189604001518a600001518a604051808773ffffffffffffffffffffffffffffffffffffffff1673ffffffffffffffffffffffffffffffffffffffff1681526020018673ffffffffffffffffffffffffffffffffffffffff1673ffffffffffffffffffffffffffffffffffffffff1681526020018573ffffffffffffffffffffffffffffffffffffffff1673ffffffffffffffffffffffffffffffffffffffff1681526020018473ffffffffffffffffffffffffffffffffffffffff1673ffffffffffffffffffffffffffffffffffffffff1681526020018381526020018260001916600019168152602001965050505050505060405180910390a1600197505b50505050505050949350505050565b6000612053613ff3565b600060e06040519081016040528089600060058110151561207057fe5b6020020151815260200189600160058110151561208957fe5b602002015181526020018960026005811015156120a257fe5b602002015181526020018960036005811015156120bb57fe5b602002015181526020018860006004811015156120d457fe5b602002015173ffffffffffffffffffffffffffffffffffffffff16815260200188600160048110151561210357fe5b602002015173ffffffffffffffffffffffffffffffffffffffff16815260200188600260048110151561213257fe5b602002015173ffffffffffffffffffffffffffffffffffffffff16815250915030826080015183600001518460a001518560200151866040015187606001518860c00151604051808973ffffffffffffffffffffffffffffffffffffffff1673ffffffffffffffffffffffffffffffffffffffff166c010000000000000000000000000281526014018873ffffffffffffffffffffffffffffffffffffffff1673ffffffffffffffffffffffffffffffffffffffff166c010000000000000000000000000281526014018781526020018673ffffffffffffffffffffffffffffffffffffffff1673ffffffffffffffffffffffffffffffffffffffff166c010000000000000000000000000281526014018581526020018481526020018381526020018273ffffffffffffffffffffffffffffffffffffffff1673ffffffffffffffffffffffffffffffffffffffff166c0100000000000000000000000002815260140198505050505050505050604051809103902090506122b733828888886131a1565b151561231f577f36d86c59e00bd73dc19ba3adfe068e4b64ac7e92be35546adeddf1b956a87e906008600a8111156122eb57fe5b82604051808360ff1660ff16815260200182600019166000191681526020019250505060405180910390a160009250612475565b8160000151600860008360001916600019168152602001908152602001600020819055507f02b0e3138ecc5c8f35036d06f730effc5f7c9de5835667a26e297ae755ecfd5c826080015183600001518460a00151856020015186604001518760600151338d8d8d604051808b73ffffffffffffffffffffffffffffffffffffffff1673ffffffffffffffffffffffffffffffffffffffff1681526020018a81526020018973ffffffffffffffffffffffffffffffffffffffff1673ffffffffffffffffffffffffffffffffffffffff1681526020018881526020018781526020018681526020018573ffffffffffffffffffffffffffffffffffffffff1673ffffffffffffffffffffffffffffffffffffffff1681526020018460ff1660ff168152602001836000191660001916815260200182600019166000191681526020019a505050505050505050505060405180910390a15b505095945050505050565b60008073ffffffffffffffffffffffffffffffffffffffff168373ffffffffffffffffffffffffffffffffffffffff16141580156124be5750600082115b15156124c957600080fd5b6124d3838361399a565b508273ffffffffffffffffffffffffffffffffffffffff166323b872dd3330856000604051602001526040518463ffffffff167c0100000000000000000000000000000000000000000000000000000000028152600401808473ffffffffffffffffffffffffffffffffffffffff1673ffffffffffffffffffffffffffffffffffffffff1681526020018373ffffffffffffffffffffffffffffffffffffffff1673ffffffffffffffffffffffffffffffffffffffff1681526020018281526020019350505050602060405180830381600087803b15156125b357600080fd5b6102c65a03f115156125c457600080fd5b50505060405180519050506001905092915050565b60046020528060005260406000206000915054906101000a900460ff1681565b600080888887896040518085600019166000191681526020018481526020018373ffffffffffffffffffffffffffffffffffffffff1673ffffffffffffffffffffffffffffffffffffffff166c010000000000000000000000000281526014018281526020019450505050506040518091039020905061267c33828787876131a1565b15156126e4577f36d86c59e00bd73dc19ba3adfe068e4b64ac7e92be35546adeddf1b956a87e906008600a8111156126b057fe5b82604051808360ff1660ff16815260200182600019166000191681526020019250505060405180910390a1600091506127fe565b600160036000836000191660001916815260200190815260200160002060006101000a81548160ff0219169083151502179055507fcbfd142f5f729c33b8c478622822ace3d8474d4eb5c7aaedb914f5d465fb818789898989338a8a8a6040518089600019166000191681526020018881526020018781526020018673ffffffffffffffffffffffffffffffffffffffff1673ffffffffffffffffffffffffffffffffffffffff1681526020018573ffffffffffffffffffffffffffffffffffffffff1673ffffffffffffffffffffffffffffffffffffffff1681526020018460ff1660ff168152602001836000191660001916815260200182600019166000191681526020019850505050505050505060405180910390a15b50979650505050505050565b60008060009054906101000a900473ffffffffffffffffffffffffffffffffffffffff1673ffffffffffffffffffffffffffffffffffffffff163373ffffffffffffffffffffffffffffffffffffffff1614806128b05750600660003373ffffffffffffffffffffffffffffffffffffffff1673ffffffffffffffffffffffffffffffffffffffff16815260200190815260200160002060009054906101000a900460ff165b15156128bb57600080fd5b81600160006101000a81548173ffffffffffffffffffffffffffffffffffffffff021916908373ffffffffffffffffffffffffffffffffffffffff16021790555060019050919050565b6009602052816000526040600020602052806000526040600020600091509150505481565b60008060009054906101000a900473ffffffffffffffffffffffffffffffffffffffff1673ffffffffffffffffffffffffffffffffffffffff163373ffffffffffffffffffffffffffffffffffffffff1614151561298757600080fd5b81600660008573ffffffffffffffffffffffffffffffffffffffff1673ffffffffffffffffffffffffffffffffffffffff16815260200190815260200160002060006101000a81548160ff0219169083151502179055506001905092915050565b600160009054906101000a900473ffffffffffffffffffffffffffffffffffffffff1681565b6000806000806000809054906101000a900473ffffffffffffffffffffffffffffffffffffffff1673ffffffffffffffffffffffffffffffffffffffff163373ffffffffffffffffffffffffffffffffffffffff161480612ab85750600660003373ffffffffffffffffffffffffffffffffffffffff1673ffffffffffffffffffffffffffffffffffffffff16815260200190815260200160002060009054906101000a900460ff165b1515612ac357600080fd5b308c8c8c8c8c604051808773ffffffffffffffffffffffffffffffffffffffff1673ffffffffffffffffffffffffffffffffffffffff166c010000000000000000000000000281526014018673ffffffffffffffffffffffffffffffffffffffff1673ffffffffffffffffffffffffffffffffffffffff166c010000000000000000000000000281526014018581526020018473ffffffffffffffffffffffffffffffffffffffff1673ffffffffffffffffffffffffffffffffffffffff166c010000000000000000000000000281526014018373ffffffffffffffffffffffffffffffffffffffff1673ffffffffffffffffffffffffffffffffffffffff166c01000000000000000000000000028152601401828152602001965050505050505060405180910390209250612bff838d8d8d8d8c8c8c613c1c565b1515612c0e5760009350613192565b670de0b6b3a7640000612c2a8c8761391590919063ffffffff16565b811515612c3357fe5b049150612cc58b600960008f73ffffffffffffffffffffffffffffffffffffffff1673ffffffffffffffffffffffffffffffffffffffff16815260200190815260200160002060008d73ffffffffffffffffffffffffffffffffffffffff1673ffffffffffffffffffffffffffffffffffffffff1681526020019081526020016000205461398190919063ffffffff16565b600960008e73ffffffffffffffffffffffffffffffffffffffff1673ffffffffffffffffffffffffffffffffffffffff16815260200190815260200160002060008c73ffffffffffffffffffffffffffffffffffffffff1673ffffffffffffffffffffffffffffffffffffffff16815260200190815260200160002081905550612df682600960008f73ffffffffffffffffffffffffffffffffffffffff1673ffffffffffffffffffffffffffffffffffffffff1681526020019081526020016000206000600160009054906101000a900473ffffffffffffffffffffffffffffffffffffffff1673ffffffffffffffffffffffffffffffffffffffff1673ffffffffffffffffffffffffffffffffffffffff1681526020019081526020016000205461396390919063ffffffff16565b600960008e73ffffffffffffffffffffffffffffffffffffffff1673ffffffffffffffffffffffffffffffffffffffff1681526020019081526020016000206000600160009054906101000a900473ffffffffffffffffffffffffffffffffffffffff1673ffffffffffffffffffffffffffffffffffffffff1673ffffffffffffffffffffffffffffffffffffffff16815260200190815260200160002081905550612eab828c61398190919063ffffffff16565b9a50600960008d73ffffffffffffffffffffffffffffffffffffffff1673ffffffffffffffffffffffffffffffffffffffff16815260200190815260200160002060008b73ffffffffffffffffffffffffffffffffffffffff1673ffffffffffffffffffffffffffffffffffffffff168152602001908152602001600020549050600073ffffffffffffffffffffffffffffffffffffffff168c73ffffffffffffffffffffffffffffffffffffffff161415612fa6578873ffffffffffffffffffffffffffffffffffffffff166108fc8c9081150290604051600060405180830381858888f193505050501515612fa157600080fd5b61306e565b8b73ffffffffffffffffffffffffffffffffffffffff1663a9059cbb8a8d6000604051602001526040518363ffffffff167c0100000000000000000000000000000000000000000000000000000000028152600401808373ffffffffffffffffffffffffffffffffffffffff1673ffffffffffffffffffffffffffffffffffffffff16815260200182815260200192505050602060405180830381600087803b151561305157600080fd5b6102c65a03f1151561306257600080fd5b50505060405180519050505b600160046000856000191660001916815260200190815260200160002060006101000a81548160ff02191690831515021790555043600760008c73ffffffffffffffffffffffffffffffffffffffff1673ffffffffffffffffffffffffffffffffffffffff168152602001908152602001600020819055507f74217ce088f00bfd283666b763c64f0d1b1c345591dfdd01891dddf52446694e8c8b8d84604051808573ffffffffffffffffffffffffffffffffffffffff1673ffffffffffffffffffffffffffffffffffffffff1681526020018473ffffffffffffffffffffffffffffffffffffffff1673ffffffffffffffffffffffffffffffffffffffff16815260200183815260200182815260200194505050505060405180910390a1600193505b50505098975050505050505050565b600060018560405180807f19457468657265756d205369676e6564204d6573736167653a0a333200000000815250601c0182600019166000191681526020019150506040518091039020858585604051600081526020016040526000604051602001526040518085600019166000191681526020018460ff1660ff16815260200183600019166000191681526020018260001916600019168152602001945050505050602060405160208103908084039060008661646e5a03f1151561326657600080fd5b50506020604051035173ffffffffffffffffffffffffffffffffffffffff168673ffffffffffffffffffffffffffffffffffffffff1614905095945050505050565b6000809054906101000a900473ffffffffffffffffffffffffffffffffffffffff1681565b600080341115156132dd57600080fd5b6132e860003461399a565b506001905090565b60008033600254613349600760008473ffffffffffffffffffffffffffffffffffffffff1673ffffffffffffffffffffffffffffffffffffffff168152602001908152602001600020544361398190919063ffffffff16565b1015151561335657600080fd5b33915083600960008773ffffffffffffffffffffffffffffffffffffffff1673ffffffffffffffffffffffffffffffffffffffff16815260200190815260200160002060008473ffffffffffffffffffffffffffffffffffffffff1673ffffffffffffffffffffffffffffffffffffffff16815260200190815260200160002054101515156133e457600080fd5b61347384600960008873ffffffffffffffffffffffffffffffffffffffff1673ffffffffffffffffffffffffffffffffffffffff16815260200190815260200160002060008573ffffffffffffffffffffffffffffffffffffffff1673ffffffffffffffffffffffffffffffffffffffff1681526020019081526020016000205461398190919063ffffffff16565b600960008773ffffffffffffffffffffffffffffffffffffffff1673ffffffffffffffffffffffffffffffffffffffff16815260200190815260200160002060008473ffffffffffffffffffffffffffffffffffffffff1673ffffffffffffffffffffffffffffffffffffffff16815260200190815260200160002081905550600073ffffffffffffffffffffffffffffffffffffffff168573ffffffffffffffffffffffffffffffffffffffff16141561356d578173ffffffffffffffffffffffffffffffffffffffff166108fc859081150290604051600060405180830381858888f19350505050151561356857600080fd5b61363f565b8473ffffffffffffffffffffffffffffffffffffffff1663a9059cbb83866000604051602001526040518363ffffffff167c0100000000000000000000000000000000000000000000000000000000028152600401808373ffffffffffffffffffffffffffffffffffffffff1673ffffffffffffffffffffffffffffffffffffffff16815260200182815260200192505050602060405180830381600087803b151561361857600080fd5b6102c65a03f1151561362957600080fd5b50505060405180519050151561363e57600080fd5b5b7fc1bc7b7b4880798c196e5adcf8dbbe770e901ad0bd5515af4dbc08d66eb18bfd858386600960008a73ffffffffffffffffffffffffffffffffffffffff1673ffffffffffffffffffffffffffffffffffffffff16815260200190815260200160002060008773ffffffffffffffffffffffffffffffffffffffff1673ffffffffffffffffffffffffffffffffffffffff16815260200190815260200160002054604051808573ffffffffffffffffffffffffffffffffffffffff1673ffffffffffffffffffffffffffffffffffffffff1681526020018473ffffffffffffffffffffffffffffffffffffffff1673ffffffffffffffffffffffffffffffffffffffff16815260200183815260200182815260200194505050505060405180910390a160019250505092915050565b60056020528060005260406000206000915054906101000a900460ff1681565b6000600960008073ffffffffffffffffffffffffffffffffffffffff16815260200190815260200160002060008373ffffffffffffffffffffffffffffffffffffffff1673ffffffffffffffffffffffffffffffffffffffff168152602001908152602001600020549050919050565b60008060009054906101000a900473ffffffffffffffffffffffffffffffffffffffff1673ffffffffffffffffffffffffffffffffffffffff163373ffffffffffffffffffffffffffffffffffffffff1614806138a45750600660003373ffffffffffffffffffffffffffffffffffffffff1673ffffffffffffffffffffffffffffffffffffffff16815260200190815260200160002060009054906101000a900460ff165b15156138af57600080fd5b8160028190555060019050919050565b60036020528060005260406000206000915054906101000a900460ff1681565b60025481565b60086020528060005260406000206000915090505481565b600a6020528060005260406000206000915090505481565b60008082840290506000841480613936575082848281151561393357fe5b04145b151561393e57fe5b8091505092915050565b600080828481151561395657fe5b0490508091505092915050565b600080828401905083811015151561397757fe5b8091505092915050565b600082821115151561398f57fe5b818303905092915050565b6000613a2b82600960008673ffffffffffffffffffffffffffffffffffffffff1673ffffffffffffffffffffffffffffffffffffffff16815260200190815260200160002060003373ffffffffffffffffffffffffffffffffffffffff1673ffffffffffffffffffffffffffffffffffffffff1681526020019081526020016000205461396390919063ffffffff16565b600960008573ffffffffffffffffffffffffffffffffffffffff1673ffffffffffffffffffffffffffffffffffffffff16815260200190815260200160002060003373ffffffffffffffffffffffffffffffffffffffff1673ffffffffffffffffffffffffffffffffffffffff1681526020019081526020016000208190555043600760003373ffffffffffffffffffffffffffffffffffffffff1673ffffffffffffffffffffffffffffffffffffffff168152602001908152602001600020819055507f4e3e4894f24a7c50bcb21d1ef785e34688bee05663c55d822eed7cefc2533123833384600960008873ffffffffffffffffffffffffffffffffffffffff1673ffffffffffffffffffffffffffffffffffffffff16815260200190815260200160002060003373ffffffffffffffffffffffffffffffffffffffff1673ffffffffffffffffffffffffffffffffffffffff16815260200190815260200160002054604051808573ffffffffffffffffffffffffffffffffffffffff1673ffffffffffffffffffffffffffffffffffffffff1681526020018473ffffffffffffffffffffffffffffffffffffffff1673ffffffffffffffffffffffffffffffffffffffff16815260200183815260200182815260200194505050505060405180910390a16001905092915050565b6000613c51868a86866000600281101515613c3357fe5b6020020151876001600281101515613c4757fe5b60200201516131a1565b1515613cb9577f36d86c59e00bd73dc19ba3adfe068e4b64ac7e92be35546adeddf1b956a87e906008600a811115613c8557fe5b8a604051808360ff1660ff16815260200182600019166000191681526020019250505060405180910390a160009050613f20565b600460008a6000191660001916815260200190815260200160002060009054906101000a900460ff1615613d49577f36d86c59e00bd73dc19ba3adfe068e4b64ac7e92be35546adeddf1b956a87e906005600a811115613d1557fe5b8a604051808360ff1660ff16815260200182600019166000191681526020019250505060405180910390a160009050613f20565b86600960008a73ffffffffffffffffffffffffffffffffffffffff1673ffffffffffffffffffffffffffffffffffffffff16815260200190815260200160002060008873ffffffffffffffffffffffffffffffffffffffff1673ffffffffffffffffffffffffffffffffffffffff168152602001908152602001600020541015613eae577f36d86c59e00bd73dc19ba3adfe068e4b64ac7e92be35546adeddf1b956a87e906002600a811115613dfb57fe5b600960008b73ffffffffffffffffffffffffffffffffffffffff1673ffffffffffffffffffffffffffffffffffffffff16815260200190815260200160002060008973ffffffffffffffffffffffffffffffffffffffff1673ffffffffffffffffffffffffffffffffffffffff16815260200190815260200160002054600102604051808360ff1660ff16815260200182600019166000191681526020019250505060405180910390a160009050613f20565b86821115613f1b577f36d86c59e00bd73dc19ba3adfe068e4b64ac7e92be35546adeddf1b956a87e906003600a811115613ee457fe5b83600102604051808360ff1660ff16815260200182600019166000191681526020019250505060405180910390a160009050613f20565b600190505b98975050505050505050565b61012060405190810160405280600081526020016000815260200160008152602001600081526020016000815260200160008152602001600073ffffffffffffffffffffffffffffffffffffffff168152602001600073ffffffffffffffffffffffffffffffffffffffff168152602001600073ffffffffffffffffffffffffffffffffffffffff1681525090565b6060604051908101604052806000815260200160008152602001600073ffffffffffffffffffffffffffffffffffffffff1681525090565b60e06040519081016040528060008152602001600081526020016000815260200160008152602001600073ffffffffffffffffffffffffffffffffffffffff168152602001600073ffffffffffffffffffffffffffffffffffffffff168152602001600073ffffffffffffffffffffffffffffffffffffffff16815250905600a165627a7a7230582033ef6fa47a94768f8c71aca87049754cbc708bd2896d81ddab026c2b1ea9cb220029",
  "source": "pragma solidity ^0.4.19;\n// pragma experimental ABIEncoderV2;\n\nimport './utils/SafeMath.sol';\nimport './utils/Owned.sol';\nimport './interfaces/ERC20.sol';\n\ncontract Exchange is Owned\n{\n  using SafeMath for uint256;\n\n  event LogTrade(address tokenBuy, address tokenSell, address maker, address taker, uint256 amount, bytes32 hsh);\n  event LogDeposit(address token, address user, uint256 amount, uint256 balance);\n  event LogWithdraw(address token, address user, uint256 amount, uint256 balance);\n  event LogSecurityWithdraw(address token, address user, uint256 amount, uint256 balance);\n  event LogTransfer(address token, address recipient);\n\n  event LogCancelOrder(\n    address tokenBuy,\n    uint256 amountBuy,\n    address tokenSell,\n    uint256 amountSell,\n    uint256 expires,\n    uint256 nonce,\n    address maker,\n    uint8 v,\n    bytes32 r,\n    bytes32 s\n  );\n\n  event LogCancelTrade(\n    bytes32 orderHash,\n    uint256 amount,\n    uint256 tradeNonce,\n    address taker,\n    address sender,\n    uint8 v,\n    bytes32 r,\n    bytes32 s\n  );\n\n  enum Errors\n  {\n    MAKER_INSUFFICIENT_BALANCE,\n    TAKER_INSUFFICIENT_BALANCE,\n    WITHDRAW_INSUFFICIENT_BALANCE,\n    WITHDRAW_FEE_TO_HIGH,\n    ORDER_EXPIRED,\n    WITHDRAW_ALREADY_COMPLETED,\n    TRADE_ALREADY_COMPLETED,\n    TRADE_AMOUNT_TOO_BIG,\n    SIGNATURE_INVALID,\n    MAKER_SIGNATURE_INVALID,\n    TAKER_SIGNATURE_INVALID\n  }\n\n  event LogError(\n    uint8  errorId,\n    bytes32  orderHash\n  );\n\n\n  address public feeAccount;\n  uint256 public withdrawalSecurityPeriod;\n  mapping (bytes32 => bool) public traded;\n  mapping (bytes32 => bool) public withdrawn;\n  mapping (bytes32 => bool) public transferred;\n  mapping (address => bool) public operators;\n  mapping (address => uint256) public lastTransaction;\n  mapping (bytes32 => uint256) public orderFills;\n  mapping (address => mapping (address => uint256)) public tokens;\n  mapping (address => uint256) public protectedFunds;\n\n  struct Order\n  {\n    uint256 amountBuy;\n    uint256 amountSell;\n    uint256 expires;\n    uint256 nonce;\n    uint256 feeMake;\n    uint256 feeTake;\n    address tokenBuy;\n    address tokenSell;\n    address maker;\n  }\n\n  struct TrimmedOrder\n  {\n    uint256 amountBuy;\n    uint256 amountSell;\n    uint256 expires;\n    uint256 nonce;\n    address tokenBuy;\n    address tokenSell;\n    address maker;\n  }\n\n  struct Trade\n  {\n    uint256 amount;\n    uint256 tradeNonce;\n    address taker;\n  }\n\n  function Exchange(address _feeAccount) public\n  {\n    feeAccount = _feeAccount;\n  }\n\n  function setFeeAccount(address _feeAccount) public onlyOperator returns (bool)\n  {\n    feeAccount = _feeAccount;\n    return true;\n  }\n\n  function setOperator(address operator, bool isOperator) public onlyOwner returns (bool)\n  {\n    operators[operator] = isOperator;\n    return true;\n  }\n\n  modifier onlyOperator\n  {\n    require(msg.sender == owner || operators[msg.sender]);\n    _;\n  }\n\n  function setWithdrawalSecurityPeriod(uint256 _withdrawalSecurityPeriod) public onlyOperator returns (bool)\n  {\n    withdrawalSecurityPeriod = _withdrawalSecurityPeriod;\n    return true;\n  }\n\n  modifier canWithdraw(address user)\n  {\n    require(block.number.sub(lastTransaction[user]) >= withdrawalSecurityPeriod);\n    _;\n  }\n\n  function depositEther() public payable returns (bool)\n  {\n    require(msg.value > 0);\n    deposit(0x0, msg.value);\n    return true;\n  }\n\n  function depositToken(address token, uint256 amount) public returns (bool)\n  {\n    require(token != address(0) && amount > 0);\n    deposit(token, amount);\n    ERC20(token).transferFrom(msg.sender, this, amount);\n    return true;\n  }\n\n  function deposit(address token, uint256 amount) internal returns (bool)\n  {\n    tokens[token][msg.sender] = tokens[token][msg.sender].add(amount);\n    lastTransaction[msg.sender] = block.number;\n    LogDeposit(token, msg.sender, amount, tokens[token][msg.sender]);\n    return true;\n  }\n\n  function tokenBalance(address trader, address token) constant returns (uint256)\n  {\n    return tokens[token][trader];\n  }\n\n  function etherBalance(address trader) constant returns (uint256)\n  {\n    return tokens[0x0][trader];\n  }\n\n  function securityWithdraw(address token, uint256 amount) public canWithdraw(msg.sender) returns (bool)\n  {\n    address trader = msg.sender;\n    require(tokens[token][trader] >= amount);\n    tokens[token][trader] = tokens[token][trader].sub(amount);\n\n    if (token == address(0))\n    {\n      require(trader.send(amount));\n    }\n    else\n    {\n      require(ERC20(token).transfer(trader, amount));\n    }\n\n    LogSecurityWithdraw(token, trader, amount, tokens[token][trader]);\n    return true;\n  }\n\n  function withdraw(\n    address token,\n    uint256 amount,\n    address trader,\n    address receiver,\n    uint256 nonce,\n    uint8 v,\n    bytes32[2] rs,\n    uint256 feeWithdrawal) public onlyOperator returns (bool)\n  {\n\n    bytes32 orderHash = keccak256(this, token, amount, trader, receiver, nonce);\n    if (!validateWithdrawal(orderHash, token, amount, trader, receiver, v, rs, feeWithdrawal))\n    {\n      return false;\n    }\n\n\n    uint256 fee = feeWithdrawal.mul(amount) / 1 ether;\n    tokens[token][trader] = tokens[token][trader].sub(amount);\n    tokens[token][feeAccount] = tokens[token][feeAccount].add(fee);\n    amount = amount.sub(fee);\n    uint256 tokenAmount = tokens[token][trader];\n\n    if (token == address(0))\n    {\n      receiver.transfer(amount);\n    }\n    else\n    {\n      ERC20(token).transfer(receiver, amount);\n    }\n\n    withdrawn[orderHash] = true;\n    lastTransaction[trader] = block.number;\n    LogWithdraw(token, trader, amount, tokenAmount);\n    return true;\n  }\n\n\n\n\n  function validateWithdrawal(\n    bytes32 orderHash,\n    address token,\n    uint256 amount,\n    address trader,\n    address receiver,\n    uint8 v,\n    bytes32[2] rs,\n    uint256 feeWithdrawal\n  ) internal returns (bool)\n  {\n\n    if (!isValidSignature(trader, orderHash, v, rs[0], rs[1]))\n    {\n      LogError(uint8(Errors.SIGNATURE_INVALID), orderHash);\n      return false;\n    }\n\n    if (withdrawn[orderHash])\n    {\n      LogError(uint8(Errors.WITHDRAW_ALREADY_COMPLETED), orderHash);\n      return false;\n    }\n\n    if (tokens[token][trader] < amount)\n    {\n      LogError(uint8(Errors.WITHDRAW_INSUFFICIENT_BALANCE), bytes32(tokens[token][trader]));\n      return false;\n    }\n\n    if (feeWithdrawal > amount)\n    {\n      LogError(uint8(Errors.WITHDRAW_FEE_TO_HIGH), bytes32(feeWithdrawal));\n      return false;\n    }\n\n\n    return true;\n  }\n\n  /**\n   amountBuy is the amount of buy tokens asked in the trade\n   amountSell is the amount of sell tokens offered in the trade\n   expires is the expiration time after which tokens the trade can no longer be completed\n   nonce\n   amount is the amount of buy tokens offered by the taker. In other words amount/amountBuy is the fraction of the initial trade to be carried out\n   tradeNonce\n   feeMake is the maker fee\n   feeTake is the taker fee\n   tokenBuy is the ethereum address of the buy token\n   tokenSell is the ethereum address of the sell token\n   maker is the ethereum address of the maker\n   taker is the ethereum address of the taker\n   v[0], rs[0], rs[1] are respectively v, r, s of the maker's signature\n   v[1], rs[2], rs[3] are respectively v, r, s of the taker's signature\n   */\n  // function trade(\n  //   uint256 amountBuy,\n  //   uint256 amountSell,\n  //   uint256 expires,\n  //   uint256 nonce,\n  //   uint256 amount,\n  //   uint256 tradeNonce,\n  //   uint256 feeMake,\n  //   uint256 feeTake,\n  //   address tokenBuy,\n  //   address tokenSell,\n  //   address maker,\n  //   address taker,\n  //   uint8[2]v,\n  //   bytes32[4] rs\n  // ) public onlyOperator returns (bool)\n  function executeTrade(\n    uint256[8] orderValues,\n    address[4] orderAddresses,\n    uint8[2] memory v,\n    bytes32[4] memory rs\n  ) public onlyOperator returns (bool)\n  {\n    Order memory order = Order({\n      amountBuy: orderValues[0],\n      amountSell: orderValues[1],\n      expires: orderValues[2],\n      nonce: orderValues[3],\n      feeMake: orderValues[4],\n      feeTake: orderValues[5],\n      tokenBuy: orderAddresses[0],\n      tokenSell: orderAddresses[1],\n      maker: orderAddresses[2]\n    });\n\n    Trade memory trade = Trade({\n      amount: orderValues[6],\n      tradeNonce: orderValues[7],\n      taker: orderAddresses[3]\n    });\n\n    bytes32 orderHash = keccak256(this, order.tokenBuy, order.amountBuy, order.tokenSell, order.amountSell, order.expires, order.nonce, order.maker);\n    bytes32 tradeHash = keccak256(orderHash, trade.amount, trade.taker, trade.tradeNonce);\n\n    if (!isValidSignature(order.maker, orderHash, v[0] , rs[0], rs[1]))\n    {\n      LogError(uint8(Errors.MAKER_SIGNATURE_INVALID), orderHash);\n      return false;\n    }\n\n    if (!isValidSignature(trade.taker, tradeHash, v[1] ,rs[2], rs[3]))\n    {\n      LogError(uint8(Errors.TAKER_SIGNATURE_INVALID), tradeHash);\n      return false;\n    }\n\n    if (order.expires < block.number) {\n      LogError(uint8(Errors.ORDER_EXPIRED), orderHash);\n      return false;\n    }\n\n    if (tokens[order.tokenBuy][trade.taker] < trade.amount)\n    {\n      LogError(uint8(Errors.TAKER_INSUFFICIENT_BALANCE), tradeHash);\n      return false;\n    }\n\n    if (tokens[order.tokenSell][order.maker] < order.amountSell.mul(trade.amount).div(order.amountBuy))\n    {\n      LogError(uint8(Errors.MAKER_INSUFFICIENT_BALANCE), tradeHash);\n      return false;\n    }\n\n    if (traded[tradeHash])\n    {\n      LogError(uint8(Errors.TRADE_ALREADY_COMPLETED), tradeHash);\n      return false;\n    }\n\n    if (orderFills[orderHash].add(trade.amount) > order.amountBuy)\n    {\n      LogError(uint8(Errors.TRADE_AMOUNT_TOO_BIG), tradeHash);\n      return false;\n    }\n\n    traded[tradeHash] = true;\n\n    uint256 makerFee = trade.amount.mul(order.feeMake) / 1 ether;\n    uint256 amountSellAdjusted = order.amountSell.mul(trade.amount).div(order.amountBuy);\n    uint256 takerFee = order.feeTake.mul(amountSellAdjusted) / 1 ether;\n\n    tokens[order.tokenBuy][order.maker] = tokens[order.tokenBuy][order.maker].add(trade.amount - makerFee);\n    tokens[order.tokenBuy][trade.taker] = tokens[order.tokenBuy][trade.taker].sub(trade.amount);\n    tokens[order.tokenBuy][feeAccount] = tokens[order.tokenBuy][feeAccount].add(makerFee);\n\n    tokens[order.tokenSell][order.maker] = tokens[order.tokenSell][order.maker].sub(order.amountSell.mul(trade.amount).div(order.amountBuy));\n    tokens[order.tokenSell][trade.taker] = tokens[order.tokenSell][trade.taker].add(amountSellAdjusted.sub(takerFee));\n    tokens[order.tokenSell][feeAccount] = tokens[order.tokenSell][feeAccount].add(takerFee);\n    orderFills[orderHash] = orderFills[orderHash].add(trade.amount);\n\n    lastTransaction[order.maker] = block.number;\n    lastTransaction[trade.taker] = block.number;\n    LogTrade(order.tokenBuy, order.tokenSell, order.maker, trade.taker, trade.amount, orderHash);\n    return true;\n  }\n\n  function cancelOrder(\n    uint256[5] orderValues,\n    address[4] orderAddresses,\n    uint8 v,\n    bytes32 r,\n    bytes32 s\n    ) public returns (bool)\n  {\n    TrimmedOrder memory order = TrimmedOrder({\n      amountBuy: orderValues[0],\n      amountSell: orderValues[1],\n      expires: orderValues[2],\n      nonce: orderValues[3],\n      tokenBuy: orderAddresses[0],\n      tokenSell: orderAddresses[1],\n      maker: orderAddresses[2]\n    });\n\n    bytes32 orderHash = keccak256(this, order.tokenBuy, order.amountBuy, order.tokenSell, order.amountSell, order.expires, order.nonce, order.maker);\n\n    if (!isValidSignature(msg.sender, orderHash, v, r, s))\n    {\n      LogError(uint8(Errors.SIGNATURE_INVALID), orderHash);\n      return false;\n    }\n\n    orderFills[orderHash] = order.amountBuy;\n    LogCancelOrder(order.tokenBuy, order.amountBuy, order.tokenSell, order.amountSell, order.expires, order.nonce, msg.sender, v, r, s);\n  }\n\n  function cancelTrade(\n    bytes32 orderHash,\n    uint256 amount,\n    uint256 tradeNonce,\n    address taker,\n    uint8 v,\n    bytes32 r,\n    bytes32 s\n  ) public returns (bool)\n  {\n    bytes32 tradeHash = keccak256(orderHash, amount, taker, tradeNonce);\n\n    if (!isValidSignature(msg.sender, tradeHash, v, r, s))\n    {\n      LogError(uint8(Errors.SIGNATURE_INVALID), tradeHash);\n      return false;\n    }\n\n    traded[tradeHash] = true;\n    LogCancelTrade(orderHash, amount, tradeNonce, taker, msg.sender, v, r, s);\n  }\n\n  function isValidSignature(\n    address signer,\n    bytes32 hashedData,\n    uint8 v,\n    bytes32 r,\n    bytes32 s\n  ) public constant returns (bool)\n  {\n    return signer == ecrecover(\n        keccak256(\"\\x19Ethereum Signed Message:\\n32\", hashedData),\n        v,\n        r,\n        s\n    );\n  }\n\n\n  function() external\n  {\n    revert();\n  }\n\n\n\n}",
  "sourcePath": "/Users/davidvanisacker/Programming/Ethereum/Proofsuite/proof-dex/contracts/Exchange.sol",
  "compiler": {
    "name": "solc",
    "version": "0.4.19+commit.c4cbbb05.Emscripten.clang"
  },
  "schemaVersion": "2.0.0",
  "updatedAt": "2018-05-11T16:18:12.671Z"
}