{
  "contractName": "Exchange",
  "abi": [
    {
      "constant": false,
      "inputs": [
        {
          "name": "newOwner",
          "type": "address"
        }
      ],
      "name": "setOwner",
      "outputs": [],
      "payable": false,
      "stateMutability": "nonpayable",
      "type": "function"
    },
    {
      "constant": true,
      "inputs": [
        {
          "name": "",
          "type": "address"
        }
      ],
      "name": "operators",
      "outputs": [
        {
          "name": "",
          "type": "bool"
        }
      ],
      "payable": false,
      "stateMutability": "view",
      "type": "function"
    },
    {
      "constant": true,
      "inputs": [
        {
          "name": "",
          "type": "bytes32"
        }
      ],
      "name": "filled",
      "outputs": [
        {
          "name": "",
          "type": "uint256"
        }
      ],
      "payable": false,
      "stateMutability": "view",
      "type": "function"
    },
    {
      "constant": true,
      "inputs": [],
      "name": "wethToken",
      "outputs": [
        {
          "name": "",
          "type": "address"
        }
      ],
      "payable": false,
      "stateMutability": "view",
      "type": "function"
    },
    {
      "constant": true,
      "inputs": [],
      "name": "feeAccount",
      "outputs": [
        {
          "name": "",
          "type": "address"
        }
      ],
      "payable": false,
      "stateMutability": "view",
      "type": "function"
    },
    {
      "constant": true,
      "inputs": [],
      "name": "owner",
      "outputs": [
        {
          "name": "",
          "type": "address"
        }
      ],
      "payable": false,
      "stateMutability": "view",
      "type": "function"
    },
    {
      "constant": true,
      "inputs": [
        {
          "name": "",
          "type": "bytes32"
        }
      ],
      "name": "traded",
      "outputs": [
        {
          "name": "",
          "type": "bool"
        }
      ],
      "payable": false,
      "stateMutability": "view",
      "type": "function"
    },
    {
      "constant": true,
      "inputs": [],
      "name": "VERSION",
      "outputs": [
        {
          "name": "",
          "type": "string"
        }
      ],
      "payable": false,
      "stateMutability": "view",
      "type": "function"
    },
    {
      "inputs": [
        {
          "name": "_wethToken",
          "type": "address"
        },
        {
          "name": "_feeAccount",
          "type": "address"
        }
      ],
      "payable": false,
      "stateMutability": "nonpayable",
      "type": "constructor"
    },
    {
      "anonymous": false,
      "inputs": [
        {
          "indexed": false,
          "name": "oldWethToken",
          "type": "address"
        },
        {
          "indexed": false,
          "name": "newWethToken",
          "type": "address"
        }
      ],
      "name": "LogWethTokenUpdate",
      "type": "event"
    },
    {
      "anonymous": false,
      "inputs": [
        {
          "indexed": false,
          "name": "oldFeeAccount",
          "type": "address"
        },
        {
          "indexed": false,
          "name": "newFeeAccount",
          "type": "address"
        }
      ],
      "name": "LogFeeAccountUpdate",
      "type": "event"
    },
    {
      "anonymous": false,
      "inputs": [
        {
          "indexed": false,
          "name": "operator",
          "type": "address"
        },
        {
          "indexed": false,
          "name": "isOperator",
          "type": "bool"
        }
      ],
      "name": "LogOperatorUpdate",
      "type": "event"
    },
    {
      "anonymous": false,
      "inputs": [
        {
          "indexed": true,
          "name": "maker",
          "type": "address"
        },
        {
          "indexed": true,
          "name": "taker",
          "type": "address"
        },
        {
          "indexed": false,
          "name": "tokenSell",
          "type": "address"
        },
        {
          "indexed": false,
          "name": "tokenBuy",
          "type": "address"
        },
        {
          "indexed": false,
          "name": "filledAmountSell",
          "type": "uint256"
        },
        {
          "indexed": false,
          "name": "filledAmountBuy",
          "type": "uint256"
        },
        {
          "indexed": false,
          "name": "paidFeeMake",
          "type": "uint256"
        },
        {
          "indexed": false,
          "name": "paidFeeTake",
          "type": "uint256"
        },
        {
          "indexed": false,
          "name": "orderHash",
          "type": "bytes32"
        },
        {
          "indexed": true,
          "name": "tokenPairHash",
          "type": "bytes32"
        }
      ],
      "name": "LogTrade",
      "type": "event"
    },
    {
      "anonymous": false,
      "inputs": [
        {
          "indexed": false,
          "name": "errorId",
          "type": "uint8"
        },
        {
          "indexed": false,
          "name": "orderHash",
          "type": "bytes32"
        }
      ],
      "name": "LogError",
      "type": "event"
    },
    {
      "anonymous": false,
      "inputs": [
        {
          "indexed": false,
          "name": "orderHash",
          "type": "bytes32"
        },
        {
          "indexed": false,
          "name": "tokenBuy",
          "type": "address"
        },
        {
          "indexed": false,
          "name": "amountBuy",
          "type": "uint256"
        },
        {
          "indexed": false,
          "name": "tokenSell",
          "type": "address"
        },
        {
          "indexed": false,
          "name": "amountSell",
          "type": "uint256"
        },
        {
          "indexed": false,
          "name": "expires",
          "type": "uint256"
        },
        {
          "indexed": false,
          "name": "nonce",
          "type": "uint256"
        },
        {
          "indexed": true,
          "name": "maker",
          "type": "address"
        },
        {
          "indexed": true,
          "name": "tokenPairHash",
          "type": "bytes32"
        }
      ],
      "name": "LogCancelOrder",
      "type": "event"
    },
    {
      "anonymous": false,
      "inputs": [
        {
          "indexed": false,
          "name": "orderHash",
          "type": "bytes32"
        },
        {
          "indexed": false,
          "name": "amount",
          "type": "uint256"
        },
        {
          "indexed": false,
          "name": "tradeNonce",
          "type": "uint256"
        },
        {
          "indexed": true,
          "name": "taker",
          "type": "address"
        }
      ],
      "name": "LogCancelTrade",
      "type": "event"
    },
    {
      "anonymous": false,
      "inputs": [
        {
          "indexed": true,
          "name": "previousOwner",
          "type": "address"
        },
        {
          "indexed": true,
          "name": "newOwner",
          "type": "address"
        }
      ],
      "name": "SetOwner",
      "type": "event"
    },
    {
      "constant": false,
      "inputs": [
        {
          "name": "_wethToken",
          "type": "address"
        }
      ],
      "name": "setWethToken",
      "outputs": [
        {
          "name": "",
          "type": "bool"
        }
      ],
      "payable": false,
      "stateMutability": "nonpayable",
      "type": "function"
    },
    {
      "constant": false,
      "inputs": [
        {
          "name": "_feeAccount",
          "type": "address"
        }
      ],
      "name": "setFeeAccount",
      "outputs": [
        {
          "name": "",
          "type": "bool"
        }
      ],
      "payable": false,
      "stateMutability": "nonpayable",
      "type": "function"
    },
    {
      "constant": false,
      "inputs": [
        {
          "name": "_operator",
          "type": "address"
        },
        {
          "name": "_isOperator",
          "type": "bool"
        }
      ],
      "name": "setOperator",
      "outputs": [
        {
          "name": "",
          "type": "bool"
        }
      ],
      "payable": false,
      "stateMutability": "nonpayable",
      "type": "function"
    },
    {
      "constant": false,
      "inputs": [
        {
          "name": "orderValues",
          "type": "uint256[8]"
        },
        {
          "name": "orderAddresses",
          "type": "address[4]"
        },
        {
          "name": "v",
          "type": "uint8[2]"
        },
        {
          "name": "rs",
          "type": "bytes32[4]"
        }
      ],
      "name": "executeTrade",
      "outputs": [
        {
          "name": "",
          "type": "bool"
        }
      ],
      "payable": false,
      "stateMutability": "nonpayable",
      "type": "function"
    },
    {
      "constant": false,
      "inputs": [
        {
          "name": "orderValues",
          "type": "uint256[6]"
        },
        {
          "name": "orderAddresses",
          "type": "address[3]"
        },
        {
          "name": "v",
          "type": "uint8"
        },
        {
          "name": "r",
          "type": "bytes32"
        },
        {
          "name": "s",
          "type": "bytes32"
        }
      ],
      "name": "cancelOrder",
      "outputs": [
        {
          "name": "",
          "type": "bool"
        }
      ],
      "payable": false,
      "stateMutability": "nonpayable",
      "type": "function"
    },
    {
      "constant": false,
      "inputs": [
        {
          "name": "orderHash",
          "type": "bytes32"
        },
        {
          "name": "amount",
          "type": "uint256"
        },
        {
          "name": "tradeNonce",
          "type": "uint256"
        },
        {
          "name": "taker",
          "type": "address"
        },
        {
          "name": "v",
          "type": "uint8"
        },
        {
          "name": "r",
          "type": "bytes32"
        },
        {
          "name": "s",
          "type": "bytes32"
        }
      ],
      "name": "cancelTrade",
      "outputs": [
        {
          "name": "",
          "type": "bool"
        }
      ],
      "payable": false,
      "stateMutability": "nonpayable",
      "type": "function"
    },
    {
      "constant": true,
      "inputs": [
        {
          "name": "signer",
          "type": "address"
        },
        {
          "name": "hash",
          "type": "bytes32"
        },
        {
          "name": "v",
          "type": "uint8"
        },
        {
          "name": "r",
          "type": "bytes32"
        },
        {
          "name": "s",
          "type": "bytes32"
        }
      ],
      "name": "isValidSignature",
      "outputs": [
        {
          "name": "",
          "type": "bool"
        }
      ],
      "payable": false,
      "stateMutability": "pure",
      "type": "function"
    },
    {
      "constant": true,
      "inputs": [
        {
          "name": "numerator",
          "type": "uint256"
        },
        {
          "name": "denominator",
          "type": "uint256"
        },
        {
          "name": "target",
          "type": "uint256"
        }
      ],
      "name": "isRoundingError",
      "outputs": [
        {
          "name": "",
          "type": "bool"
        }
      ],
      "payable": false,
      "stateMutability": "pure",
      "type": "function"
    },
    {
      "constant": true,
      "inputs": [
        {
          "name": "numerator",
          "type": "uint256"
        },
        {
          "name": "denominator",
          "type": "uint256"
        },
        {
          "name": "target",
          "type": "uint256"
        }
      ],
      "name": "getPartialAmount",
      "outputs": [
        {
          "name": "",
          "type": "uint256"
        }
      ],
      "payable": false,
      "stateMutability": "pure",
      "type": "function"
    }
  ],
  "bytecode": "0x608060405234801561001057600080fd5b50604051604080612a028339810180604052810190808051906020019092919080519060200190929190505050336000806101000a81548173ffffffffffffffffffffffffffffffffffffffff021916908373ffffffffffffffffffffffffffffffffffffffff16021790555081600160006101000a81548173ffffffffffffffffffffffffffffffffffffffff021916908373ffffffffffffffffffffffffffffffffffffffff16021790555080600260006101000a81548173ffffffffffffffffffffffffffffffffffffffff021916908373ffffffffffffffffffffffffffffffffffffffff16021790555050506128f2806101106000396000f3006080604052600436106100f1576000357c0100000000000000000000000000000000000000000000000000000000900463ffffffff16806313af4035146100f657806313e7c9d81461013957806314df96ee146101945780632207148d146101ed578063288cdc91146102e5578063468ddf2e1461032a5780634b023cf8146103d05780634b57b0be1461042b578063558a72971461048257806365e17c9d146104e95780638163681e1461054057806386e09c08146105d25780638da5cb5b1461062d57806398024a8b14610684578063d5813323146106d9578063d9a72b5214610722578063ffa1ad74146107e4575b600080fd5b34801561010257600080fd5b50610137600480360381019080803573ffffffffffffffffffffffffffffffffffffffff169060200190929190505050610874565b005b34801561014557600080fd5b5061017a600480360381019080803573ffffffffffffffffffffffffffffffffffffffff16906020019092919050505061098d565b604051808215151515815260200191505060405180910390f35b3480156101a057600080fd5b506101d36004803603810190808035906020019092919080359060200190929190803590602001909291905050506109ad565b604051808215151515815260200191505060405180910390f35b3480156101f957600080fd5b506102cb600480360381019080806101000190600880602002604051908101604052809291908260086020028082843782019150505050509192919290806080019060048060200260405190810160405280929190826004602002808284378201915050505050919291929080604001906002806020026040519081016040528092919082600260200280828437820191505050505091929192908060800190600480602002604051908101604052809291908260046020028082843782019150505050509192919290505050610a20565b604051808215151515815260200191505060405180910390f35b3480156102f157600080fd5b50610314600480360381019080803560001916906020019092919050505061185e565b6040518082815260200191505060405180910390f35b34801561033657600080fd5b506103b660048036038101908080356000191690602001909291908035906020019092919080359060200190929190803573ffffffffffffffffffffffffffffffffffffffff169060200190929190803560ff16906020019092919080356000191690602001909291908035600019169060200190929190505050611876565b604051808215151515815260200191505060405180910390f35b3480156103dc57600080fd5b50610411600480360381019080803573ffffffffffffffffffffffffffffffffffffffff1690602001909291905050506119ec565b604051808215151515815260200191505060405180910390f35b34801561043757600080fd5b50610440611b88565b604051808273ffffffffffffffffffffffffffffffffffffffff1673ffffffffffffffffffffffffffffffffffffffff16815260200191505060405180910390f35b34801561048e57600080fd5b506104cf600480360381019080803573ffffffffffffffffffffffffffffffffffffffff169060200190929190803515159060200190929190505050611bae565b604051808215151515815260200191505060405180910390f35b3480156104f557600080fd5b506104fe611d17565b604051808273ffffffffffffffffffffffffffffffffffffffff1673ffffffffffffffffffffffffffffffffffffffff16815260200191505060405180910390f35b34801561054c57600080fd5b506105b8600480360381019080803573ffffffffffffffffffffffffffffffffffffffff1690602001909291908035600019169060200190929190803560ff16906020019092919080356000191690602001909291908035600019169060200190929190505050611d3d565b604051808215151515815260200191505060405180910390f35b3480156105de57600080fd5b50610613600480360381019080803573ffffffffffffffffffffffffffffffffffffffff169060200190929190505050611eaa565b604051808215151515815260200191505060405180910390f35b34801561063957600080fd5b5061064261200a565b604051808273ffffffffffffffffffffffffffffffffffffffff1673ffffffffffffffffffffffffffffffffffffffff16815260200191505060405180910390f35b34801561069057600080fd5b506106c360048036038101908080359060200190929190803590602001909291908035906020019092919050505061202f565b6040518082815260200191505060405180910390f35b3480156106e557600080fd5b50610708600480360381019080803560001916906020019092919050505061205f565b604051808215151515815260200191505060405180910390f35b34801561072e57600080fd5b506107ca6004803603810190808060c001906006806020026040519081016040528092919082600660200280828437820191505050505091929192908060600190600380602002604051908101604052809291908260036020028082843782019150505050509192919290803560ff1690602001909291908035600019169060200190929190803560001916906020019092919050505061207f565b604051808215151515815260200191505060405180910390f35b3480156107f057600080fd5b506107f9612476565b6040518080602001828103825283818151815260200191508051906020019080838360005b8381101561083957808201518184015260208101905061081e565b50505050905090810190601f1680156108665780820380516001836020036101000a031916815260200191505b509250505060405180910390f35b6000809054906101000a900473ffffffffffffffffffffffffffffffffffffffff1673ffffffffffffffffffffffffffffffffffffffff163373ffffffffffffffffffffffffffffffffffffffff161415156108cf57600080fd5b8073ffffffffffffffffffffffffffffffffffffffff166000809054906101000a900473ffffffffffffffffffffffffffffffffffffffff1673ffffffffffffffffffffffffffffffffffffffff167fcbf985117192c8f614a58aaf97226bb80a754772f5f6edf06f87c675f2e6c66360405160405180910390a3806000806101000a81548173ffffffffffffffffffffffffffffffffffffffff021916908373ffffffffffffffffffffffffffffffffffffffff16021790555050565b60036020528060005260406000206000915054906101000a900460ff1681565b6000806000848015156109bc57fe5b868509915060008214156109d35760009250610a17565b610a0d6109e985886124af90919063ffffffff16565b6109ff620f4240856124af90919063ffffffff16565b6124e290919063ffffffff16565b90506103e8811192505b50509392505050565b6000610a2a6127f5565b6000610a34612884565b6000806000806000809054906101000a900473ffffffffffffffffffffffffffffffffffffffff1673ffffffffffffffffffffffffffffffffffffffff163373ffffffffffffffffffffffffffffffffffffffff161480610ade5750600360003373ffffffffffffffffffffffffffffffffffffffff1673ffffffffffffffffffffffffffffffffffffffff16815260200190815260200160002060009054906101000a900460ff165b1515610ae957600080fd5b610120604051908101604052808d6000600881101515610b0557fe5b602002015181526020018d6001600881101515610b1e57fe5b602002015181526020018d6002600881101515610b3757fe5b602002015181526020018d6003600881101515610b5057fe5b602002015181526020018d6004600881101515610b6957fe5b602002015181526020018d6005600881101515610b8257fe5b602002015181526020018c6000600481101515610b9b57fe5b602002015173ffffffffffffffffffffffffffffffffffffffff1681526020018c6001600481101515610bca57fe5b602002015173ffffffffffffffffffffffffffffffffffffffff1681526020018c6002600481101515610bf957fe5b602002015173ffffffffffffffffffffffffffffffffffffffff168152509650610c22876124fd565b9550608060405190810160405280876000191681526020018d6006600881101515610c4957fe5b602002015181526020018d6007600881101515610c6257fe5b602002015181526020018c6003600481101515610c7b57fe5b602002015173ffffffffffffffffffffffffffffffffffffffff168152509450610ca4856126e1565b9350610cf1876101000151878c6000600281101515610cbf57fe5b60200201518c6000600481101515610cd357fe5b60200201518d6001600481101515610ce757fe5b6020020151611d3d565b1515610d59577f36d86c59e00bd73dc19ba3adfe068e4b64ac7e92be35546adeddf1b956a87e9060016006811115610d2557fe5b87604051808360ff1660ff16815260200182600019166000191681526020019250505060405180910390a16000975061184f565b610da38560600151858c6001600281101515610d7157fe5b60200201518c6002600481101515610d8557fe5b60200201518d6003600481101515610d9957fe5b6020020151611d3d565b1515610e0b577f36d86c59e00bd73dc19ba3adfe068e4b64ac7e92be35546adeddf1b956a87e9060026006811115610dd757fe5b85604051808360ff1660ff16815260200182600019166000191681526020019250505060405180910390a16000975061184f565b4387604001511015610e79577f36d86c59e00bd73dc19ba3adfe068e4b64ac7e92be35546adeddf1b956a87e9060036006811115610e4557fe5b87604051808360ff1660ff16815260200182600019166000191681526020019250505060405180910390a16000975061184f565b60056000856000191660001916815260200190815260200160002060009054906101000a900460ff1615610f09577f36d86c59e00bd73dc19ba3adfe068e4b64ac7e92be35546adeddf1b956a87e9060046006811115610ed557fe5b85604051808360ff1660ff16815260200182600019166000191681526020019250505060405180910390a16000975061184f565b8660000151610f408660200151600460008a60001916600019168152602001908152602001600020546127d790919063ffffffff16565b1115610fa8577f36d86c59e00bd73dc19ba3adfe068e4b64ac7e92be35546adeddf1b956a87e9060056006811115610f7457fe5b87604051808360ff1660ff16815260200182600019166000191681526020019250505060405180910390a16000975061184f565b610fbf8560200151886000015189602001516109ad565b15611025577f36d86c59e00bd73dc19ba3adfe068e4b64ac7e92be35546adeddf1b956a87e90600680811115610ff157fe5b87604051808360ff1660ff16815260200182600019166000191681526020019250505060405180910390a16000975061184f565b600160056000866000191660001916815260200190815260200160002060006101000a81548160ff02191690831515021790555061107085602001518860000151896020015161202f565b92506110a48560200151600460008960001916600019168152602001908152602001600020546127d790919063ffffffff16565b600460008860001916600019168152602001908152602001600020819055508660e0015173ffffffffffffffffffffffffffffffffffffffff166323b872dd8861010001518760600151866040518463ffffffff167c0100000000000000000000000000000000000000000000000000000000028152600401808473ffffffffffffffffffffffffffffffffffffffff1673ffffffffffffffffffffffffffffffffffffffff1681526020018373ffffffffffffffffffffffffffffffffffffffff1673ffffffffffffffffffffffffffffffffffffffff1681526020018281526020019350505050602060405180830381600087803b1580156111a757600080fd5b505af11580156111bb573d6000803e3d6000fd5b505050506040513d60208110156111d157600080fd5b810190808051906020019092919050505015156111ed57600080fd5b8660c0015173ffffffffffffffffffffffffffffffffffffffff166323b872dd866060015189610100015188602001516040518463ffffffff167c0100000000000000000000000000000000000000000000000000000000028152600401808473ffffffffffffffffffffffffffffffffffffffff1673ffffffffffffffffffffffffffffffffffffffff1681526020018373ffffffffffffffffffffffffffffffffffffffff1673ffffffffffffffffffffffffffffffffffffffff1681526020018281526020019350505050602060405180830381600087803b1580156112d557600080fd5b505af11580156112e9573d6000803e3d6000fd5b505050506040513d60208110156112ff57600080fd5b8101908080519060200190929190505050151561131b57600080fd5b6000876080015111156114a85761133f85602001518860000151896080015161202f565b9150600160009054906101000a900473ffffffffffffffffffffffffffffffffffffffff1673ffffffffffffffffffffffffffffffffffffffff166323b872dd886101000151600260009054906101000a900473ffffffffffffffffffffffffffffffffffffffff16856040518463ffffffff167c0100000000000000000000000000000000000000000000000000000000028152600401808473ffffffffffffffffffffffffffffffffffffffff1673ffffffffffffffffffffffffffffffffffffffff1681526020018373ffffffffffffffffffffffffffffffffffffffff1673ffffffffffffffffffffffffffffffffffffffff1681526020018281526020019350505050602060405180830381600087803b15801561146157600080fd5b505af1158015611475573d6000803e3d6000fd5b505050506040513d602081101561148b57600080fd5b810190808051906020019092919050505015156114a757600080fd5b5b60008760a001511115611634576114cc856020015188600001518960a0015161202f565b9050600160009054906101000a900473ffffffffffffffffffffffffffffffffffffffff1673ffffffffffffffffffffffffffffffffffffffff166323b872dd8660600151600260009054906101000a900473ffffffffffffffffffffffffffffffffffffffff16846040518463ffffffff167c0100000000000000000000000000000000000000000000000000000000028152600401808473ffffffffffffffffffffffffffffffffffffffff1673ffffffffffffffffffffffffffffffffffffffff1681526020018373ffffffffffffffffffffffffffffffffffffffff1673ffffffffffffffffffffffffffffffffffffffff1681526020018281526020019350505050602060405180830381600087803b1580156115ed57600080fd5b505af1158015611601573d6000803e3d6000fd5b505050506040513d602081101561161757600080fd5b8101908080519060200190929190505050151561163357600080fd5b5b8660e001518760c00151604051602001808373ffffffffffffffffffffffffffffffffffffffff1673ffffffffffffffffffffffffffffffffffffffff166c010000000000000000000000000281526014018273ffffffffffffffffffffffffffffffffffffffff1673ffffffffffffffffffffffffffffffffffffffff166c01000000000000000000000000028152601401925050506040516020818303038152906040526040518082805190602001908083835b60208310151561170f57805182526020820191506020810190506020830392506116ea565b6001836020036101000a038019825116818451168082178552505050505050905001915050604051809103902060001916856060015173ffffffffffffffffffffffffffffffffffffffff1688610100015173ffffffffffffffffffffffffffffffffffffffff167fb4a2621e692ef302b0037962e0aeed5b48fa4aef18a59403aac1e81d041969428a60e001518b60c00151888b6020015189898f604051808873ffffffffffffffffffffffffffffffffffffffff1673ffffffffffffffffffffffffffffffffffffffff1681526020018773ffffffffffffffffffffffffffffffffffffffff1673ffffffffffffffffffffffffffffffffffffffff168152602001868152602001858152602001848152602001838152602001826000191660001916815260200197505050505050505060405180910390a4600197505b50505050505050949350505050565b60046020528060005260406000206000915090505481565b6000611880612884565b60006080604051908101604052808b6000191681526020018a81526020018981526020018873ffffffffffffffffffffffffffffffffffffffff1681525091506118c9826126e1565b90506118d83382888888611d3d565b1515611940577f36d86c59e00bd73dc19ba3adfe068e4b64ac7e92be35546adeddf1b956a87e906000600681111561190c57fe5b82604051808360ff1660ff16815260200182600019166000191681526020019250505060405180910390a1600092506119df565b600160056000836000191660001916815260200190815260200160002060006101000a81548160ff0219169083151502179055508673ffffffffffffffffffffffffffffffffffffffff167f1debd637af55cac936fd656ab3fb0391eb4eb29cb178bf44577ef6cecc10ae258b8b8b604051808460001916600019168152602001838152602001828152602001935050505060405180910390a2600192505b5050979650505050505050565b60008060009054906101000a900473ffffffffffffffffffffffffffffffffffffffff1673ffffffffffffffffffffffffffffffffffffffff163373ffffffffffffffffffffffffffffffffffffffff16141515611a4957600080fd5b600073ffffffffffffffffffffffffffffffffffffffff168273ffffffffffffffffffffffffffffffffffffffff1614151515611a8557600080fd5b7ff822f5a19627202340985855aeffadb385833332f2f700b3e6287d28547778a9600260009054906101000a900473ffffffffffffffffffffffffffffffffffffffff1683604051808373ffffffffffffffffffffffffffffffffffffffff1673ffffffffffffffffffffffffffffffffffffffff1681526020018273ffffffffffffffffffffffffffffffffffffffff1673ffffffffffffffffffffffffffffffffffffffff1681526020019250505060405180910390a181600260006101000a81548173ffffffffffffffffffffffffffffffffffffffff021916908373ffffffffffffffffffffffffffffffffffffffff16021790555060019050919050565b600160009054906101000a900473ffffffffffffffffffffffffffffffffffffffff1681565b60008060009054906101000a900473ffffffffffffffffffffffffffffffffffffffff1673ffffffffffffffffffffffffffffffffffffffff163373ffffffffffffffffffffffffffffffffffffffff16141515611c0b57600080fd5b600073ffffffffffffffffffffffffffffffffffffffff168373ffffffffffffffffffffffffffffffffffffffff1614151515611c4757600080fd5b7f4af650e9ee9ac50b37ec2cd3ddac7e1c69955ffc871bc3e812563775f3bc0e7d8383604051808373ffffffffffffffffffffffffffffffffffffffff1673ffffffffffffffffffffffffffffffffffffffff168152602001821515151581526020019250505060405180910390a181600360008573ffffffffffffffffffffffffffffffffffffffff1673ffffffffffffffffffffffffffffffffffffffff16815260200190815260200160002060006101000a81548160ff0219169083151502179055506001905092915050565b600260009054906101000a900473ffffffffffffffffffffffffffffffffffffffff1681565b600060018560405160200180807f19457468657265756d205369676e6564204d6573736167653a0a333200000000815250601c0182600019166000191681526020019150506040516020818303038152906040526040518082805190602001908083835b602083101515611dc65780518252602082019150602081019050602083039250611da1565b6001836020036101000a0380198251168184511680821785525050505050509050019150506040518091039020858585604051600081526020016040526040518085600019166000191681526020018460ff1660ff1681526020018360001916600019168152602001826000191660001916815260200194505050505060206040516020810390808403906000865af1158015611e67573d6000803e3d6000fd5b5050506020604051035173ffffffffffffffffffffffffffffffffffffffff168673ffffffffffffffffffffffffffffffffffffffff1614905095945050505050565b60008060009054906101000a900473ffffffffffffffffffffffffffffffffffffffff1673ffffffffffffffffffffffffffffffffffffffff163373ffffffffffffffffffffffffffffffffffffffff16141515611f0757600080fd5b7fb8be72b4c168c2f7d3ea469d9f48ccbc62416784a4f6a69ca93ff13f4f36545b600160009054906101000a900473ffffffffffffffffffffffffffffffffffffffff1683604051808373ffffffffffffffffffffffffffffffffffffffff1673ffffffffffffffffffffffffffffffffffffffff1681526020018273ffffffffffffffffffffffffffffffffffffffff1673ffffffffffffffffffffffffffffffffffffffff1681526020019250505060405180910390a181600160006101000a81548173ffffffffffffffffffffffffffffffffffffffff021916908373ffffffffffffffffffffffffffffffffffffffff16021790555060019050919050565b6000809054906101000a900473ffffffffffffffffffffffffffffffffffffffff1681565b60006120568361204884876124af90919063ffffffff16565b6124e290919063ffffffff16565b90509392505050565b60056020528060005260406000206000915054906101000a900460ff1681565b60006120896127f5565b6000610120604051908101604052808960006006811015156120a757fe5b602002015181526020018960016006811015156120c057fe5b602002015181526020018960026006811015156120d957fe5b602002015181526020018960036006811015156120f257fe5b6020020151815260200189600460068110151561210b57fe5b6020020151815260200189600560068110151561212457fe5b6020020151815260200188600060038110151561213d57fe5b602002015173ffffffffffffffffffffffffffffffffffffffff16815260200188600160038110151561216c57fe5b602002015173ffffffffffffffffffffffffffffffffffffffff16815260200188600260038110151561219b57fe5b602002015173ffffffffffffffffffffffffffffffffffffffff1681525091506121c4826124fd565b90506121d33382888888611d3d565b151561223b577f36d86c59e00bd73dc19ba3adfe068e4b64ac7e92be35546adeddf1b956a87e906000600681111561220757fe5b82604051808360ff1660ff16815260200182600019166000191681526020019250505060405180910390a16000925061246b565b8160000151600460008360001916600019168152602001908152602001600020819055508160e001518260c00151604051602001808373ffffffffffffffffffffffffffffffffffffffff1673ffffffffffffffffffffffffffffffffffffffff166c010000000000000000000000000281526014018273ffffffffffffffffffffffffffffffffffffffff1673ffffffffffffffffffffffffffffffffffffffff166c01000000000000000000000000028152601401925050506040516020818303038152906040526040518082805190602001908083835b60208310151561233a5780518252602082019150602081019050602083039250612315565b6001836020036101000a03801982511681845116808217855250505050505090500191505060405180910390206000191682610100015173ffffffffffffffffffffffffffffffffffffffff167fbfa78175e8dfd3bfda20dd3ae584843e6ec42822f51f553fc12f5d9f908fdb16838560c0015186600001518760e00151886020015189604001518a606001516040518088600019166000191681526020018773ffffffffffffffffffffffffffffffffffffffff1673ffffffffffffffffffffffffffffffffffffffff1681526020018681526020018573ffffffffffffffffffffffffffffffffffffffff1673ffffffffffffffffffffffffffffffffffffffff16815260200184815260200183815260200182815260200197505050505050505060405180910390a3600192505b505095945050505050565b6040805190810160405280600581526020017f312e302e3000000000000000000000000000000000000000000000000000000081525081565b600080828402905060008414806124d057508284828115156124cd57fe5b04145b15156124d857fe5b8091505092915050565b60008082848115156124f057fe5b0490508091505092915050565b6000308261010001518360e001518460c001518560200151866000015187608001518860a0015189604001518a60600151604051602001808b73ffffffffffffffffffffffffffffffffffffffff1673ffffffffffffffffffffffffffffffffffffffff166c010000000000000000000000000281526014018a73ffffffffffffffffffffffffffffffffffffffff1673ffffffffffffffffffffffffffffffffffffffff166c010000000000000000000000000281526014018973ffffffffffffffffffffffffffffffffffffffff1673ffffffffffffffffffffffffffffffffffffffff166c010000000000000000000000000281526014018873ffffffffffffffffffffffffffffffffffffffff1673ffffffffffffffffffffffffffffffffffffffff166c010000000000000000000000000281526014018781526020018681526020018581526020018481526020018381526020018281526020019a50505050505050505050506040516020818303038152906040526040518082805190602001908083835b6020831015156126ad5780518252602082019150602081019050602083039250612688565b6001836020036101000a03801982511681845116808217855250505050505090500191505060405180910390209050919050565b600081600001518260600151836020015184604001516040516020018085600019166000191681526020018473ffffffffffffffffffffffffffffffffffffffff1673ffffffffffffffffffffffffffffffffffffffff166c010000000000000000000000000281526014018381526020018281526020019450505050506040516020818303038152906040526040518082805190602001908083835b6020831015156127a3578051825260208201915060208101905060208303925061277e565b6001836020036101000a03801982511681845116808217855250505050505090500191505060405180910390209050919050565b60008082840190508381101515156127eb57fe5b8091505092915050565b61012060405190810160405280600081526020016000815260200160008152602001600081526020016000815260200160008152602001600073ffffffffffffffffffffffffffffffffffffffff168152602001600073ffffffffffffffffffffffffffffffffffffffff168152602001600073ffffffffffffffffffffffffffffffffffffffff1681525090565b608060405190810160405280600080191681526020016000815260200160008152602001600073ffffffffffffffffffffffffffffffffffffffff16815250905600a165627a7a72305820e8115af312599487def6cfb906eda2b52e1e08b52bc1e432c16809d16c4b62c40029",
  "source": "pragma solidity 0.4.24;\n\nimport './utils/SafeMath.sol';\nimport './utils/Owned.sol';\nimport './interfaces/ERC20.sol';\n\ncontract Exchange is Owned {\n    using SafeMath for uint256;\n\n    enum Errors {\n        SIGNATURE_INVALID,                      // Signature is invalid\n        MAKER_SIGNATURE_INVALID,                // Maker signature is invalid\n        TAKER_SIGNATURE_INVALID,                // Taker signature is invalid\n        ORDER_EXPIRED,                          // Order has already expired\n        TRADE_ALREADY_COMPLETED_OR_CANCELLED,   // Trade has already been completed or it has been cancelled by taker\n        TRADE_AMOUNT_TOO_BIG,                   // Trade buyToken amount bigger than the remianing amountBuy\n        ROUNDING_ERROR_TOO_LARGE                // Rounding error too large\n    }\n\n    string constant public VERSION = \"1.0.0\";\n\n    address public wethToken;\n    address public feeAccount;\n    mapping(address => bool) public operators;\n    mapping(bytes32 => uint) public filled;       // Mappings of orderHash => amount of amountBuy filled.\n    mapping(bytes32 => bool) public traded;       // Mappings of tradeHash => bool value representing whether the trade is completed(true) or incomplete(false).\n\n    event LogWethTokenUpdate(address oldWethToken, address newWethToken);\n    event LogFeeAccountUpdate(address oldFeeAccount, address newFeeAccount);\n    event LogOperatorUpdate(address operator, bool isOperator);\n\n    event LogTrade(\n        address indexed maker,\n        address indexed taker,\n        address tokenSell,\n        address tokenBuy,\n        uint256 filledAmountSell,\n        uint256 filledAmountBuy,\n        uint paidFeeMake,\n        uint paidFeeTake,\n        bytes32 orderHash,\n        bytes32 indexed tokenPairHash // keccak256(makerToken, takerToken), allows subscribing to a token pair\n    );\n\n    event LogError(uint8 errorId, bytes32 orderHash);\n\n    event LogCancelOrder(\n        bytes32 orderHash,\n        address tokenBuy,\n        uint256 amountBuy,\n        address tokenSell,\n        uint256 amountSell,\n        uint256 expires,\n        uint256 nonce,\n        address indexed maker,\n        bytes32 indexed tokenPairHash // keccak256(makerToken, takerToken), allows subscribing to a token pair\n    );\n\n    event LogCancelTrade(\n        bytes32 orderHash,\n        uint256 amount,\n        uint256 tradeNonce,\n        address indexed taker\n    );\n\n    struct Order {\n        uint256 amountBuy;  // The amount of buy tokens asked in the order\n        uint256 amountSell; // The amount of sell tokens asked in the order\n        uint256 expires;    // The block length after which the order will be considered expired\n        uint256 nonce;      // A maker wise unique incrementing integer value assigned to the order\n        uint256 feeMake;    // It is the maker fee\n        uint256 feeTake;    // It is the taker fee\n        address tokenBuy;   // Ethereum address of the buy token\n        address tokenSell;  // Ethereum address of the sell token\n        address maker;      // Ethereum address of the order maker\n    }\n\n    struct Trade {\n        bytes32 orderHash;  // Keccak-256 hash of the order to which the trade is linked\n        uint256 amount;     // The amount of buy tokens asked in the order\n        uint256 tradeNonce; // A taker wise unique incrementing integer value assigned to the trade\n        address taker;      // Ethereum address of the trade taker\n    }\n\n    modifier onlyOperator {\n        require(msg.sender == owner || operators[msg.sender]);\n        _;\n    }\n\n    constructor(address _wethToken, address _feeAccount) public {\n        wethToken = _wethToken;\n        feeAccount = _feeAccount;\n    }\n\n    /// @dev Sets the address of WETH token.\n    /// @param _wethToken An address to set as WETH token address.\n    /// @return Success on setting WETH token address.\n    function setWethToken(address _wethToken) public onlyOwner returns (bool) {\n        emit LogWethTokenUpdate(wethToken,_wethToken);\n        wethToken = _wethToken;\n        return true;\n    }\n\n    /// @dev Sets the address of fees account.\n    /// @param _feeAccount An address to set as fees account.\n    /// @return Success on setting fees account.\n    function setFeeAccount(address _feeAccount) public onlyOwner returns (bool) {\n        require(_feeAccount != address(0));\n        emit LogFeeAccountUpdate(feeAccount,_feeAccount);\n        feeAccount = _feeAccount;\n        return true;\n    }\n\n    /// @dev Sets or unset's an operator.\n    /// @param _operator The address of operator to set.\n    /// @param _isOperator Bool value indicating whether the address is operator or not.\n    /// @return Success on setting an operator.\n    function setOperator(address _operator, bool _isOperator) public onlyOwner returns (bool) {\n        require(_operator != address(0));\n        emit LogOperatorUpdate(_operator,_isOperator);\n        operators[_operator] = _isOperator;\n        return true;\n    }\n\n\n    /*\n    * Core exchange functions\n    */\n\n\n    /// @dev Executes a trade between maker & taker.\n    /// @param orderValues Array of order's amountBuy, amountSell, expires, nonce, feeMake & feeTake values.\n    /// @param orderAddresses Array of order's tokenBuy, tokenSell, maker & taker addresses.\n    /// @param v Array of maker's & taker's ECDSA signature parameter v for order & trade.\n    ///         v[0] is v parameter of the maker's signature\n    ///         v[1] is v parameter of the taker's signature\n    /// @param rs Array of maker's & taker's ECDSA signature parameter r & s for order & trade.\n    ///         rs[0] is r parameter of the maker's signature\n    ///         rs[1] is s parameter of the maker's signature\n    ///         rs[2] is r parameter of the taker's signature\n    ///         rs[3] is s parameter of the taker's signature\n    /// @return Success or failure of trade execution.\n    function executeTrade(\n        uint256[8] orderValues,\n        address[4] orderAddresses,\n        uint8[2] memory v,\n        bytes32[4] memory rs\n    ) public onlyOperator returns (bool)\n    {\n        Order memory order = Order({\n            amountBuy : orderValues[0],\n            amountSell : orderValues[1],\n            expires : orderValues[2],\n            nonce : orderValues[3],\n            feeMake : orderValues[4],\n            feeTake : orderValues[5],\n            tokenBuy : orderAddresses[0],\n            tokenSell : orderAddresses[1],\n            maker : orderAddresses[2]\n            });\n\n        bytes32 orderHash = getOrderHash(order);\n\n        Trade memory trade = Trade({\n            orderHash : orderHash,\n            amount : orderValues[6],\n            tradeNonce : orderValues[7],\n            taker : orderAddresses[3]\n            });\n\n        bytes32 tradeHash = getTradeHash(trade);\n\n        if (!isValidSignature(order.maker, orderHash, v[0], rs[0], rs[1])) {\n            emit LogError(uint8(Errors.MAKER_SIGNATURE_INVALID), orderHash);\n            return false;\n        }\n\n        if (!isValidSignature(trade.taker, tradeHash, v[1], rs[2], rs[3])) {\n            emit LogError(uint8(Errors.TAKER_SIGNATURE_INVALID), tradeHash);\n            return false;\n        }\n\n        if (order.expires < block.number) {\n            emit LogError(uint8(Errors.ORDER_EXPIRED), orderHash);\n            return false;\n        }\n\n        if (traded[tradeHash]) {\n            emit LogError(uint8(Errors.TRADE_ALREADY_COMPLETED_OR_CANCELLED), tradeHash);\n            return false;\n        }\n\n        if (filled[orderHash].add(trade.amount) > order.amountBuy) {\n            emit LogError(uint8(Errors.TRADE_AMOUNT_TOO_BIG), orderHash);\n            return false;\n        }\n\n        if (isRoundingError(trade.amount, order.amountBuy, order.amountSell)) {\n            emit LogError(uint8(Errors.ROUNDING_ERROR_TOO_LARGE), orderHash);\n            return false;\n        }\n\n        traded[tradeHash] = true;\n        uint filledAmountSell = getPartialAmount(trade.amount, order.amountBuy, order.amountSell);\n\n        filled[orderHash] = filled[orderHash].add(trade.amount);\n\n        require(ERC20(order.tokenSell).transferFrom(order.maker, trade.taker, filledAmountSell));\n        require(ERC20(order.tokenBuy).transferFrom(trade.taker, order.maker, trade.amount));\n\n        if (order.feeMake > 0) {\n            uint paidFeeMake = getPartialAmount(trade.amount, order.amountBuy, order.feeMake);\n            require(ERC20(wethToken).transferFrom(order.maker, feeAccount, paidFeeMake));\n        }\n\n        if (order.feeTake > 0) {\n            uint paidFeeTake = getPartialAmount(trade.amount, order.amountBuy, order.feeTake);\n            require(ERC20(wethToken).transferFrom(trade.taker, feeAccount, paidFeeTake));\n        }\n\n        emit LogTrade(\n            order.maker,\n            trade.taker,\n            order.tokenSell,\n            order.tokenBuy,\n            filledAmountSell,\n            trade.amount,\n            paidFeeMake,\n            paidFeeTake,\n            orderHash,\n            keccak256(abi.encodePacked(order.tokenSell, order.tokenBuy)));\n        return true;\n    }\n\n    /// @dev Cancels the input order.\n    /// @param orderValues Array of order's amountBuy, amountSell, expires, nonce, feeMake & feeTake values.\n    /// @param orderAddresses Array of order's tokenBuy, tokenSell & maker addresses.\n    /// @param v ECDSA signature parameter v.\n    /// @param r ECDSA signature parameters r.\n    /// @param s ECDSA signature parameters s.\n    /// @return Success or failure of order cancellation.\n    function cancelOrder(\n        uint256[6] orderValues,\n        address[3] orderAddresses,\n        uint8 v,\n        bytes32 r,\n        bytes32 s\n    ) public returns (bool)\n    {\n        Order memory order = Order({\n            amountBuy : orderValues[0],\n            amountSell : orderValues[1],\n            expires : orderValues[2],\n            nonce : orderValues[3],\n            feeMake : orderValues[4],\n            feeTake : orderValues[5],\n            tokenBuy : orderAddresses[0],\n            tokenSell : orderAddresses[1],\n            maker : orderAddresses[2]\n            });\n\n        bytes32 orderHash = getOrderHash(order);\n\n        if (!isValidSignature(msg.sender, orderHash, v, r, s)) {\n            emit LogError(uint8(Errors.SIGNATURE_INVALID), orderHash);\n            return false;\n        }\n        filled[orderHash] = order.amountBuy;\n\n        emit LogCancelOrder(\n            orderHash,\n            order.tokenBuy,\n            order.amountBuy,\n            order.tokenSell,\n            order.amountSell,\n            order.expires,\n            order.nonce,\n            order.maker,\n            keccak256(abi.encodePacked(order.tokenSell, order.tokenBuy)));\n        return true;\n    }\n\n\n    /// @dev Cancels the input trade.\n    /// @param orderHash Keccak-256 hash of order.\n    /// @param amount Desired amount of takerToken that was to be filled in trade.\n    /// @param taker Address of the taker.\n    /// @param tradeNonce Trade nonce that was used in the trade.\n    /// @param v ECDSA signature parameter v.\n    /// @param r ECDSA signature parameters r.\n    /// @param s ECDSA signature parameters s.\n    /// @return Success or failure of trade cancellation.\n    function cancelTrade(\n        bytes32 orderHash,\n        uint256 amount,\n        uint256 tradeNonce,\n        address taker,\n        uint8 v,\n        bytes32 r,\n        bytes32 s)\n    public\n    returns (bool)\n    {\n        Trade memory trade = Trade({\n            orderHash : orderHash,\n            amount : amount,\n            tradeNonce : tradeNonce,\n            taker : taker\n            });\n\n        bytes32 tradeHash = getTradeHash(trade);\n\n        if (!isValidSignature(msg.sender, tradeHash, v, r, s)) {\n            emit LogError(uint8(Errors.SIGNATURE_INVALID), tradeHash);\n            return false;\n        }\n        traded[tradeHash] = true;\n\n        emit LogCancelTrade(orderHash, amount, tradeNonce, taker);\n        return true;\n    }\n\n    /*\n    * Pure public functions\n    */\n\n    /// @dev Verifies that a signature is valid.\n    /// @param signer address of signer.\n    /// @param hash Signed Keccak-256 hash.\n    /// @param v ECDSA signature parameter v.\n    /// @param r ECDSA signature parameters r.\n    /// @param s ECDSA signature parameters s.\n    /// @return Validity of order signature.\n    function isValidSignature(\n        address signer,\n        bytes32 hash,\n        uint8 v,\n        bytes32 r,\n        bytes32 s)\n    public\n    pure\n    returns (bool)\n    {\n        return signer == ecrecover(\n            keccak256(abi.encodePacked(\"\\x19Ethereum Signed Message:\\n32\", hash)),\n            v,\n            r,\n            s\n        );\n    }\n\n    /// @dev Checks if rounding error > 0.1%.\n    /// @param numerator Numerator.\n    /// @param denominator Denominator.\n    /// @param target Value to multiply with numerator/denominator.\n    /// @return Rounding error is present.\n    function isRoundingError(uint numerator, uint denominator, uint target)\n    public\n    pure\n    returns (bool)\n    {\n        uint remainder = mulmod(target, numerator, denominator);\n        if (remainder == 0) return false;\n        // No rounding error.\n\n        uint errPercentageTimes1000000 = (remainder.mul(1000000)).div(numerator.mul(target));\n        return errPercentageTimes1000000 > 1000;\n    }\n\n    /// @dev Calculates partial value given a numerator and denominator.\n    /// @param numerator Numerator.\n    /// @param denominator Denominator.\n    /// @param target Value to calculate partial of.\n    /// @return Partial value of target.\n    function getPartialAmount(uint numerator, uint denominator, uint target)\n    public\n    pure\n    returns (uint)\n    {\n        return (numerator.mul(target)).div(denominator);\n    }\n\n\n    /*\n    *   Internal functions\n    */\n\n\n    /// @dev Calculates Keccak-256 hash of order.\n    /// @param order Order that will be hased.\n    /// @return Keccak-256 hash of order.\n    function getOrderHash(Order order)\n    internal\n    view\n    returns (bytes32)\n    {\n        return keccak256(abi.encodePacked(\n                address(this),\n                order.maker,\n                order.tokenSell,\n                order.tokenBuy,\n                order.amountSell,\n                order.amountBuy,\n                order.feeMake,\n                order.feeTake,\n                order.expires,\n                order.nonce\n            ));\n    }\n\n    /// @dev Calculates Keccak-256 hash of trade.\n    /// @param trade Trade that will be hashed.\n    /// @return Keccak-256 hash of trade.\n    function getTradeHash(Trade trade)\n    internal\n    pure\n    returns (bytes32)\n    {\n        return keccak256(abi.encodePacked(\n                trade.orderHash,\n                trade.taker,\n                trade.amount,\n                trade.tradeNonce\n            ));\n    }\n\n}",
  "sourcePath": "/Users/davidvanisacker/Programming/Ethereum/Proofsuite/amp-dex/contracts/Exchange.sol",
  "compiler": {
    "name": "solc",
    "version": "0.4.24+commit.e67f0147.Emscripten.clang"
  },
  "schemaVersion": "2.0.1",
  "updatedAt": "2018-08-09T04:42:08.483Z"
}